:020000040800F2
:100000000050002059140008F5130008F7130008E9
:10001000F9130008FB130008FD130008000000009E
:10002000000000000000000000000000FF130008B6
:100030000114000800000000031400080514000863
:10004000A1140008A1140008A1140008A1140008BC
:10005000A1140008A1140008A1140008A1140008AC
:10006000A1140008A1140008A1140008A11400089C
:10007000A1140008A1140008A1140008A11400088C
:10008000A1140008A1140008A1140008A11400087C
:10009000A1140008A1140008A1140008A11400086C
:1000A000A1140008A1140008A1140008A11400085C
:1000B000A1140008A1140008A1140008A11400084C
:1000C000A1140008A1140008A1140008A11400083C
:1000D000A1140008A1140008A1140008A11400082C
:1000E000A1140008A1140008A114000800000000D9
:1000F0000000000000000000000000000000000000
:0C01000000000000000000005FF808F1A3
:10010C0010B5054C237833B9044B13B10448AFF345
:10011C0000800123237010BD0C00002000000000A3
:10012C00EC14000808B5034B1BB103490348AFF3AB
:10013C00008008BD0000000010000020EC14000836
:10014C0010B504460E4B18784FF47A73B3FBF0F3EA
:10015C000C4A1068B0FBF3F000F080F868B90F2C73
:10016C0001D901200AE0002221464FF0FF3000F0B7
:10017C0041F8034B5C60002000E0012010BD00BF83
:10018C00000000200800002008B5074A136843F05F
:10019C0010031360032000F01BF80020FFF7D0FFC2
:1001AC0001F0C4F8002008BD00200240034A116889
:1001BC00034B1B780B441360704700BF28000020D2
:1001CC0000000020014B1868704700BF2800002079
:1001DC00074AD36823F4E0631B041B0C000200F4F1
:1001EC00E060184340F0BF6040F40030D0607047CE
:1001FC0000ED00E030B4174BDB68C3F30223C3F10E
:10020C000704042C28BF04241D1D062D18D9033BFC
:10021C004FF0FF3505FA04F421EA0401994005FA80
:10022C0003F322EA0303194300280BDB0901C9B2CB
:10023C0000F1604000F5614080F8001330BC70475D
:10024C000023E5E700F00F000901C9B2024B195475
:10025C00F4E700BF00ED00E014ED00E00138B0F170
:10026C00807F0AD2064B5860064AF02182F8231090
:10027C000020986007221A6070470120704700BF69
:10028C0010E000E000ED00E0F0B482B0002635464E
:10029C00A1E0002C59D0012C00D1CE68FF2B68D8DE
:1002AC008446FF2B68D8AC00DCF800200F27A74051
:1002BC0022EA070206FA04F42243CCF800204A682A
:1002CC0012F0805F00F086805E4A946944F001046D
:1002DC009461926902F001020192019AAC08A71C88
:1002EC00594A52F8272005F00307BF004FF00F0CB6
:1002FC000CFA07FC22EA0C0C544A904242D002F54C
:10030C00806290427FD002F5806290427DD002F5EF
:10031C008062904234D0042235E04D4FBC4214D060
:10032C000BD94C4FBC4210D007F58037BC420CD0D7
:10033C00A7F58017BC42B1D107E0A7F58017BC42E6
:10034C0003D007F58037BC42A8D18C687CB1012C56
:10035C0008D042610826A1E7CE6808369EE7CE6831
:10036C000C369BE70261082698E7002696E70426E0
:10037C0094E700F1040C94E7A5F10804A40093E7BA
:10038C00032200E00022BA4042EA0C0202342E4F53
:10039C0047F824204A6812F4803F38D02E4C22684B
:1003AC001A4322604A6812F4003F36D02A4C626825
:1003BC001A4362604A6812F4801F34D0264CA2683B
:1003CC001A43A2604A6812F4001F32D0224CE26831
:1003DC001343E36001350F2D31D80122AA400B687D
:1003EC0013409A42F6D14C68122CB8D095D8022CF6
:1003FC00B2D07FF64EAF032CB7D0112C7FF44EAF9A
:10040C00CE6804364AE70122BDE70222BBE7124C54
:10041C00226822EA03022260C4E70F4C626822EAD7
:10042C0003026260C6E70C4CA26822EA0302A260D7
:10043C00C8E7094CE26822EA0303E360CAE702B0AA
:10044C00F0BC704700100240000001400008014061
:10045C0000002110000031100004014003685A69AB
:10046C0012F4806F0DD06FF480625A610423036420
:10047C0000230363202280F83D2080F83C300120CB
:10048C00704700207047F8B506460C4617461D46C7
:10049C001EE02DB1FFF796FE069BC01AA84217D995
:1004AC0000233363202286F83D2086F83E3086F800
:1004BC003C3003201AE033685B6924EA03039BB2E7
:1004CC00B3FA83F35B099F420FD1B5F1FF3FE0D143
:1004DC00C4F30743012BEED033689B6924EA030372
:1004EC009BB2B3FA83F35B09EDE70020F8BDF8B5D6
:1004FC0004460D4616461F4632E01A6842F4007256
:10050C001A6023686FF480625A6104232364002309
:10051C002363202284F83D2084F83C3001202DE018
:10052C0026B1FFF74FFEC01BB04219D9002323633D
:10053C00202284F83D2084F83C3003201EE0236800
:10054C005B6925EA03039BB2003318BF0123A3B1F7
:10055C0023685A6912F4806FCFD1B6F1FF3FDFD117
:10056C00C5F30743012BEAD023689B6925EA0303F3
:10057C009BB2003318BF0123E9E70020F8BD70B52A
:10058C0004460D46164623685B6913F0800F19D19B
:10059C002046FFF763FFB8B9B5F1FF3FF3D025B1A3
:1005AC00FFF710FE801BA842EDD9236C43F020030B
:1005BC00236400232363202284F83D2084F83C30FC
:1005CC00032000E0002070BD0120FCE72DE9F04184
:1005DC0084B004460E46174698460B9D0268136875
:1005EC0043F4806313600268136843F480731360F0
:1005FC0000950A9B00224FF00111FFF744FF0028E1
:10060C0074D1F6B2236806F0FE021A612B460A9AE0
:10061C003F492046FFF76BFF20B1236C042B6AD1B6
:10062C00012364E00023039323685A6903929B69B6
:10063C000393039B2A460A992046FFF7A0FF48B173
:10064C00236C042B59D12268136843F40073136094
:10065C0001234CE0B8F1010F12D12368FFB21F61E6
:10066C002A460A992046FFF78AFF00B3236C042B15
:10067C0047D12268136843F400731360012336E0FA
:10068C0023683A0A1A612A460A992046FFF777FF2F
:10069C0048B1236C042B32D12268136843F40073E5
:1006AC001360012323E02368FFB21F61D8E722689F
:1006BC00136843F48073136000950A9B00224FF07B
:1006CC0001112046FFF7DFFEE8B9236846F001066A
:1006DC001E612B460A9A0E492046FFF708FF034677
:1006EC0028B1236C042B10D1012300E003231846FE
:1006FC0004B0BDE8F0810323F9E70323F7E70323F4
:10070C00F5E70323F3E70323F1E70323EFE700BF48
:10071C000200010070B505460C4616462B685A6956
:10072C0012F0400F22D15A6912F0100F11D124B1DE
:10073C00FFF748FD801BA042F0D92B6C43F020033F
:10074C002B64202385F83D30002385F83C300320B2
:10075C0070BD6FF010025A6100232B642B632022B2
:10076C0085F83D2085F83C300120F1E70020EFE7CB
:10077C00002800F0A28038B5044690F83D30002BDC
:10078C004FD0242384F83D302268136823F00103F2
:10079C00136000F031FD62684A4B9A4246D84A4BCE
:1007AC0098428CBF00230123002B40F08880474BDC
:1007BC00A3FB00239B0C226853606168414A914261
:1007CC003AD801332268136261683E4B99423DD896
:1007DC00431E4900B3FBF1F30133C3F30B03042BAA
:1007EC0038BF04232268D361E369216A22680B4372
:1007FC0013602369E16822680B4393606369A16904
:10080C0022680B43D3602268136843F00103136022
:10081C0000202064202384F83D30206384F83E00BF
:10082C0038BD80F83C3000F0A3FDAAE7284B984275
:10083C008CBF00230123B7E74FF4967202FB03F33E
:10084C00244AA2FB03239B090133BBE7A368BBB972
:10085C00421E01EB4105B2FBF5F20132C2F30B0271
:10086C00B2FA82F2520932BBC3B9013801EB41032F
:10087C00B0FBF3F30133C3F30B0343F40043B1E7D1
:10088C00421E01EB810505EB8505B2FBF5F2013249
:10089C00C2F30B02B2FA82F25209E4E7013801EB1F
:1008AC00810303EB8303B0FBF3F30133C3F30B03BB
:1008BC0043F4404396E7012394E70120704701205D
:1008CC00AEE700BFA08601007F841E0083DE1B43C1
:1008DC00FF083D00D34D62102DE9F04186B004466F
:1008EC000E4617469846FFF76DFC94F83D30DBB288
:1008FC00202B04D00226304606B0BDE8F081054618
:10090C0000901923012291492046FFF7BCFD0028D5
:10091C0040F0578194F83C30012B00F054810123B6
:10092C0084F83C3023681A6812F0010F03D11A685E
:10093C0042F001021A602268136823F4006313600A
:10094C00222384F83D30402384F83E300023236476
:10095C000C9B6362BDF8343063857D4BE362638D21
:10096C00238501950E9B009343463A46314620461B
:10097C00FFF72CFE064660B1236C042B04D1002338
:10098C0084F83C300126B6E7002384F83C3003267B
:10099C00B1E7238D5BB9029323685A6902929A6975
:1009AC000292029A1A6842F400721A607FE0012BDC
:1009BC000FD0022B21D02268136843F4806313609C
:1009CC000023059323685A6905929B690593059B3F
:1009DC006DE02268136823F48063136072B6002301
:1009EC00039323685A6903929A690392039A1A68CB
:1009FC0042F400721A6062B659E02268136843F43C
:100A0C000063136072B60023049323685A6904923E
:100A1C009A690492049A1A6822F480621A6062B687
:100A2C0045E02A460E992046FFF774FE68B9236804
:100A3C001A69636A591C61621A70238D013B238504
:100A4C00638D013B9BB2638531E0236C202B01D07D
:100A5C00012650E703264EE700950E9B00223D49E8
:100A6C002046FFF710FD002840F0AF8072B62268D8
:100A7C00136843F40073136023681A69636A591C82
:100A8C0061621A70238D013B2385638D013B9BB200
:100A9C00638562B623681A69636A591C61621A70AD
:100AAC00238D013B2385638D013B9BB26385238D95
:100ABC00002B7DD0032B4FD8012BB2D0022BCBD0E7
:100ACC0000950E9B002223492046FFF7DCFC0028F2
:100ADC007DD12268136823F48063136072B6236897
:100AEC001A69636A591C61621A70238D013B238554
:100AFC00638D013B9BB2638500950E9B00221549CB
:100B0C002046FFF7C0FC002863D12268136843F429
:100B1C000073136023681A69636A591C61621A7046
:100B2C00238D013B2385638D013B9BB2638562B6AC
:100B3C0023681A69636A591C61621A70238D013B20
:100B4C002385638D013B9BB26385B0E702001000E7
:100B5C000000FFFF040001002A460E992046FFF713
:100B6C00D9FDF0B923681A69636A591C61621A705D
:100B7C00238D013B2385638D013B9BB263852368E9
:100B8C005A6912F0040F92D01A69636A591C616297
:100B9C001A70238D013B2385638D013B9BB26385CA
:100BAC0085E7236C202B01D00126A4E60326A2E6C0
:100BBC00202384F83D30002384F83E3084F83C3008
:100BCC0099E6022697E6022695E6032693E6032687
:100BDC0091E603268FE600BF82B0084B1B68084ADB
:100BEC00A2FB03235B0A00FB03F0019000BF019BF7
:100BFC005A1E0192002BF9D102B070470800002058
:100C0C00D34D621070B582B00446036813F0010F27
:100C1C002CD0AB4B5B6803F00C03042B1DD0A84B02
:100C2C005B6803F00C03082B12D06368B3F5803FAC
:100C3C0041D0002B55D103F1804303F504331A68DE
:100C4C0022F480321A601A6822F480221A6037E08B
:100C5C009B4B5B6813F4803FE7D0994B1B6813F4F4
:100C6C00003F03D06368002B00F0AE81236813F0C3
:100C7C00020F76D0924B5B6813F00C0F5FD0904B49
:100C8C005B6803F00C03082B54D02369002B00F095
:100C9C008A808C4B01221A60FFF794FA0546884B28
:100CAC001B6813F0020F75D1FFF78CFA401B02285A
:100CBC00F5D903208BE1824A136843F48033136027
:100CCC00636843B3FFF77EFA05467D4B1B6813F44C
:100CDC00003FCBD1FFF776FA401B6428F5D90320EF
:100CEC0075E1B3F5A02F09D0754B1A6822F4803248
:100CFC001A601A6822F480221A60E1E703F180433B
:100D0C00A3F53C331A6842F480221A601A6842F444
:100D1C0080321A60D4E7FFF755FA0546684B1B681A
:100D2C0013F4003FA2D0FFF74DFA401B6428F5D90D
:100D3C0003204CE1624B5B6813F4803FA5D1604B00
:100D4C001B6813F0020F04D02369012B01D0012082
:100D5C003DE15B4A136823F0F803616943EAC10380
:100D6C001360236813F0080F32D0A369002B5BD0FB
:100D7C00554B01221A60FFF725FA0546504B5B6A6A
:100D8C0013F0020F21D1FFF71DFA401B0228F5D9F1
:100D9C0003201CE14A4A136823F0F803616943EA13
:100DAC00C1031360DDE7474B00221A60FFF70AFA14
:100DBC000546434B1B6813F0020FD2D0FFF702FA23
:100DCC00401B0228F5D9032001E10120FFF704FFA5
:100DDC00236813F0040F00F09780394BDB6913F094
:100DEC00805F33D1364BDA6942F08052DA61DB69CD
:100DFC0003F080530193019B0125344B1B6813F4C2
:100E0C00807F25D0E368012B36D0002B4CD103F129
:100E1C00804303F504331A6A22F001021A621A6A3B
:100E2C0022F004021A622CE0274B00221A60FFF712
:100E3C00C9F90546224B5B6A13F0020FC8D0FFF7C5
:100E4C00C1F9401B0228F5D90320C0E00025D4E7E6
:100E5C001E4A136843F480731360FFF7B3F9064618
:100E6C001A4B1B6813F4807FCCD1FFF7ABF9801BB6
:100E7C006428F5D90320AAE0114A136A43F0010350
:100E8C001362E36873B3FFF79DF906460C4B1B6ABC
:100E9C0013F0020F37D1FFF795F9801B41F288331D
:100EAC009842F3D9032092E0052B11D0044B1A6A17
:100EBC0022F001021A621A6A22F004021A62E0E7B6
:100ECC000010024000004242800442420070004088
:100EDC00414B1A6A42F004021A621A6A42F0010289
:100EEC001A62CEE7FFF76EF906463B4B1B6A13F00E
:100EFC00020F08D0FFF766F9801B41F28833984245
:100F0C00F3D9032063E0E5B9E369002B5ED0324AE4
:100F1C00526802F00C02082A5BD0022B17D02F4B20
:100F2C0000221A60FFF74EF904462B4B1B6813F096
:100F3C00007F47D0FFF746F9001B0228F5D90320A4
:100F4C0045E0254AD36923F08053D361DCE7234B7A
:100F5C0000221A60FFF736F905461F4B1B6813F089
:100F6C00007F06D0FFF72EF9401B0228F5D903208D
:100F7C002DE0236AB3F5803F1AD017494B6823F450
:100F8C007413226A606A024313434B60134B0122B1
:100F9C001A60FFF717F904460F4B1B6813F0007F1C
:100FAC000ED1FFF70FF9001B0228F5D903200EE034
:100FBC00094A536823F40033A1680B435360DCE700
:100FCC00002004E0002002E0012000E0002002B03C
:100FDC0070BD0120FBE700BF0010024060004242E0
:100FEC0010B487B0164C94E80F000DF1180C0CE9F6
:100FFC000F00238AADF80430124B5B6803F00C022F
:10100C00082A1AD1C3F38342624412F8102C13F449
:10101C00803F05D10C4800FB02F007B010BC7047B4
:10102C00084B5B68C3F34043634413F8143C074814
:10103C0000FB02F0B0FBF3F0EFE70448EDE700BF74
:10104C00041500080010024000093D0000127A004F
:10105C00624B1B6803F007038B420CD25F4A136888
:10106C0023F007030B431360136803F007038B4251
:10107C0001D00120704770B5036813F0020F17D030
:10108C0013F0040F04D0564A536843F4E0635360E2
:10109C00036813F0080F04D0514A536843F46053AB
:1010AC0053604F4A536823F0F00384682343536022
:1010BC000D460446036813F0010F52D04368012B10
:1010CC0023D0022B28D0464A126812F0020F00F0EF
:1010DC00828043494A6822F0030213434B60FFF7B6
:1010EC0071F806466368012B1DD0022B2AD03C4BAD
:1010FC005B6813F00C0F34D0FFF764F8801B41F2DF
:10110C0088339842F3D9032064E0354A126812F40C
:10111C00003FDED101205DE0314A126812F0007F01
:10112C00D7D1012056E02E4B5B6803F00C03042B47
:10113C0017D0FFF747F8801B41F288339842F2D959
:10114C00032047E0264B5B6803F00C03082B08D008
:10115C00FFF738F8801B41F288339842F2D903200C
:10116C0038E01E4B1B6803F00703AB420CD91B4A3B
:10117C00136823F007032B431360136803F0070372
:10118C00AB4201D0012025E0236813F0040F06D0F8
:10119C00134A536823F4E063E1680B4353602368FC
:1011AC0013F0080F07D00E4A536823F460532169DB
:1011BC0043EAC1035360FFF713FF094B5B68C3F3AA
:1011CC000313084AD35CD840074B18600020FEF785
:1011DC00B7FF002070BD0120FCE700BF00200240DB
:1011EC00001002401815000808000020014B186878
:1011FC00704700BF0800002008B5FFF7F7FF044B4D
:10120C005B68C3F30223034AD35CD84008BD00BF1C
:10121C00001002402815000884B00F4B9A6942F068
:10122C0020029A619A6902F020020192019A9A694D
:10123C0042F004029A619A6902F004020292029A44
:10124C009A6942F008029A619B6903F008030393C0
:10125C00039B04B0704700BF0010024008B509485A
:10126C00094B0360094B436000238360C3604FF458
:10127C008042026143618361C3610362FFF778FAC4
:10128C0008BD00BF2C00002000540040A0860100C7
:10129C0000B585B06423029301230193044A0092A4
:1012AC000246A6210348FFF717FB05B05DF804FBC7
:1012BC00800000202C00002008B50020FFF7E8FF7C
:1012CC0008BD30B591B00024089409940B940C948B
:1012DC0001940294039404940594012206924FF411
:1012EC00803307930A9202250D950E934FF4E01369
:1012FC000F9306A8FFF786FC0F2301930295039426
:10130C004FF4806304930594294601A8FFF7A0FECF
:10131C0011B030BD08B5FEF737FFFFF7D2FFFFF76E
:10132C009DFFFFF779FFFFF7C7FFFEE782B00E4B7B
:10133C009A6942F001029A619A6902F001020092E4
:10134C00009ADA6942F08052DA61DB6903F080536B
:10135C000193019B054A536823F0E06343F000734B
:10136C00536002B0704700BF001002400000014003
:10137C0010B586B00023029303930493059302687F
:10138C00154B9A4201D006B010BD144CA36943F022
:10139C000803A361A36903F008030093009B4FF4B7
:1013AC0040730293122303930323059302A90C4861
:1013BC00FEF76AFF0B4A536843F0E06343F0020305
:1013CC005360E36943F40013E361E36903F400132E
:1013DC000193019BD7E700BF00540040001002406E
:1013EC00000C0140000001407047FEE7FEE7FEE7FD
:1013FC00FEE770477047704708B5FEF7D7FE08BD8B
:10140C000F4B1A6842F001021A6059680D4A0A40E3
:10141C005A601A6822F0847222F480321A601A68B8
:10142C0022F480221A605A6822F4FE025A604FF4A9
:10143C001F029A60044B4FF000629A60704700BF25
:10144C00001002400000FFF800ED00E0002103E076
:10145C000B4B5B58435004310A480B4B42189A42D1
:10146C00F6D30A4A02E0002342F8043B084B9A42A6
:10147C00F9D3FFF7C5FF00F00FF8FFF74BFF7047EC
:10148C0038150008000000200C0000200C00002083
:10149C0084000020FEE7000070B500250C4E0D4CBA
:1014AC00A41BA410A54209D100F01AF800250A4E7D
:1014BC000A4CA41BA410A54205D170BD56F82530CA
:1014CC0098470135EEE756F8253098470135F2E795
:1014DC0030150008301500083015000834150008C8
:1014EC00F8B500BFF8BC08BC9E467047F8B500BF05
:0814FC00F8BC08BC9E467047D5
:1015040002030405060708090A0B0C0D0E0F101040
:1015140001020000000000000000000001020304BA
:0C15240006070809000000000102030493
:04153000310100087D
:041534000D0100089D
:0C153800010000001000000000A24A04A6
:040000050800145982
:00000001FF
