:020000040800F2
:1000000000500020B11500083D1500083F150008FC
:1000100041150008431500084515000800000000C0
:10002000000000000000000000000000471500086C
:1000300049150008000000004B1500084D15000888
:10004000F9150008F9150008F9150008F915000858
:10005000F9150008F9150008F9150008F915000848
:10006000F9150008F9150008F9150008F915000838
:10007000F9150008F9150008F9150008F915000828
:10008000F9150008F915000855150008F9150008BC
:10009000F9150008F9150008F9150008F915000808
:1000A000F9150008F9150008F9150008F9150008F8
:1000B000F9150008F9150008F9150008F9150008E8
:1000C000F9150008F9150008F9150008F9150008D8
:1000D000F9150008F9150008F9150008F9150008C8
:1000E000F9150008F9150008F915000800000000CE
:1000F0000000000000000000000000000000000000
:0C01000000000000000000005FF808F1A3
:10010C0010B5054C237833B9044B13B10448AFF345
:10011C0000800123237010BD0C00002000000000A3
:10012C004416000808B5034B1BB103490348AFF351
:10013C00008008BD000000001000002044160008DC
:10014C0080F0004002E000BF81F0004142001FBF80
:10015C005FEA410392EA030F7FEA226C7FEA236C89
:10016C006AD04FEA1262D2EB1363C1BFD21841407E
:10017C0048404140B8BF5B42192B88BF704710F014
:10018C00004F40F4000020F07F4018BF404211F0B7
:10019C00004F41F4000121F07F4118BF494292EA1F
:1001AC00030F3FD0A2F1010241FA03FC10EB0C004B
:1001BC00C3F1200301FA03F100F0004302D54942D8
:1001CC0060EB4000B0F5000F13D3B0F1807F06D385
:1001DC0040084FEA310102F10102FE2A51D2B1F17D
:1001EC00004F40EBC25008BF20F0010040EA030072
:1001FC007047490040EB000010F4000FA2F101021F
:10020C00EDD1B0FA80FCACF1080CB2EB0C0200FAA8
:10021C000CF0AABF00EBC25052421843BCBFD040F6
:10022C001843704792F0000F81F4000106BF80F470
:10023C0000000132013BB5E74FEA41037FEA226C33
:10024C0018BF7FEA236C21D092EA030F04D092F0FE
:10025C00000F08BF0846704790EA010F1CBF002032
:10026C00704712F07F4F04D1400028BF40F000408F
:10027C00704712F100723CBF00F50000704700F0AF
:10028C00004343F0FE4040F4000070477FEA2262D6
:10029C0016BF08467FEA23630146420206BF5FEAA7
:1002AC00412390EA010F40F4800070474FF00003A7
:1002BC0004E000BF10F0004348BF40425FEA000C6E
:1002CC0008BF704743F0964301464FF000001CE016
:1002DC0050EA010208BF70474FF000030AE000BF6C
:1002EC0050EA010208BF704711F0004302D54042AA
:1002FC0061EB41015FEA010C02BF8446014600201C
:10030C0043F0B64308BFA3F18053A3F50003BCFA36
:10031C008CF2083AA3EBC25310DB01FA02FC6344E3
:10032C0000FA02FCC2F12002BCF1004F20FA02F2EA
:10033C0043EB020008BF20F00100704702F12002DD
:10034C0001FA02FCC2F1200250EA4C0021FA02F23E
:10035C0043EB020008BF20EADC70704710B504467E
:10036C000E4B18784FF47A73B3FBF0F30C4A106809
:10037C00B0FBF3F000F032FB68B90F2C01D901206F
:10038C000AE0002221464FF0FF3000F0E7FA034B61
:10039C005C60002000E0012010BD00BF00000020C8
:1003AC000800002008B5074A136843F010031360D7
:1003BC00032000F0C1FA0020FFF7D0FF01F05EF837
:1003CC00002008BD00200240034A1168034B1B7833
:1003DC000B441360704700BF280000200000002071
:1003EC00014B1868704700BF2800002038B5044640
:1003FC00FFF7F6FF0546B4F1FF3F02D0044B1B7824
:10040C001C44FFF7EDFF401BA042FAD338BD00BFE0
:10041C00000000200368D86C7047704710B5044684
:10042C0003685A6812F0200F18D01A6812F0020FE5
:10043C0014D0826A12F0100F03D1826A42F4007257
:10044C0082629A6802F46022B2F5602F38D020469E
:10045C0000F09AFF23686FF012021A6023685A6842
:10046C0012F0800F22D01A6812F0040F1ED0A26A6C
:10047C0012F0100F03D1A26A42F40052A2629A68E1
:10048C0002F4E042B2F5E04F31D05A6812F4806FBA
:10049C0005D19A6802F46022B2F5602F24D0204670
:1004AC0000F048FA23686FF00C021A6023685A684F
:1004BC0012F0400F03D01B6813F0010F28D110BDB0
:1004CC00E268002AC3D15A6822F020025A60A36A5B
:1004DC0023F48073A362A36A13F4805FB7D1A36A79
:1004EC0043F00103A362B2E7E268002AD7D15A684D
:1004FC0022F080025A60A36A23F48053A362A36A99
:10050C0013F4807FCBD1A36A43F00103A362C6E747
:10051C00A36A43F48033A3622046FFF77EFF23686F
:10052C006FF001021A60CAE730B482B00023019365
:10053C0090F82430012B00F08B800246012380F8C8
:10054C0024304B68062B29D80568686B03EB8303B2
:10055C00053B1F249C4020EA04000C6804FA03F3BA
:10056C0003436B630B68092B38D91568E86803EBF8
:10057C0043031E3B07249C4020EA04008C6804FAC9
:10058C0003F30343EB600B68103B012B34D90020C1
:10059C00002382F8243002B030BC70470C2B0ED8EC
:1005AC000568286B03EB8303233B1F249C4020EA44
:1005BC0004000C6804FA03F303432B63D2E70568C9
:1005CC00E86A03EB8303413B1F249C4020EA0400B0
:1005DC000C6804FA03F30343EB62C3E7156828695C
:1005EC0003EB430307249C4020EA04008C6804FAC4
:1005FC0003F303432B61C6E713681648834205D007
:10060C00936A43F0200393620120C1E7986810F4C9
:10061C00000F1BD1986840F4000098600B68102BF9
:10062C0001D00020B4E70C4B1B680C49A1FB031351
:10063C009B0C03EB83035900019102E0019B013BEE
:10064C000193019B002BF9D10020A1E700209FE72B
:10065C000220A0E7002401400800002083DE1B4399
:10066C0030B583B00023019303689A6812F0010F30
:10067C002ED19A6842F001029A60174B1B68174AF8
:10068C00A2FB03239B0C019302E0019B013B019312
:10069C00019B002BF9D10446FFF7A2FE0546236807
:1006AC009B6813F0010F11D1FFF79AFE401B022833
:1006BC00F5D9A36A43F01003A362E36A43F0010384
:1006CC00E362002384F82430012002E0002000E0E3
:1006DC00002003B030BD00BF0800002083DE1B43A8
:1006EC0090F82430012B6FD010B50446012380F80C
:1006FC002430FFF7B5FF0246002860D1A36A23F42B
:10070C00706323F0010343F48073A36223683049C0
:10071C008B422CD0A16A21F48011A162596811F48A
:10072C00806F05D0A16A21F4405141F48051A1623F
:10073C00A16A11F4805F30D0E16A21F00601E16218
:10074C00002184F824106FF00201196021684B68B5
:10075C0043F020034B602368996801F46021B1F5E4
:10076C00602F1DD0996841F4801199602AE0A1F5A1
:10077C008061496811F4702FCCD0A16A41F48011CA
:10078C00A1621449496811F4806FD1D0A16A21F497
:10079C00405141F48051A162CAE70021E162CFE7E8
:1007AC000B498B4204D0996841F4A001996009E08F
:1007BC00A1F58061496811F4702FD3D1F3E70023C0
:1007CC0084F82430104610BD02221046704700BF3A
:1007DC00002801400024014038B503689A6812F0E3
:1007EC00010F01D1002038BD04469A6822F00102A5
:1007FC009A60FFF7F5FD054623689B6813F0010F1F
:10080C000ED0FFF7EDFD401B0228F5D9A36A43F08B
:10081C001003A362E36A43F00103E3620120E2E701
:10082C000020E0E700287FD038B50446836A002B0F
:10083C0033D02046FFF7D0FFA36A13F010036DD11D
:10084C0000286BD1A26A22F4885222F0020242F0F4
:10085C000202A2626268E1690A43E56842EA450263
:10086C00A168B1F5807F21D001291CD061690129D3
:10087C001FD02568696821F469410B436B602168BE
:10088C008D682A4B2B4013438B60A368B3F5807F94
:10089C0020D0012B1ED000211FE0C36280F8243031
:1008AC0000F00EFEC5E74FF48073DFE74FF4807362
:1008BC00DCE735B9A169013943EA413343F40063FC
:1008CC00D7E7A16A41F02001A162E16A41F0010180
:1008DC00E162CEE72369013B19052568EB6A23F435
:1008EC0070030B43EB6223689968114B0B409A42DF
:1008FC000BD0A36A23F0120343F01003A362E36A44
:10090C0043F00103E36201200DE00023E362A36ADC
:10091C0023F0030343F00103A36204E0A36A43F052
:10092C001003A362012038BD01207047FDF7E1FFE1
:10093C00FE0E1FFF70470000074AD36823F4E063E4
:10094C001B041B0C000200F4E060184340F0BF6075
:10095C0040F40030D060704700ED00E030B4174B2D
:10096C00DB68C3F30223C3F10704042C28BF04245F
:10097C001D1D062D18D9033B4FF0FF3505FA04F465
:10098C0021EA0401994005FA03F322EA030319430F
:10099C0000280BDB0901C9B200F1604000F5614091
:1009AC0080F8001330BC70470023E5E700F00F001F
:1009BC000901C9B2024B1954F4E700BF00ED00E085
:1009CC0014ED00E000F01F02400901239340024A9D
:1009DC0042F82030704700BF00E100E00138B0F170
:1009EC00807F0AD2064B5860064AF02182F8231009
:1009FC000020986007221A6070470120704700BFE2
:100A0C0010E000E000ED00E0F0B482B000263546C6
:100A1C00A1E0002C59D0012C00D1CE68FF2B68D856
:100A2C008446FF2B68D8AC00DCF800200F27A740C9
:100A3C0022EA070206FA04F42243CCF800204A68A2
:100A4C0012F0805F00F086805E4A946944F00104E5
:100A5C009461926902F001020192019AAC08A71C00
:100A6C00594A52F8272005F00307BF004FF00F0C2E
:100A7C000CFA07FC22EA0C0C544A904242D002F5C4
:100A8C00806290427FD002F5806290427DD002F568
:100A9C008062904234D0042235E04D4FBC4214D0D9
:100AAC000BD94C4FBC4210D007F58037BC420CD050
:100ABC00A7F58017BC42B1D107E0A7F58017BC425F
:100ACC0003D007F58037BC42A8D18C687CB1012CCF
:100ADC0008D042610826A1E7CE6808369EE7CE68AA
:100AEC000C369BE70261082698E7002696E7042659
:100AFC0094E700F1040C94E7A5F10804A40093E733
:100B0C00032200E00022BA4042EA0C0202342E4FCB
:100B1C0047F824204A6812F4803F38D02E4C2268C3
:100B2C001A4322604A6812F4003F36D02A4C62689D
:100B3C001A4362604A6812F4801F34D0264CA268B3
:100B4C001A43A2604A6812F4001F32D0224CE268A9
:100B5C001343E36001350F2D31D80122AA400B68F5
:100B6C0013409A42F6D14C68122CB8D095D8022C6E
:100B7C00B2D07FF64EAF032CB7D0112C7FF44EAF12
:100B8C00CE6804364AE70122BDE70222BBE7124CCD
:100B9C00226822EA03022260C4E70F4C626822EA50
:100BAC0003026260C6E70C4CA26822EA0302A26050
:100BBC00C8E7094CE26822EA0303E360CAE702B023
:100BCC00F0BC7047001002400000014000080140DA
:100BDC0000002110000031100004014012B909047A
:100BEC00016170470161704782B0084B1B68084A6D
:100BFC00A2FB03235B0A00FB03F0019000BF019BE7
:100C0C005A1E0192002BF9D102B070470800002047
:100C1C00D34D621070B582B00446036813F0010F17
:100C2C002CD0AB4B5B6803F00C03042B1DD0A84BF2
:100C3C005B6803F00C03082B12D06368B3F5803F9C
:100C4C0041D0002B55D103F1804303F504331A68CE
:100C5C0022F480321A601A6822F480221A6037E07B
:100C6C009B4B5B6813F4803FE7D0994B1B6813F4E4
:100C7C00003F03D06368002B00F0AE81236813F0B3
:100C8C00020F76D0924B5B6813F00C0F5FD0904B39
:100C9C005B6803F00C03082B54D02369002B00F085
:100CAC008A808C4B01221A60FFF79AFB0546884B11
:100CBC001B6813F0020F75D1FFF792FB401B022843
:100CCC00F5D903208BE1824A136843F48033136017
:100CDC00636843B3FFF784FB05467D4B1B6813F435
:100CEC00003FCBD1FFF77CFB401B6428F5D90320D8
:100CFC0075E1B3F5A02F09D0754B1A6822F4803238
:100D0C001A601A6822F480221A60E1E703F180432A
:100D1C00A3F53C331A6842F480221A601A6842F434
:100D2C0080321A60D4E7FFF75BFB0546684B1B6803
:100D3C0013F4003FA2D0FFF753FB401B6428F5D9F6
:100D4C0003204CE1624B5B6813F4803FA5D1604BF0
:100D5C001B6813F0020F04D02369012B01D0012072
:100D6C003DE15B4A136823F0F803616943EAC10370
:100D7C001360236813F0080F32D0A369002B5BD0EB
:100D8C00554B01221A60FFF72BFB0546504B5B6A53
:100D9C0013F0020F21D1FFF723FB401B0228F5D9DA
:100DAC0003201CE14A4A136823F0F803616943EA03
:100DBC00C1031360DDE7474B00221A60FFF710FBFD
:100DCC000546434B1B6813F0020FD2D0FFF708FB0C
:100DDC00401B0228F5D9032001E10120FFF704FF95
:100DEC00236813F0040F00F09780394BDB6913F084
:100DFC00805F33D1364BDA6942F08052DA61DB69BD
:100E0C0003F080530193019B0125344B1B6813F4B1
:100E1C00807F25D0E368012B36D0002B4CD103F119
:100E2C00804303F504331A6A22F001021A621A6A2B
:100E3C0022F004021A622CE0274B00221A60FFF702
:100E4C00CFFA0546224B5B6A13F0020FC8D0FFF7AE
:100E5C00C7FA401B0228F5D90320C0E00025D4E7CF
:100E6C001E4A136843F480731360FFF7B9FA064601
:100E7C001A4B1B6813F4807FCCD1FFF7B1FA801B9F
:100E8C006428F5D90320AAE0114A136A43F0010340
:100E9C001362E36873B3FFF7A3FA06460C4B1B6AA5
:100EAC0013F0020F37D1FFF79BFA801B41F2883306
:100EBC009842F3D9032092E0052B11D0044B1A6A07
:100ECC0022F001021A621A6A22F004021A62E0E7A6
:100EDC000010024000004242800442420070004078
:100EEC00414B1A6A42F004021A621A6A42F0010279
:100EFC001A62CEE7FFF774FA06463B4B1B6A13F0F7
:100F0C00020F08D0FFF76CFA801B41F2883398422D
:100F1C00F3D9032063E0E5B9E369002B5ED0324AD4
:100F2C00526802F00C02082A5BD0022B17D02F4B10
:100F3C0000221A60FFF754FA04462B4B1B6813F07F
:100F4C00007F47D0FFF74CFA001B0228F5D903208D
:100F5C0045E0254AD36923F08053D361DCE7234B6A
:100F6C0000221A60FFF73CFA05461F4B1B6813F072
:100F7C00007F06D0FFF734FA401B0228F5D9032076
:100F8C002DE0236AB3F5803F1AD017494B6823F440
:100F9C007413226A606A024313434B60134B0122A1
:100FAC001A60FFF71DFA04460F4B1B6813F0007F05
:100FBC000ED1FFF715FA001B0228F5D903200EE01D
:100FCC00094A536823F40033A1680B435360DCE7F0
:100FDC00002004E0002002E0012000E0002002B02C
:100FEC0070BD0120FBE700BF0010024060004242D0
:100FFC0010B487B0164C94E80F000DF1180C0CE9E6
:10100C000F00238AADF80430124B5B6803F00C021E
:10101C00082A1AD1C3F38342624412F8102C13F439
:10102C00803F05D10C4800FB02F007B010BC7047A4
:10103C00084B5B68C3F34043634413F8143C074804
:10104C0000FB02F0B0FBF3F0EFE70448EDE700BF64
:10105C005C1600080010024000093D0000127A00E6
:10106C00624B1B6803F007038B420CD25F4A136878
:10107C0023F007030B431360136803F007038B4241
:10108C0001D00120704770B5036813F0020F17D020
:10109C0013F0040F04D0564A536843F4E0635360D2
:1010AC00036813F0080F04D0514A536843F460539B
:1010BC0053604F4A536823F0F00384682343536012
:1010CC000D460446036813F0010F52D04368012B00
:1010DC0023D0022B28D0464A126812F0020F00F0DF
:1010EC00828043494A6822F0030213434B60FFF7A6
:1010FC0077F906466368012B1DD0022B2AD03C4B96
:10110C005B6813F00C0F34D0FFF76AF9801B41F2C7
:10111C0088339842F3D9032064E0354A126812F4FC
:10112C00003FDED101205DE0314A126812F0007FF1
:10113C00D7D1012056E02E4B5B6803F00C03042B37
:10114C0017D0FFF74DF9801B41F288339842F2D942
:10115C00032047E0264B5B6803F00C03082B08D0F8
:10116C00FFF73EF9801B41F288339842F2D90320F5
:10117C0038E01E4B1B6803F00703AB420CD91B4A2B
:10118C00136823F007032B431360136803F0070362
:10119C00AB4201D0012025E0236813F0040F06D0E8
:1011AC00134A536823F4E063E1680B4353602368EC
:1011BC0013F0080F07D00E4A536823F460532169CB
:1011CC0043EAC1035360FFF713FF094B5B68C3F39A
:1011DC000313084AD35CD840074B18600020FFF774
:1011EC00BDF8002070BD0120FCE700BF00200240CC
:1011FC0000100240701600080800002070B582B084
:10120C000446036813F0010F34D03E4BDB6913F036
:10121C00805F48D13B4BDA6942F08052DA61DB697E
:10122C0003F080530193019B0125374B1B6813F48A
:10123C00807F3AD0334B1B6A13F4407311D0626831
:10124C0002F440729A420CD02E4A136A23F4407076
:10125C002E4901260E6000260E60106213F0010F5D
:10126C0037D1284A136A23F4407361680B43136225
:10127C00002D3FD1236813F0020F06D0214A53688A
:10128C0023F44043A1680B435360236813F0100F01
:10129C0035D01C4A536823F48003E1680B43536038
:1012AC00002002B070BD0025BFE7174A136843F455
:1012BC0080731360FFF794F80646134B1B6813F406
:1012CC00807FB7D1FFF78CF8801B6428F5D90320F9
:1012DC00E7E7FFF785F806460A4B1B6A13F0020F87
:1012EC00BFD1FFF77DF8801B41F288339842F3D9C8
:1012FC000320D6E7D36923F08053D361BAE70020EB
:10130C00CFE700BF00100240007000404004424292
:10131C0082B00A4B9A6942F020029A619A6902F0F3
:10132C0020020092009A9A6942F004029A619B6929
:10133C0003F004030193019B02B0704700100240BC
:10134C0070B584B000250195029503950C4C0D4B9E
:10135C002360A5600126E66065614FF46023E361BC
:10136C00656026612046FFF75DFA0423019302961F
:10137C0003950DEB03012046FFF7D6F804B070BDC2
:10138C00300000200024014008B50B48FFF742F85C
:10139C0080B20A4B18800A4BA3FB0023C01A03EB44
:1013AC005003C3F3CF2340F6E44000FB03F0FEF7F9
:1013BC0081FF044B186008BD300000202C00002079
:1013CC00010110006000002030B595B000240C9491
:1013DC000D940F9410940594069407940894099412
:1013EC00019402940394049401220A924FF48033E2
:1013FC000B930E920225119512934FF4E013139355
:10140C000AA8FFF707FC0F230593069507944FF4E2
:10141C00806308930994294605A8FFF721FE0195DE
:10142C004FF40043039301A8FFF7E8FE15B030BD5D
:10143C0008B5FEF7B7FFFFF7C7FFFFF769FFFFF728
:10144C007FFF0C48FFF74CF90B4C00224FF4005176
:10145C002046FFF7C3FBFA20FEF7C8FF01224FF42A
:10146C0000512046FFF7BAFB4FF4FA70FEF7BEFFAF
:10147C00EAE700BF300000200010014082B00E4BA4
:10148C009A6942F001029A619A6902F00102009293
:10149C00009ADA6942F08052DA61DB6903F080531A
:1014AC000193019B054A536823F0E06343F00073FA
:1014BC00536002B0704700BF0010024000000140B2
:1014CC0000B587B00023029303930493059302683D
:1014DC00154B9A4202D007B05DF804FB03F56C4340
:1014EC009A6942F400729A619A6902F4007200924D
:1014FC00009A9A6942F004029A619B6903F0040312
:10150C000193019B102302930323039302A9074821
:10151C00FFF77AFA002211461220FFF71FFA122069
:10152C00FFF750FAD7E700BF002401400008014044
:10153C007047FEE7FEE7FEE7FEE77047704770472F
:10154C0008B5FEF741FF08BD08B50248FEF766FF77
:10155C0008BD00BF300000200F4B1A6842F001029A
:10156C001A6059680D4A0A405A601A6822F084724F
:10157C0022F480321A601A6822F480221A605A68A7
:10158C0022F4FE025A604FF41F029A60044B4FF093
:10159C0000629A60704700BF001002400000FFF824
:1015AC0000ED00E0002103E00B4B5B58435004318D
:1015BC000A480B4B42189A42F6D30A4A02E000231F
:1015CC0042F8043B084B9A42F9D3FFF7C5FF00F0F1
:1015DC000FF8FFF72DFF7047901600080000002051
:1015EC000C0000200C00002064000020FEE700002E
:1015FC0070B500250C4E0D4CA41BA410A54209D1AE
:10160C0000F01AF800250A4E0A4CA41BA410A5429F
:10161C0005D170BD56F8253098470135EEE756F8E0
:10162C00253098470135F2E788160008881600081F
:10163C00881600088C160008F8B500BFF8BC08BC6A
:10164C009E467047F8B500BFF8BC08BC9E46704774
:10165C0002030405060708090A0B0C0D0E0F1010E7
:10166C000102000000000000000000000102030461
:0C167C000607080900000000010203043A
:041688003101000824
:04168C000D01000844
:0C169000010000001000000000A24A044D
:04000005080015B129
:00000001FF
