:020000040800F2
:1000000000500020BD140008591400085B140008BB
:100010005D1400085F14000861140008000000006F
:100020000000000000000000000000006314000851
:100030006514000800000000671400086914000837
:100040000515000805150008051500080515000828
:100050000515000805150008051500080515000818
:100060000515000805150008051500080515000808
:1000700005150008051500080515000805150008F8
:1000800005150008051500080515000805150008E8
:1000900005150008051500080515000805150008D8
:1000A00005150008051500080515000805150008C8
:1000B00005150008051500080515000805150008B8
:1000C00005150008051500080515000805150008A8
:1000D0000515000805150008051500080515000898
:1000E00005150008051500080515000800000000AA
:1000F0000000000000000000000000000000000000
:0C01000000000000000000005FF808F1A3
:10010C0010B5054C237833B9044B13B10448AFF345
:10011C0000800123237010BD70000020000000003F
:10012C00B823000808B5034B1BB103490348AFF3D0
:10013C00008008BD0000000074000020B8230008F7
:10014C0010B504460E4B18784FF47A73B3FBF0F3EA
:10015C000C4A1068B0FBF3F000F094F868B90F2C5F
:10016C0001D901200AE0002221464FF0FF3000F0B7
:10017C0055F8034B5C60002000E0012010BD00BF6F
:10018C00000000200800002008B5074A136843F05F
:10019C0010031360032000F02FF80020FFF7D0FFAE
:1001AC0001F0F6F8002008BD00200240034A116857
:1001BC00034B1B780B441360704700BF9800002062
:1001CC0000000020014B1868704700BF9800002009
:1001DC0038B50446FFF7F6FF0546B4F1FF3F02D0F1
:1001EC00044B1B781C44FFF7EDFF401BA042FAD3D5
:1001FC0038BD00BF00000020074AD36823F4E06339
:10020C001B041B0C000200F4E060184340F0BF60BC
:10021C0040F40030D060704700ED00E030B4174B74
:10022C00DB68C3F30223C3F10704042C28BF0424A6
:10023C001D1D062D18D9033B4FF0FF3505FA04F4AC
:10024C0021EA0401994005FA03F322EA0303194356
:10025C0000280BDB0901C9B200F1604000F56140D8
:10026C0080F8001330BC70470023E5E700F00F0066
:10027C000901C9B2024B1954F4E700BF00ED00E0CC
:10028C0014ED00E00138B0F1807F0AD2064B5860C3
:10029C00064AF02182F823100020986007221A6089
:1002AC0070470120704700BF10E000E000ED00E057
:1002BC00F0B482B000263546A1E0002C59D0012CB8
:1002CC0000D1CE68FF2B68D88446FF2B68D8AC00D1
:1002DC00DCF800200F27A74022EA070206FA04F4F4
:1002EC002243CCF800204A6812F0805F00F0868030
:1002FC005E4A946944F001049461926902F001022F
:10030C000192019AAC08A71C594A52F8272005F013
:10031C000307BF004FF00F0C0CFA07FC22EA0C0C81
:10032C00544A904242D002F5806290427FD002F54E
:10033C00806290427DD002F58062904234D00422DB
:10034C0035E04D4FBC4214D00BD94C4FBC4210D0B1
:10035C0007F58037BC420CD0A7F58017BC42B1D151
:10036C0007E0A7F58017BC4203D007F58037BC42E5
:10037C00A8D18C687CB1012C08D042610826A1E779
:10038C00CE6808369EE7CE680C369BE702610826DD
:10039C0098E7002696E7042694E700F1040C94E70E
:1003AC00A5F10804A40093E7032200E00022BA4060
:1003BC0042EA0C0202342E4F47F824204A6812F409
:1003CC00803F38D02E4C22681A4322604A6812F4BF
:1003DC00003F36D02A4C62681A4362604A6812F4B5
:1003EC00801F34D0264CA2681A43A2604A6812F4CB
:1003FC00001F32D0224CE2681343E36001350F2D0D
:10040C0031D80122AA400B6813409A42F6D14C68AD
:10041C00122CB8D095D8022CB2D07FF64EAF032C4C
:10042C00B7D0112C7FF44EAFCE6804364AE70122C8
:10043C00BDE70222BBE7124C226822EA03022260CB
:10044C00C4E70F4C626822EA03026260C6E70C4CF8
:10045C00A26822EA0302A260C8E7094CE26822EA19
:10046C000303E360CAE702B0F0BC7047001002401F
:10047C000000014000080140000021100000311074
:10048C000004014003685A6912F4806F0DD06FF4B8
:10049C0080625A610423036400230363202280F8E2
:1004AC003D2080F83C300120704700207047F8B5A3
:1004BC0006460C4617461D461EE02DB1FFF782FE80
:1004CC00069BC01AA84217D900233363202286F852
:1004DC003D2086F83E3086F83C3003201AE0336825
:1004EC005B6924EA03039BB2B3FA83F35B099F4273
:1004FC000FD1B5F1FF3FE0D1C4F30743012BEED090
:10050C0033689B6924EA03039BB2B3FA83F35B0958
:10051C00EDE70020F8BDF8B504460D4616461F461B
:10052C0032E01A6842F400721A6023686FF4806239
:10053C005A610423236400232363202284F83D2082
:10054C0084F83C3001202DE026B1FFF73BFEC01BA8
:10055C00B04219D900232363202284F83D2084F86B
:10056C003C3003201EE023685B6925EA03039BB241
:10057C00003318BF0123A3B123685A6912F4806FAA
:10058C00CFD1B6F1FF3FDFD1C5F30743012BEAD042
:10059C0023689B6925EA03039BB2003318BF012330
:1005AC00E9E70020F8BD70B504460D4616462368F1
:1005BC005B6913F0800F19D12046FFF763FFB8B9C0
:1005CC00B5F1FF3FF3D025B1FFF7FCFD801BA8422E
:1005DC00EDD9236C43F020032364002323632022F2
:1005EC0084F83D2084F83C30032000E0002070BDEE
:1005FC000120FCE72DE9F04184B004460E46174675
:10060C0098460B9D0268136843F48063136002687C
:10061C00136843F48073136000950A9B00224FF01B
:10062C000111FFF744FF002874D1F6B2236806F0DD
:10063C00FE021A612B460A9A3F492046FFF76BFFD0
:10064C0020B1236C042B6AD1012364E000230393B3
:10065C0023685A6903929B690393039B2A460A9960
:10066C002046FFF7A0FF48B1236C042B59D1226818
:10067C00136843F40073136001234CE0B8F1010FCD
:10068C0012D12368FFB21F612A460A992046FFF750
:10069C008AFF00B3236C042B47D12268136843F400
:1006AC0000731360012336E023683A0A1A612A4664
:1006BC000A992046FFF777FF48B1236C042B32D1FF
:1006CC002268136843F400731360012323E023684A
:1006DC00FFB21F61D8E72268136843F4807313607C
:1006EC0000950A9B00224FF001112046FFF7DFFE18
:1006FC00E8B9236846F001061E612B460A9A0E499A
:10070C002046FFF708FF034628B1236C042B10D1B9
:10071C00012300E00323184604B0BDE8F081032355
:10072C00F9E70323F7E70323F5E70323F3E70323B1
:10073C00F1E70323EFE700BF0200010070B50546A7
:10074C000C4616462B685A6912F0400F22D15A6992
:10075C0012F0100F11D124B1FFF734FD801BA04211
:10076C00F0D92B6C43F020032B64202385F83D300B
:10077C00002385F83C30032070BD6FF010025A61E5
:10078C0000232B642B63202285F83D2085F83C3018
:10079C000120F1E70020EFE7002800F0A28038B537
:1007AC00044690F83D30002B4FD0242384F83D3084
:1007BC002268136823F00103136000F031FD6268B6
:1007CC004A4B9A4246D84A4B98428CBF002301238D
:1007DC00002B40F08880474BA3FB00239B0C226826
:1007EC0053606168414A91423AD8013322681362DE
:1007FC0061683E4B99423DD8431E4900B3FBF1F36F
:10080C000133C3F30B03042B38BF04232268D361D9
:10081C00E369216A22680B4313602369E16822684B
:10082C000B4393606369A16922680B43D360226810
:10083C00136843F00103136000202064202384F824
:10084C003D30206384F83E0038BD80F83C3000F029
:10085C00C1FDAAE7284B98428CBF00230123B7E7C0
:10086C004FF4967202FB03F3244AA2FB03239B0969
:10087C000133BBE7A368BBB9421E01EB4105B2FBD8
:10088C00F5F20132C2F30B02B2FA82F2520932BB18
:10089C00C3B9013801EB4103B0FBF3F30133C3F3EC
:1008AC000B0343F40043B1E7421E01EB810505EB5A
:1008BC008505B2FBF5F20132C2F30B02B2FA82F2F9
:1008CC005209E4E7013801EB810303EB8303B0FB2E
:1008DC00F3F30133C3F30B0343F4404396E70123D3
:1008EC0094E7012070470120AEE700BFA08601000D
:1008FC007F841E0083DE1B43FF083D00D34D621036
:10090C002DE9F04186B004460E4617469846FFF78F
:10091C0059FC94F83D30DBB2202B04D00226304633
:10092C0006B0BDE8F08105460090192301229149DB
:10093C002046FFF7BCFD002840F0578194F83C306E
:10094C00012B00F05481012384F83C3023681A6891
:10095C0012F0010F03D11A6842F001021A602268EA
:10096C00136823F400631360222384F83D30402382
:10097C0084F83E30002323640C9B6362BDF8343052
:10098C0063857D4BE362638D238501950E9B0093FC
:10099C0043463A4631462046FFF72CFE064660B1E8
:1009AC00236C042B04D1002384F83C300126B6E7D9
:1009BC00002384F83C300326B1E7238D5BB9029306
:1009CC0023685A6902929A690292029A1A6842F44E
:1009DC0000721A607FE0012B0FD0022B21D022680D
:1009EC00136843F4806313600023059323685A69EA
:1009FC0005929B690593059B6DE02268136823F4AF
:100A0C008063136072B60023039323685A690392C0
:100A1C009A690392039A1A6842F400721A6062B6D9
:100A2C0059E02268136843F40063136072B6002324
:100A3C00049323685A6904929A690492049A1A6876
:100A4C0022F480621A6062B645E02A460E9920466E
:100A5C00FFF774FE68B923681A69636A591C6162EE
:100A6C001A70238D013B2385638D013B9BB26385FB
:100A7C0031E0236C202B01D0012650E703264EE7F2
:100A8C0000950E9B00223D492046FFF710FD0028E3
:100A9C0040F0AF8072B62268136843F400731360A1
:100AAC0023681A69636A591C61621A70238D013BB1
:100ABC002385638D013B9BB2638562B623681A69FB
:100ACC00636A591C61621A70238D013B2385638D07
:100ADC00013B9BB26385238D002B7DD0032B4FD81C
:100AEC00012BB2D0022BCBD000950E9B00222349B8
:100AFC002046FFF7DCFC00287DD12268136823F424
:100B0C008063136072B623681A69636A591C616248
:100B1C001A70238D013B2385638D013B9BB263854A
:100B2C0000950E9B002215492046FFF7C0FC0028BB
:100B3C0063D12268136843F40073136023681A6945
:100B4C00636A591C61621A70238D013B2385638D86
:100B5C00013B9BB2638562B623681A69636A591CB0
:100B6C0061621A70238D013B2385638D013B9BB21F
:100B7C006385B0E7020010000000FFFF04000100D5
:100B8C002A460E992046FFF7D9FDF0B923681A6959
:100B9C00636A591C61621A70238D013B2385638D36
:100BAC00013B9BB2638523685A6912F0040F92D003
:100BBC001A69636A591C61621A70238D013B238583
:100BCC00638D013B9BB2638585E7236C202B01D0A1
:100BDC000126A4E60326A2E6202384F83D30002358
:100BEC0084F83E3084F83C3099E6022697E60226DB
:100BFC0095E6032693E6032691E603268FE600BFCF
:100C0C0082B0084B1B68084AA2FB03235B0A00FB5B
:100C1C0003F0019000BF019B5A1E0192002BF9D1E9
:100C2C0002B0704708000020D34D621070B582B03E
:100C3C000446036813F0010F2CD0AB4B5B6803F038
:100C4C000C03042B1DD0A84B5B6803F00C03082B82
:100C5C0012D06368B3F5803F41D0002B55D103F11E
:100C6C00804303F504331A6822F480321A601A6840
:100C7C0022F480221A6037E09B4B5B6813F4803FB0
:100C8C00E7D0994B1B6813F4003F03D06368002B2B
:100C9C0000F0AE81236813F0020F76D0924B5B68A4
:100CAC0013F00C0F5FD0904B5B6803F00C03082B18
:100CBC0054D02369002B00F08A808C4B01221A60DF
:100CCC00FFF780FA0546884B1B6813F0020F75D1AD
:100CDC00FFF778FA401B0228F5D903208BE1824AF2
:100CEC00136843F480331360636843B3FFF76AFA05
:100CFC0005467D4B1B6813F4003FCBD1FFF762FA1E
:100D0C00401B6428F5D9032075E1B3F5A02F09D059
:100D1C00754B1A6822F480321A601A6822F4802209
:100D2C001A60E1E703F18043A3F53C331A6842F4FF
:100D3C0080221A601A6842F480321A60D4E7FFF7F6
:100D4C0041FA0546684B1B6813F4003FA2D0FFF72D
:100D5C0039FA401B6428F5D903204CE1624B5B68DF
:100D6C0013F4803FA5D1604B1B6813F0020F04D025
:100D7C002369012B01D001203DE15B4A136823F06C
:100D8C00F803616943EAC1031360236813F0080F89
:100D9C0032D0A369002B5BD0554B01221A60FFF7B0
:100DAC0011FA0546504B5B6A13F0020F21D1FFF785
:100DBC0009FA401B0228F5D903201CE14A4A1368A2
:100DCC0023F0F803616943EAC1031360DDE7474B85
:100DDC0000221A60FFF7F6F90546434B1B6813F027
:100DEC00020FD2D0FFF7EEF9401B0228F5D90320F1
:100DFC0001E10120FFF704FF236813F0040F00F05A
:100E0C009780394BDB6913F0805F33D1364BDA694D
:100E1C0042F08052DA61DB6903F080530193019B4D
:100E2C000125344B1B6813F4807F25D0E368012B1C
:100E3C0036D0002B4CD103F1804303F504331A6AEE
:100E4C0022F001021A621A6A22F004021A622CE0E1
:100E5C00274B00221A60FFF7B5F90546224B5B6A57
:100E6C0013F0020FC8D0FFF7ADF9401B0228F5D9DB
:100E7C000320C0E00025D4E71E4A136843F48073B6
:100E8C001360FFF79FF906461A4B1B6813F4807F1B
:100E9C00CCD1FFF797F9801B6428F5D90320AAE081
:100EAC00114A136A43F001031362E36873B3FFF74B
:100EBC0089F906460C4B1B6A13F0020F37D1FFF76A
:100ECC0081F9801B41F288339842F3D9032092E0D8
:100EDC00052B11D0044B1A6A22F001021A621A6A0D
:100EEC0022F004021A62E0E70010024000004242C5
:100EFC008004424200700040414B1A6A42F00402E6
:100F0C001A621A6A42F001021A62CEE7FFF75AF926
:100F1C0006463B4B1B6A13F0020F08D0FFF752F941
:100F2C00801B41F288339842F3D9032063E0E5B982
:100F3C00E369002B5ED0324A526802F00C02082A98
:100F4C005BD0022B17D02F4B00221A60FFF73AF917
:100F5C0004462B4B1B6813F0007F47D0FFF732F988
:100F6C00001B0228F5D9032045E0254AD36923F05C
:100F7C008053D361DCE7234B00221A60FFF722F980
:100F8C0005461F4B1B6813F0007F06D0FFF71AF9BC
:100F9C00401B0228F5D903202DE0236AB3F5803FCE
:100FAC001AD017494B6823F47413226A606A0243FF
:100FBC0013434B60134B01221A60FFF703F90446ED
:100FCC000F4B1B6813F0007F0ED1FFF7FBF8001BD3
:100FDC000228F5D903200EE0094A536823F40033A4
:100FEC00A1680B435360DCE7002004E0002002E022
:100FFC00012000E0002002B070BD0120FBE700BF23
:10100C00001002406000424210B487B0164C94E8C5
:10101C000F000DF1180C0CE90F00238AADF8043009
:10102C00124B5B6803F00C02082A1AD1C3F38342FB
:10103C00624412F8102C13F4803F05D10C4800FBCD
:10104C0002F007B010BC7047084B5B68C3F3404319
:10105C00634413F8143C074800FB02F0B0FBF3F0B8
:10106C00EFE70448EDE700BFD02300080010024072
:10107C0000093D0000127A00624B1B6803F0070365
:10108C008B420CD25F4A136823F007030B431360A7
:10109C00136803F007038B4201D00120704770B531
:1010AC00036813F0020F17D013F0040F04D0564A44
:1010BC00536843F4E0635360036813F0080F04D0E3
:1010CC00514A536843F4605353604F4A536823F0BA
:1010DC00F0038468234353600D460446036813F001
:1010EC00010F52D04368012B23D0022B28D0464A43
:1010FC00126812F0020F00F0828043494A6822F015
:10110C00030213434B60FFF75DF806466368012B3F
:10111C001DD0022B2AD03C4B5B6813F00C0F34D043
:10112C00FFF750F8801B41F288339842F3D9032023
:10113C0064E0354A126812F4003FDED101205DE014
:10114C00314A126812F0007FD7D1012056E02E4BA5
:10115C005B6803F00C03042B17D0FFF733F8801BEC
:10116C0041F288339842F2D9032047E0264B5B6862
:10117C0003F00C03082B08D0FFF724F8801B41F276
:10118C0088339842F2D9032038E01E4B1B6803F0D9
:10119C000703AB420CD91B4A136823F007032B43FC
:1011AC001360136803F00703AB4201D0012025E064
:1011BC00236813F0040F06D0134A536823F4E0633A
:1011CC00E1680B435360236813F0080F07D00E4AF5
:1011DC00536823F46053216943EAC1035360FFF75A
:1011EC0013FF094B5B68C3F30313084AD35CD84065
:1011FC00074B18600020FEF7A3FF002070BD0120F4
:10120C00FCE700BF0020024000100240E42300086D
:10121C0008000020014B1868704700BF0800002030
:10122C0008B5FFF7F7FF044B5B68C3F30223034ACF
:10123C00D35CD84008BD00BF00100240F423000866
:10124C0084B00F4B9A6942F020029A619A6902F0BD
:10125C0020020192019A9A6942F004029A619A69F9
:10126C0002F004020292029A9A6942F008029A6110
:10127C009B6903F008030393039B04B0704700BF02
:10128C000010024010B584B0064CA189642302936F
:10129C0001230193044A009202462046FFF730FBDB
:1012AC0004B010BDA0000020F600002008B50020FE
:1012BC00FFF7E8FF08BD000010B5002403E0034869
:1012CC0000F048F90134022CF9DD10BDFC230008B4
:1012DC0008B50B480B4B03600B4B4360002383603A
:1012EC00A622C2604FF48042026143618361C361F4
:1012FC000362FFF751FA00B908BDFFF7DDFFFBE70A
:10130C00A000002000540040801A060000B591B0E7
:10131C000023089309930B930C930193029303936B
:10132C0004930593012206924FF4803307930A929B
:10133C0002220D920E934FF4E0130F9306A8FFF7C1
:10134C0075FC80B90F2301930221029100230393B2
:10135C004FF480620492059301A8FFF78DFE28B923
:10136C0011B05DF804FBFFF7A7FFEBE7FFF7A4FF55
:10137C00F6E708B5FEF708FFFFF7C8FFFFF760FFB9
:10138C00FFF7A6FFFFF792FF0A20FEF721FFFBE70E
:10139C0082B00E4B9A6942F001029A619A6902F08E
:1013AC0001020092009ADA6942F08052DA61DB693C
:1013BC0003F080530193019B054A536823F0E063CB
:1013CC0043F00073536002B0704700BF001002403E
:1013DC000000014010B586B00023029303930493E0
:1013EC0005930268154B9A4201D006B010BD144CFF
:1013FC00A36943F00803A361A36903F008030093F6
:10140C00009B4FF440730293122303930323059321
:10141C0002A90C48FEF74CFF0B4A536843F0E063FB
:10142C0043F002035360E36943F40013E361E3699F
:10143C0003F400130193019BD7E700BF0054004055
:10144C0000100240000C0140000001407047FEE714
:10145C00FEE7FEE7FEE770477047704708B5FEF7FA
:10146C00A5FE08BD0F4B1A6842F001021A605968BC
:10147C000D4A0A405A601A6822F0847222F48032B3
:10148C001A601A6822F480221A605A6822F4FE024A
:10149C005A604FF41F029A60044B4FF000629A603E
:1014AC00704700BF001002400000FFF800ED00E0A4
:1014BC00002103E00B4B5B58435004310A480B4BA3
:1014CC0042189A42F6D30A4A02E0002342F8043B3F
:1014DC00084B9A42F9D3FFF7C5FF00F00FF8FFF75E
:1014EC0048FF7047A4240008000000207000002072
:1014FC007000002008010020FEE7000070B50025F8
:10150C000C4E0D4CA41BA410A54209D100F04EFFAB
:10151C0000250A4E0A4CA41BA410A54205D170BD8F
:10152C0056F8253098470135EEE756F825309847A0
:10153C000135F2E79C2400089C2400089C24000838
:10154C00A024000803460244934200D1704703F8DC
:10155C00011BF9E70FB40A4B13B51C6824B1A3693E
:10156C0013B9204600F04EF805AB049AA16820464A
:10157C00019300F053F902B0BDE8104004B070477D
:10158C000C000020002310B50446C0E90033836032
:10159C0081814366C281C0E9043383611946082204
:1015AC005C30FFF7CFFF054B24626362044BA362F0
:1015BC00044BE362044B236310BD00BF851D000880
:1015CC00A71D0008DF1D0008031E0008014900F0DC
:1015DC0085B800BFDD20000870B568254A1E55434C
:1015EC000E4605F1740100F097F8044640B1002155
:1015FC00C0E900160C30A06005F16802FFF7A2FFED
:10160C00204670BD836910B5044633BBC0E9123364
:10161C000365124B124A1B688262984204BF012375
:10162C00836100F01FF86060204600F01BF8A0609A
:10163C00204600F017F80022E06004216068FFF7F4
:10164C00A1FF01220921A068FFF79CFF02221221B1
:10165C00E068FFF797FF0123A36110BD0424000885
:10166C00D9150008F8B51B4B07461E68B36913B9AA
:10167C003046FFF7C7FF4836D6E90134013B03D5A6
:10168C00336833B13668F7E7B4F90C506DB1683490
:10169C00F4E704213846FFF79FFF30600028F1D1B2
:1016AC000C2304463B602046F8BD0B4B6566C4E931
:1016BC000055A560C4E90335C4E90555082229463F
:1016CC0004F15C00FFF73EFFC4E90D55C4E9125567
:1016DC00E9E700BF042400080100FFFF2DE9F843EF
:1016EC0080468946002600F1480414B93046BDE80E
:1016FC00F883D4E90175013F01D52468F5E7AB897E
:10170C00012B07D9B5F90E30013303D029464046D9
:10171C00C84706436835EEE770B5CD1C25F00305C8
:10172C0008350C2D38BF0C25002D064601DBA942CF
:10173C0003D90C233360002070BD00F077FD214AE3
:10174C001468214691B9204C23681BB9304600F02F
:10175C0003FB20602946304600F0FEFA431C24D1DE
:10176C000C233046336000F062FDE4E70B685B1B32
:10177C0018D40B2B0FD90B60CC18CD50304600F081
:10178C0056FD04F10B00231D20F00700C31AD3D023
:10179C005A42E250D0E74B688C4216BF636013602C
:1017AC000C46EBE70C464968CCE7C41C24F0030458
:1017BC00A04205D0211A304600F0CEFA0130CFD02D
:1017CC002560DBE78C00002090000020936810B4AB
:1017DC00013B002B936007DA9469A34201DB0A29D1
:1017EC0002D110BC00F00CBB1368581C10601970AF
:1017FC00084610BC7047F8B506460F461446D51877
:10180C00AC4201D1002007E03A4614F8011B3046E7
:10181C00FFF7DCFF431CF3D1F8BD00002DE9F04FBE
:10182C000C469DB017461D46064618B183690BB988
:10183C00FFF7E8FE7C4B9C4258D17468A3891807CB
:10184C005ED52369002B5BD00023099320238DF8F0
:10185C00293030234FF0010B8DF82A300395B84610
:10186C00454615F8013B0BB1252B54D1B8EB070AB3
:10187C000BD053463A4621463046FFF7BCFF0130A9
:10188C0000F0C280099B5344099398F80030002B58
:10189C0000F0BA8000234FF0FF32CDE9052304930A
:1018AC0007938DF853301A93A846052218F8011B9C
:1018BC005E4800F0ADFC049B78BBD90644BF2022E7
:1018CC008DF853201A0744BF2B228DF853202A7809
:1018DC002A2A2AD0A84600200A25079A414611F840
:1018EC00013B303B092B69D960B324E0504B9C423F
:1018FC0001D1B468A2E74F4B9C4208BFF4689DE746
:10190C002146304600F0E0FA00289DD04FF0FF3021
:10191C001DB0BDE8F08FA846A2E7444A4546801AA0
:10192C000BFA00F018430490BEE7039A111D1268DD
:10193C000391002A01DB079204E0524243F00203B8
:10194C000792049398F800302E2B0ED198F80130A2
:10195C002A2B38D1039B08F102081A1D1B6803922D
:10196C00002BB8BF4FF0FF330593334D032298F88B
:10197C000010284600F04CFC40B14023401B03FAF9
:10198C0000F0049B08F101080343049398F800103D
:10199C0006222A4808F101078DF8281000F038FCBF
:1019AC00002837D0264B1BBB039B073323F00703C0
:1019BC0008330393099B4B44099350E705FB023210
:1019CC00012088468AE700230A25194608F10108F8
:1019DC000593404610F8012B303A092A03D9002B05
:1019EC00C3D00591C1E705FB012101238046F0E737
:1019FC0003AB00932246134B04A93046AFF300808F
:101A0C00B0F1FF3F8146D5D1A3895B063FF57EAF90
:101A1C0009987DE703AB009322460A4B04A9304694
:101A2C0000F088F8ECE700BF2824000868240008C0
:101A3C0048240008082400086E24000872240008BA
:101A4C0000000000031800082DE9F04791461F46DE
:101A5C008A680B6906469342B8BF1346C9F8003032
:101A6C0091F843200C46DDF8208012B10133C9F8FF
:101A7C0000302368990642BFD9F800300233C9F808
:101A8C000030256815F0060507D104F1190AE36842
:101A9C00D9F800209B1AAB4229DC94F84330226819
:101AAC00003318BF012392062ED404F143023946A9
:101ABC003046C047013021D02368E56803F00603A7
:101ACC00042B18BF0025D9F800204FF0000908BFDF
:101ADC00AD1AA368226908BF25EAE5759342C4BF15
:101AEC009B1AED181A344D451AD1002008E0012339
:101AFC00524639463046C047013003D14FF0FF30D3
:101B0C00BDE8F0870135C2E73020E11881F84300C9
:101B1C005A1C94F845102244023382F84310C4E74F
:101B2C000123224639463046C0470130E6D009F140
:101B3C000109D8E72DE9F04301F1430C0C46097E6D
:101B4C0085B06E291746064698460C9A00F0B3806D
:101B5C0022D8632936D00AD8002900F0B980582938
:101B6C0000F0838004F1420584F8421032E06429CD
:101B7C0001D06929F6D120681368050603F1040128
:101B8C002AD51B681160002B03DA2D225B4284F8E6
:101B9C0043206F480A2239E0732900F09D8008D851
:101BAC006F2920D07029DDD1236843F020032360F6
:101BBC0003E0752917D07829D4D17823654884F8A7
:101BCC00453055E0136804F14205191D1B6811607E
:101BDC0084F8423001238CE01B6810F0400F116038
:101BEC0018BF1BB2CFE713682568181D10602806B4
:101BFC0001D51B6802E06806FBD51B886F2914BF52
:101C0C000A2208225248002184F843106568002DEE
:101C1C00A560C0F29580216821F004012160002BA1
:101C2C003DD1002D40F08E806546082A0BD12368EB
:101C3C00DB0708D5236962689A42DEBF302305F8BA
:101C4C00013C05F1FF35ACEB05032361CDF80080B9
:101C5C003B4603AA21463046FFF7F6FE01304DD134
:101C6C004FF0FF3005B0BDE8F083394884F84510DB
:101C7C00136821681D1D1B6815600A060BD5CA0761
:101C8C0044BF41F0200121601BB9226822F02002E0
:101C9C0022601022B7E74D0648BF9BB2EFE76546BE
:101CAC00B3FBF2F102FB1133C35C05F8013D0B46AB
:101CBC000029F5D1B9E713682568181D6169106012
:101CCC0028061B6801D5196002E06A06FBD519804D
:101CDC00002365462361B9E71368191D11601D685F
:101CEC0062680021284600F093FA08B1401B60603E
:101CFC0063682361002384F84330A7E723692A46ED
:101D0C0039463046C0470130AAD023689B0713D40C
:101D1C00E068039B9842B8BF1846A3E701234A46E4
:101D2C0039463046C04701309AD00135E368039AF2
:101D3C009B1AAB42F2DCEBE7002504F11909F5E73D
:101D4C00002BACD1037804F1420584F842306CE7E7
:101D5C00792400088A24000838B50023054C054670
:101D6C000846236000F00CFB431C02D1236803B12E
:101D7C002B6038BD0401002010B50C46B1F90E10D3
:101D8C0000F0A2FA0028ABBF636DA3891B1823F4E3
:101D9C008053ACBF6365A38110BD2DE9F0411F4694
:101DAC008B890546DB050C46164605D50223002219
:101DBC00B1F90E1000F0B6F9A389324623F4805322
:101DCC00A381B4F90E103B462846BDE8F04100F063
:101DDC0069B810B50C46B1F90E1000F0A3F9431C0C
:101DEC00A38915BF606523F4805343F48053A3810A
:101DFC0018BFA38110BDB1F90E1000F0D3B80000CC
:101E0C00F8B50E461446054618B183690BB9FFF7B1
:101E1C00F9FB214B9C422AD16C68A369A360A3896E
:101E2C001A072ED5236963B323692068F6B2C01A4A
:101E3C0063693746834204DC2146284600F048F9A2
:101E4C0028BBA3680130013BA36023685A1C2260A5
:101E5C001E706369834204D0A389DB0719D50A2E4F
:101E6C0017D12146284600F033F990B10FE00B4B07
:101E7C009C4201D1AC68D0E7094B9C4208BFEC688E
:101E8C00CBE72146284600F01FF80028CCD04FF0B5
:101E9C00FF373846F8BD00BF282400084824000846
:101EAC000824000838B50546084611460022054CA2
:101EBC0022601A4600F072FA431C02D1236803B167
:101ECC002B6038BD04010020324B70B51D680646EE
:101EDC000C4625B1AB6913B92846FFF793FB2E4B83
:101EEC009C420FD16C68B4F90C309AB215072CD403
:101EFC00D00611D40922326043F04003A3814FF085
:101F0C00FF303EE0254B9C4201D1AC68EBE7244B03
:101F1C009C4208BFEC68E6E7510712D5616B41B1F2
:101F2C0004F14403994202D0304600F081F90023B9
:101F3C006363A38923F02403A381002363602369D3
:101F4C002360A38943F00803A38123694BB9A389B8
:101F5C0003F42073B3F5007F03D02146304600F024
:101F6C0017F9A28912F001030CD00023A360636956
:101F7C005B42A361236953B9B4F90C3013F08000B0
:101F8C00BAD170BD920758BF6369A360F2E7002015
:101F9C00F7E700BF0C0000202824000848240008A4
:101FAC000824000838B50023054C05460846236074
:101FBC0000F0BEF9431C02D1236803B12B6038BD7D
:101FCC00040100208A892DE9F041054610070C46D2
:101FDC0058D44B68002B05DC0B6C002B02DC00206A
:101FEC00BDE8F081E66A002EF9D0002312F480528D
:101FFC002F68216A2B6032D0606DA3895A0705D5F2
:10200C006368C01A636B0BB1236CC01A00230246C1
:10201C00E66A216A2846B047431CA38906D1296881
:10202C001D2948D8294ACA40D60744D500226260E7
:10203C002269D904226004D5421C01D12B6803B952
:10204C006065616B2F600029C9D004F1440399428B
:10205C0002D0284600F0ECF800206063C0E70123B2
:10206C002846B047411CC8D12B68002BC5D01D2B6E
:10207C0001D0162B01D12F60B1E7A38943F04003A7
:10208C00A381ADE70F69002FA9D0930718BF0023D8
:10209C000E6808BF4B69A6EB07080F608B60B8F1A0
:1020AC00000F9CDD43463A46216A2846A66AB04793
:1020BC00002806DCA38943F04003A3814FF0FF30D6
:1020CC008EE70744A8EB0008E9E700BF01004020B9
:1020DC0038B50B6905460C46DBB118B183690BB9F1
:1020EC00FFF790FA0C4B9C4209D16C68B4F90C3098
:1020FC007BB121462846BDE83840FFF763BF074B4C
:10210C009C4201D1AC68F1E7054B9C4208BFEC68DE
:10211C00ECE7002038BD00BF282400084824000844
:10212C000824000838B50546084611460022054C1F
:10213C0022601A4600F014F9431C02D1236803B143
:10214C002B6038BD0401002070B50E46B1F90E109D
:10215C0096B0002914461D4607DA00232B60B3897C
:10216C001A0610D44FF480630EE06A4600F0BEF8F5
:10217C000028F2DB019A02F47042A2F500535A4295
:10218C005A412A60EEE740230020236016B070BD50
:10219C008B8973B59D0706460C4607D504F147039A
:1021AC00236023610123636102B070BD01AB6A46F9
:1021BC00FFF7CAFF009905463046FFF7ADFA48B95C
:1021CC00B4F90C309A05EFD423F0030343F0020367
:1021DC00A381E3E70D4BB362A389206043F0800336
:1021EC00A381009B20616361019B5BB1B4F90E106C
:1021FC00304600F08DF828B1A38923F0030343F097
:10220C000103A381A3891D43A581CDE7D91500083E
:10221C0010B5C9B202449042034601D1002303E039
:10222C001C7801308C42F6D1184610BD70477047AF
:10223C0038B50546002943D051F8043C0C1F002B3F
:10224C00B8BFE418FFF7F2FF1E4A1368104633B903
:10225C00636014602846BDE83840FFF7E8BFA3422E
:10226C000BD921686218934201BF1A685B68521837
:10227C00226063600460EDE713465A680AB1A2421B
:10228C00FAD919685818A0420BD120680144581883
:10229C0082421960DED110685268014419605A609C
:1022AC00D8E702D90C232B60D4E7206821188A4286
:1022BC0001BF116852680918216062605C60C9E74F
:1022CC0038BD00BF8C00002038B5054608461146C5
:1022DC000022054C22601A4600F04AF8431C02D139
:1022EC00236803B12B6038BD0401002038B50023EE
:1022FC00064C054608461146236000F021F8431CA5
:10230C0002D1236803B12B6038BD00BF040100204B
:10231C0038B50023054C05460846236000F018F834
:10232C00431C02D1236803B12B6038BD040100208B
:10233C005822024B4FF0FF301A6070470401002006
:10234C005822024B4FF0FF301A60704704010020F6
:10235C005822024B00201A60704700BF0401002075
:10236C005822024B4FF0FF301A60704704010020D6
:10237C005822024B4FF0FF301A60704704010020C6
:10238C00044A05491368002B08BF0B46184410601B
:10239C001846704794000020080100205822024B78
:1023AC004FF0FF301A60704704010020F8B500BFF1
:1023BC00F8BC08BC9E467047F8B500BFF8BC08BC1A
:0423CC009E46704772
:1023D00002030405060708090A0B0C0D0E0F101066
:1023E00001020000000000000000000001020304E0
:1023F0000607080900000000010203046465627515
:102400006700000010000020000000000000000035
:1024100000000000000000000000000000000000BC
:1024200000000000000000000000000000000000AC
:10243000000000000000000000000000000000009C
:10244000000000000000000000000000000000008C
:10245000000000000000000000000000000000007C
:102460000000000000000000232D302B2000686CCD
:102470004C006566674546470030313233343536A7
:1024800037383941424344454600303132333435E0
:0C2490003637383961626364656600000D
:04249C003101000802
:0424A0000D01000822
:1024A400010000001000000000A24A0410000020F7
:1024B400000000002824000848240008082400081C
:1024C4000000000000000000000000000000000008
:1024D40000000000000000000000000000000000F8
:1024E40000000000000000000000000000000000E8
:1024F40000000000000000000000000000000000D8
:1025040000000000000000000000000000000000C7
:04000005080014BD1E
:00000001FF
