:020000040800F2
:1000000000500020912100082D2100082F21000818
:1000100031210008332100083521000800000000CC
:100020000000000000000000000000003721000870
:1000300039210008000000003B2100083D21000894
:10004000D9210008D9210008D9210008D9210008A8
:10005000D9210008D9210008D9210008D921000898
:10006000D9210008D9210008D9210008D921000888
:10007000D9210008D9210008D9210008D921000878
:10008000D9210008D9210008D9210008D921000868
:10009000D9210008D9210008D9210008D921000858
:1000A000D9210008D9210008D9210008D921000848
:1000B000D9210008D9210008D9210008D921000838
:1000C000D9210008D9210008D9210008D921000828
:1000D000D9210008D9210008D9210008D921000818
:1000E000D9210008D9210008D9210008000000000A
:1000F0000000000000000000000000000000000000
:0C01000000000000000000005FF808F1A3
:1001100010B5054C237833B9044B13B10448AFF341
:1001200000800123237010BDDC01002000000000CE
:10013000C842000808B5034B1BB103490348AFF39D
:10014000008008BD00000000E0010020C842000857
:1001500081F0004102E000BF83F0004330B54FEA78
:1001600041044FEA430594EA050F08BF90EA020FE5
:100170001FBF54EA000C55EA020C7FEA645C7FEA78
:10018000655C00F0E2804FEA5454D4EB5555B8BF9B
:100190006D420CDD2C4480EA020281EA030382EA0C
:1001A000000083EA010180EA020281EA0303362D9E
:1001B00088BF30BD11F0004F4FEA01314FF4801C71
:1001C0004CEA113102D0404261EB410113F0004F83
:1001D0004FEA03334CEA133302D0524263EB43033A
:1001E00094EA050F00F0A780A4F10104D5F1200ED8
:1001F0000DDB02FA0EFC22FA05F2801841F1000133
:1002000003FA0EF2801843FA05F359410EE0A5F106
:1002100020050EF1200E012A03FA0EFC28BF4CF037
:10022000020C43FA05F3C01851EBE37101F00045ED
:1002300007D54FF0000EDCF1000C7EEB00006EEBFA
:100240000101B1F5801F1BD3B1F5001F0CD3490884
:100250005FEA30004FEA3C0C04F101044FEA4452DB
:1002600012F5800F80F09A80BCF1004F08BF5FEA62
:10027000500C50F1000041EB045141EA050130BD42
:100280005FEA4C0C404141EB010111F4801FA4F1E5
:100290000104E9D191F0000F04BF01460020B1FA3A
:1002A00081F308BF2033A3F10B03B3F120020CDA72
:1002B0000C3208DD02F1140CC2F10C0201FA0CF050
:1002C00021FA02F10CE002F11402D8BFC2F1200CB5
:1002D00001FA02F120FA0CFCDCBF41EA0C0190406B
:1002E000E41AA2BF01EB0451294330BD6FEA0404B4
:1002F0001F3C1CDA0C340EDC04F11404C4F120029F
:1003000020FA04F001FA02F340EA030021FA04F3B0
:1003100045EA030130BDC4F10C04C4F1200220FA07
:1003200002F001FA04F340EA0300294630BD21FA45
:1003300004F0294630BD94F0000F83F4801306BF0B
:1003400081F480110134013D4EE77FEA645C18BFFF
:100350007FEA655C29D094EA050F08BF90EA020F96
:1003600005D054EA000C04BF1946104630BD91EA8E
:10037000030F1EBF0021002030BD5FEA545C05D191
:100380004000494128BF41F0004130BD14F58004D0
:100390003CBF01F5801130BD01F0004545F0FE4144
:1003A00041F470014FF0000030BD7FEA645C1ABF79
:1003B000194610467FEA655C1CBF0B46024650EAB0
:1003C000013406BF52EA033591EA030F41F40021DC
:1003D00030BD00BF90F0000F04BF0021704730B562
:1003E0004FF4806404F132044FF000054FF0000137
:1003F00050E700BF90F0000F04BF0021704730B5F8
:100400004FF4806404F1320410F0004548BF4042CC
:100410004FF000013EE700BF42004FEAE2014FEA21
:1004200031014FEA02701FBF12F07F4393F07F4FFC
:1004300081F06051704732F07F4208BF704793F0FF
:100440007F4F04BF41F40021704730B54FF4607412
:1004500001F0004521F000411CE700BF50EA010215
:1004600008BF704730B54FF000050AE050EA0102BE
:1004700008BF704730B511F0004502D5404261EB2E
:1004800041014FF4806404F132045FEA915C3FF46F
:10049000D8AE4FF003025FEADC0C18BF03325FEA0C
:1004A000DC0C18BF033202EBDC02C2F1200300FABD
:1004B00003FC20FA02F001FA03FE40EA0E0021FAE2
:1004C00002F11444BDE600BF70B54FF0FF0C4CF4D0
:1004D000E06C1CEA11541DBF1CEA135594EA0C0F82
:1004E00095EA0C0F00F0DEF82C4481EA030621EABD
:1004F0004C5123EA4C5350EA013518BF52EA0335F8
:1005000041F4801143F4801338D0A0FB02CE4FF0A9
:100510000005E1FB02E506F00042E0FB03E54FF0D9
:100520000006E1FB03569CF0000F18BF4EF0010ED1
:10053000A4F1FF04B6F5007F64F5407404D25FEACD
:100540004E0E6D4146EB060642EAC62141EA555180
:100550004FEAC52040EA5E504FEACE2EB4F1FD0CC2
:1005600088BFBCF5E06F1ED8BEF1004F08BF5FEA40
:10057000500E50F1000041EB045170BD06F00046F2
:1005800046EA010140EA020081EA0301B4EB5C049F
:10059000C2BFD4EB0C0541EA045170BD41F4801197
:1005A0004FF0000E013C00F3AB8014F1360FDEBFBC
:1005B000002001F0004170BDC4F10004203C35DA98
:1005C0000C341BDC04F11404C4F1200500FA05F31B
:1005D00020FA04F001FA05F240EA020001F00042BC
:1005E00021F0004110EBD37021FA04F642EB060132
:1005F0005EEA430E08BF20EAD37070BDC4F10C045C
:10060000C4F1200500FA04F320FA05F001FA04F21F
:1006100040EA020001F0004110EBD37041F100010B
:100620005EEA430E08BF20EAD37070BDC4F1200516
:1006300000FA05F24EEA020E20FA04F301FA05F27E
:1006400043EA020321FA04F001F0004121FA04F226
:1006500020EA020000EBD3705EEA430E08BF20EAF6
:10066000D37070BD94F0000F0FD101F00046400030
:1006700041EB010111F4801F08BF013CF7D041EAB2
:10068000060195F0000F18BF704703F000465200B6
:1006900043EB030313F4801F08BF013DF7D043EA87
:1006A0000603704794EA0C0F0CEA135518BF95EA3D
:1006B0000C0F0CD050EA410618BF52EA4306D1D1C4
:1006C00081EA030101F000414FF0000070BD50EAE3
:1006D000410606BF1046194652EA430619D094EA6D
:1006E0000C0F02D150EA013613D195EA0C0F05D157
:1006F00052EA03361CBF104619460AD181EA0301AB
:1007000001F0004141F0FE4141F470014FF0000062
:1007100070BD41F0FE4141F4780170BD70B54FF0FD
:10072000FF0C4CF4E06C1CEA11541DBF1CEA13557D
:1007300094EA0C0F95EA0C0F00F0A7F8A4EB05045F
:1007400081EA030E52EA03354FEA013100F0888056
:100750004FEA03334FF0805545EA131343EA12631F
:100760004FEA022245EA111545EA10654FEA0026D4
:100770000EF000419D4208BF964244F1FD0404F58D
:10078000407402D25B084FEA3202B61A65EB0305E9
:100790005B084FEA32024FF480104FF4002CB6EBA6
:1007A000020E75EB030E22BFB61A754640EA0C0026
:1007B0005B084FEA3202B6EB020E75EB030E22BF66
:1007C000B61A754640EA5C005B084FEA3202B6EBA7
:1007D000020E75EB030E22BFB61A754640EA9C0066
:1007E0005B084FEA3202B6EB020E75EB030E22BF36
:1007F000B61A754640EADC0055EA060E18D04FEAF4
:10080000051545EA16754FEA06164FEAC30343EA93
:1008100052734FEAC2025FEA1C1CC0D111F4801F60
:100820000BD141EA00014FF000004FF0004CB6E759
:1008300011F4801F04BF01430020B4F1FD0C88BFF8
:10084000BCF5E06F3FF6AFAEB5EB030C04BFB6EB03
:10085000020C5FEA500C50F1000041EB045170BDF6
:100860000EF0004E4EEA113114EB5C04C2BFD4EB23
:100870000C0541EA045170BD41F480114FF0000EA7
:10088000013C90E645EA060E8DE60CEA135594EA23
:100890000C0F08BF95EA0C0F3FF43BAF94EA0C0F26
:1008A0000AD150EA01347FF434AF95EA0C0F7FF49B
:1008B00025AF104619462CE795EA0C0F06D152EAEF
:1008C00003353FF4FDAE1046194622E750EA4106D3
:1008D00018BF52EA43067FF4C5AE50EA41047FF4E4
:1008E0000DAF52EA43057FF4EBAE12E74FEA410247
:1008F000B2F1E04324BFB3F5001CDCF1FE5C0DD97E
:1009000001F0004C4FEAC0024CEA5070B2F1004FC7
:1009100040EB830008BF20F00100704711F0804FCA
:1009200021D113F13872BCBF01F00040704741F48F
:1009300080114FEA5252C2F11802C2F1200C10FA93
:100940000CF320FA02F018BF40F001004FEAC12377
:100950004FEAD32303FA0CFC40EA0C0023FA02F31B
:100960004FEA4303CCE77FEA625307D150EA0133F1
:100970001EBF4FF0FE4040F44000704701F00040C1
:1009800040F0FE4040F40000704700BF4FF0FF3CD5
:1009900006E000BF4FF0010C02E000BF4FF0010C79
:1009A0004DF804CD4FEA40024FEA41037FEA226C42
:1009B00018BF7FEA236C11D001B052EA530C18BF64
:1009C00090EA010F58BFB2EB030088BFC81738BFC9
:1009D0006FEAE17018BF40F0010070477FEA226CB7
:1009E00002D15FEA402C05D17FEA236CE4D15FEAB3
:1009F000412CE1D05DF8040B704700BF84460846E7
:100A00006146FFE70FB5FFF7C9FF002848BF10F1A7
:100A1000000F0FBD4DF808EDFFF7F4FF0CBF0120EC
:100A200000205DF808FB00BF4DF808EDFFF7EAFF76
:100A300034BF012000205DF808FB00BF4DF808ED31
:100A4000FFF7E0FF94BF012000205DF808FB00BF26
:100A50004DF808EDFFF7D2FF94BF012000205DF8AC
:100A600008FB00BF4DF808EDFFF7C8FF34BF0120B9
:100A700000205DF808FB00BF034613F8012B002A95
:100A8000FBD1181A013870474FF0FF3C06E000BF59
:100A90004FF0010C02E000BF4FF0010C4DF804CD07
:100AA0004FEA410C7FEA6C5C4FEA430C18BF7FEAC7
:100AB0006C5C1BD001B050EA410C0CBF52EA430CF5
:100AC00091EA030F02BF90EA020F0020704710F175
:100AD000000F91EA030F58BF994208BF90422CBF04
:100AE000D8176FEAE37040F0010070474FEA410CFD
:100AF0007FEA6C5C02D150EA013C07D14FEA430C1B
:100B00007FEA6C5CD6D152EA033CD3D05DF8040B8B
:100B1000704700BF8446104662468C4619466346BD
:100B200000E000BF01B5FFF7B7FF002848BF10F194
:100B3000000F01BD4DF808EDFFF7F4FF0CBF0120D9
:100B400000205DF808FB00BF4DF808EDFFF7EAFF55
:100B500034BF012000205DF808FB00BF4DF808ED10
:100B6000FFF7E0FF94BF012000205DF808FB00BF05
:100B70004DF808EDFFF7CEFF94BF012000205DF88F
:100B800008FB00BF4DF808EDFFF7C4FF34BF01209C
:100B900000205DF808FB00BF4FEA410C7FEA6C5C67
:100BA00002D150EA013C0AD14FEA430C7FEA6C5C67
:100BB00002D152EA033C02D14FF0000070474FF0DF
:100BC000010070474FEA410212F5001215D211D50B
:100BD0006FF47873B3EB625212D94FEAC12343F03A
:100BE000004343EA505311F0004F23FA02F018BFBC
:100BF000404270474FF00000704750EA013005D185
:100C000011F0004008BF6FF0004070474FF0000047
:100C1000704700BF10B504460E4B18784FF47A7336
:100C2000B3FBF0F30C4A1068B0FBF3F000F094F85B
:100C300068B90F2C01D901200AE0002221464FF0AB
:100C4000FF3000F055F8034B5C60002000E001200D
:100C500010BD00BF000000200800002008B5074AB2
:100C6000136843F010031360032000F02FF80020F6
:100C7000FFF7D0FF01F0C0F9002008BD00200240BE
:100C8000034A1168034B1B780B441360704700BF85
:100C90000402002000000020014B1868704700BFCC
:100CA0000402002038B50446FFF7F6FF0546B4F10C
:100CB000FF3F02D0044B1B781C44FFF7EDFF401BA5
:100CC000A042FAD338BD00BF00000020074AD36815
:100CD00023F4E0631B041B0C000200F4E0601843E3
:100CE00040F0BF6040F40030D060704700ED00E09D
:100CF00030B4174BDB68C3F30223C3F10704042CA1
:100D000028BF04241D1D062D18D9033B4FF0FF35C5
:100D100005FA04F421EA0401994005FA03F322EAF2
:100D20000303194300280BDB0901C9B200F160403D
:100D300000F5614080F8001330BC70470023E5E700
:100D400000F00F000901C9B2024B1954F4E700BFCB
:100D500000ED00E014ED00E00138B0F1807F0AD230
:100D6000064B5860064AF02182F823100020986054
:100D700007221A6070470120704700BF10E000E0B2
:100D800000ED00E0F0B482B000263546A1E0002C72
:100D900059D0012C00D1CE68FF2B68D88446FF2B98
:100DA00068D8AC00DCF800200F27A74022EA070231
:100DB00006FA04F42243CCF800204A6812F0805F5F
:100DC00000F086805E4A946944F00104946192695F
:100DD00002F001020192019AAC08A71C594A52F88C
:100DE000272005F00307BF004FF00F0C0CFA07FC9B
:100DF00022EA0C0C544A904242D002F580629042A2
:100E00007FD002F5806290427DD002F580629042F0
:100E100034D0042235E04D4FBC4214D00BD94C4F96
:100E2000BC4210D007F58037BC420CD0A7F5801724
:100E3000BC42B1D107E0A7F58017BC4203D007F54B
:100E40008037BC42A8D18C687CB1012C08D04261AB
:100E50000826A1E7CE6808369EE7CE680C369BE7E9
:100E60000261082698E7002696E7042694E700F139
:100E7000040C94E7A5F10804A40093E7032200E022
:100E80000022BA4042EA0C0202342E4F47F82420D6
:100E90004A6812F4803F38D02E4C22681A432260F0
:100EA0004A6812F4003F36D02A4C62681A436260E6
:100EB0004A6812F4801F34D0264CA2681A43A260FC
:100EC0004A6812F4001F32D0224CE2681343E360F8
:100ED00001350F2D31D80122AA400B6813409A42E8
:100EE000F6D14C68122CB8D095D8022CB2D07FF62F
:100EF0004EAF032CB7D0112C7FF44EAFCE68043622
:100F00004AE70122BDE70222BBE7124C226822EA2F
:100F100003022260C4E70F4C626822EA03026260A7
:100F2000C6E70C4CA26822EA0302A260C8E7094C9B
:100F3000E26822EA0303E360CAE702B0F0BC70474C
:100F40000010024000000140000801400000211094
:100F5000000031100004014012B90904016170471A
:100F60000161704782B0084B1B68084AA2FB03234B
:100F70005B0A00FB03F0019000BF019B5A1E019227
:100F8000002BF9D102B0704708000020D34D621049
:100F900070B582B00446036813F0010F2CD0AB4B40
:100FA0005B6803F00C03042B1DD0A84B5B6803F0B7
:100FB0000C03082B12D06368B3F5803F41D0002B9F
:100FC00055D103F1804303F504331A6822F48032CB
:100FD0001A601A6822F480221A6037E09B4B5B6823
:100FE00013F4803FE7D0994B1B6813F4003F03D004
:100FF0006368002B00F0AE81236813F0020F76D0F7
:10100000924B5B6813F00C0F5FD0904B5B6803F062
:101010000C03082B54D02369002B00F08A808C4BE2
:1010200001221A60FFF738FE0546884B1B6813F053
:10103000020F75D1FFF730FE401B0228F5D90320BF
:101040008BE1824A136843F480331360636843B3CF
:10105000FFF722FE05467D4B1B6813F4003FCBD102
:10106000FFF71AFE401B6428F5D9032075E1B3F59C
:10107000A02F09D0754B1A6822F480321A601A68C2
:1010800022F480221A60E1E703F18043A3F53C33A8
:101090001A6842F480221A601A6842F480321A6098
:1010A000D4E7FFF7F9FD0546684B1B6813F4003FD2
:1010B000A2D0FFF7F1FD401B6428F5D903204CE1D5
:1010C000624B5B6813F4803FA5D1604B1B6813F043
:1010D000020F04D02369012B01D001203DE15B4ABE
:1010E000136823F0F803616943EAC10313602368BE
:1010F00013F0080F32D0A369002B5BD0554B0122AF
:101100001A60FFF7C9FD0546504B5B6A13F0020FEA
:1011100021D1FFF7C1FD401B0228F5D903201CE1B6
:101120004A4A136823F0F803616943EAC103136074
:10113000DDE7474B00221A60FFF7AEFD0546434B43
:101140001B6813F0020FD2D0FFF7A6FD401B022848
:10115000F5D9032001E10120FFF704FF236813F014
:10116000040F00F09780394BDB6913F0805F33D1B7
:10117000364BDA6942F08052DA61DB6903F0805362
:101180000193019B0125344B1B6813F4807F25D00C
:10119000E368012B36D0002B4CD103F1804303F5DB
:1011A00004331A6A22F001021A621A6A22F0040257
:1011B0001A622CE0274B00221A60FFF76DFD0546EE
:1011C000224B5B6A13F0020FC8D0FFF765FD401B8E
:1011D0000228F5D90320C0E00025D4E71E4A136891
:1011E00043F480731360FFF757FD06461A4B1B68E4
:1011F00013F4807FCCD1FFF74FFD801B6428F5D915
:101200000320AAE0114A136A43F001031362E36862
:1012100073B3FFF741FD06460C4B1B6A13F0020F38
:1012200037D1FFF739FD801B41F288339842F3D95B
:10123000032092E0052B11D0044B1A6A22F0010220
:101240001A621A6A22F004021A62E0E700100240F1
:10125000000042428004424200700040414B1A6A42
:1012600042F004021A621A6A42F001021A62CEE7E0
:10127000FFF712FD06463B4B1B6A13F0020F08D026
:10128000FFF70AFD801B41F288339842F3D903200F
:1012900063E0E5B9E369002B5ED0324A526802F0A0
:1012A0000C02082A5BD0022B17D02F4B00221A60A9
:1012B000FFF7F2FC04462B4B1B6813F0007F47D06E
:1012C000FFF7EAFC001B0228F5D9032045E0254A78
:1012D000D36923F08053D361DCE7234B00221A60EB
:1012E000FFF7DAFC05461F4B1B6813F0007F06D0A2
:1012F000FFF7D2FC401B0228F5D903202DE0236A1A
:10130000B3F5803F1AD017494B6823F47413226A4F
:10131000606A024313434B60134B01221A60FFF7CC
:10132000BBFC04460F4B1B6813F0007F0ED1FFF788
:10133000B3FC001B0228F5D903200EE0094A5368CC
:1013400023F40033A1680B435360DCE7002004E082
:10135000002002E0012000E0002002B070BD01206A
:10136000FBE700BF001002406000424210B487B0AB
:10137000164C94E80F000DF1180C0CE90F00238AAD
:10138000ADF80430124B5B6803F00C02082A1AD146
:10139000C3F38342624412F8102C13F4803F05D14A
:1013A0000C4800FB02F007B010BC7047084B5B68AC
:1013B000C3F34043634413F8143C074800FB02F0B6
:1013C000B0FBF3F0EFE70448EDE700BFE0420008B0
:1013D0000010024000093D0000127A00624B1B68B9
:1013E00003F007038B420CD25F4A136823F0070314
:1013F0000B431360136803F007038B4201D00120F5
:10140000704770B5036813F0020F17D013F0040F84
:1014100004D0564A536843F4E0635360036813F002
:10142000080F04D0514A536843F4605353604F4A45
:10143000536823F0F0038468234353600D46044649
:10144000036813F0010F52D04368012B23D0022B05
:1014500028D0464A126812F0020F00F082804349F9
:101460004A6822F0030213434B60FFF715FC06465F
:101470006368012B1DD0022B2AD03C4B5B6813F014
:101480000C0F34D0FFF708FC801B41F288339842E0
:10149000F3D9032064E0354A126812F4003FDED12C
:1014A00001205DE0314A126812F0007FD7D101209F
:1014B00056E02E4B5B6803F00C03042B17D0FFF7AC
:1014C000EBFB801B41F288339842F2D9032047E0BE
:1014D000264B5B6803F00C03082B08D0FFF7DCFBFE
:1014E000801B41F288339842F2D9032038E01E4B2A
:1014F0001B6803F00703AB420CD91B4A136823F0A7
:1015000007032B431360136803F00703AB4201D0BA
:10151000012025E0236813F0040F06D0134A536816
:1015200023F4E063E1680B435360236813F0080F72
:1015300007D00E4A536823F46053216943EAC1037C
:101540005360FFF713FF094B5B68C3F30313084AAB
:10155000D35CD840074B18600020FFF75BFB0020EE
:1015600070BD0120FCE700BF0020024000100240D7
:10157000F442000808000020014B1868704700BFC3
:101580000800002008B5FFF7F7FF044B5B68C3F3C2
:101590000223034AD35CD84008BD00BF00100240BC
:1015A0000443000808B5FFF7E7FF044B5B68C3F38B
:1015B000C223034AD35CD84008BD00BF00100240DC
:1015C00004430008F8B505460F4616461C463BE0A6
:1015D0002CB1FFF761FB069BC01AA04234D32A68E6
:1015E000536823F0E00353606B68B3F5827F0BD040
:1015F000AB6AB3F5005F14D0012385F851300023A6
:1016000085F85030032027E0AB68B3F5004F02D0D7
:10161000B3F5806FECD12A68136823F040031360A0
:10162000E6E72A68136823F400531B041B0C1360BD
:101630002A68136843F400531360DDE70123B342C3
:1016400009D0B4F1FF3FC3D12B689B6837EA03038D
:10165000F4D00023F3E70020F8BD10B582B00446B3
:1016600000920B4600228021FFF7ACFF034610B921
:10167000184602B010BD636D43F020036365032379
:10168000F6E72DE9F04385B099460C9D90F850306F
:10169000012B00F0108104460F461646012380F806
:1016A0005030FFF7F9FA804694F85130DBB26268A7
:1016B000012B15D0B2F5827F0AD00223012284F8D3
:1016C0005120002284F85020184605B0BDE8F08370
:1016D000A268002A40F0E780042B01D00223EDE746
:1016E000002F00F0E280002E00F0E180B9F1000F41
:1016F00000F0DF8094F85130DBB2012B2BD00023B7
:101700006365A663A4F83E90A4F83C902763A4F810
:101710003690A4F834902364636423681A6812F046
:10172000400F03D11A6842F040021A60E368B3F533
:10173000006F14D063681BB1E38E9BB2012B07D1FD
:10174000236817F8012B1A73E38E013B9BB2E386E3
:101750004FF0010961E0052384F85130CFE7636859
:101760001BB1E38E9BB2012B07D1236837F8022B04
:10177000DA60E38E013B9BB2E3864FF0010913E090
:10178000E38F9BB26BB123689A6812F0010F08D007
:10179000DB6826F8023BE38F013B9BB2E3874FF007
:1017A0000109B5F1FF3F1CD1E38E9BB21BB9E38F5A
:1017B0009BB2002B55D0B9F1000FE1D0E38E9BB264
:1017C000002BDDD023689A6812F0020FD8D037F8CA
:1017D000022BDA60E38E013B9BB2E3864FF00009F7
:1017E000CEE7FFF759FAA0EB0800A842DCD30323A9
:1017F00064E7E38F9BB26BB123689A6812F0010F24
:1018000008D0DB683370E38F013B9BB2E38701367E
:101810004FF00109B5F1FF3F1BD1E38E9BB213B925
:10182000E38F9BB2EBB1B9F1000FE2D0E38E9BB234
:10183000002BDED023689A6812F0020FD9D03A78D4
:101840001A73E38E013B9BB2E38601374FF0000928
:10185000CFE7FFF721FAA0EB0800A842DDD303236E
:101860002CE7CDF800802B46012202212046FFF70D
:10187000A9FE08B1032321E7424629462046FFF787
:10188000ECFE034618B120236365012316E7A26826
:10189000002A7FF413AF03922268D1680391926803
:1018A0000392039A0AE7022308E7012306E70123CC
:1018B00004E7012302E7022306E700283CD010B525
:1018C00004460023836290F85130002B31D002236C
:1018D00084F851302268136823F040031360636872
:1018E000A2681343E26813432269134362691343F6
:1018F000A26902F400721343E2691343226A13439C
:10190000A16A22680B431360638B03F00403616ACE
:1019100022680B4353602368E26A1A612268D36924
:1019200023F40063D36100206065012384F8513003
:1019300010BD00F083FBCAE7012070472DE9F84392
:1019400005460268136923F44053C1680B431361D1
:10195000836802691343426913430168CA6822F429
:10196000B05222F00C021343CB600268536923F497
:10197000407381690B4353610268594B9A4257D0B7
:10198000FFF700FE00EB800000EB80006C68A40015
:10199000B0FBF4F4534FA7FB043464092601FFF7AE
:1019A000F1FD00EB800000EB80006C68A400B0FB50
:1019B000F4F9FFF7E7FD00EB800000EB80006C68B6
:1019C000A400B0FBF4F4A7FB043464094FF06408EE
:1019D00008FB149424013234A7FB0434640904F096
:1019E000F0043444FFF7CEFD00EB800000EB8000F4
:1019F0006E68B600B0FBF6F6FFF7C4FD00EB8000A2
:101A000000EB80006B689B00B0FBF3F0A7FB00309D
:101A1000400908FB10684FEA081808F13208A7FBD4
:101A20000837C7F343172B6827449F60BDE8F88346
:101A3000FFF7B8FD00EB800000EB80006C68A400AD
:101A4000B0FBF4F4274FA7FB043464092601FFF729
:101A5000A9FD00EB800000EB80006C68A400B0FBE7
:101A6000F4F9FFF79FFD00EB800000EB80006C684D
:101A7000A400B0FBF4F4A7FB043464094FF064083D
:101A800008FB149424013234A7FB0434640904F0E5
:101A9000F0043444FFF786FD00EB800000EB80008B
:101AA0006E68B600B0FBF6F6FFF77CFD00EB800039
:101AB00000EB80006B689B00B0FBF3F0A7FB0030ED
:101AC000400908FB10684FEA081808F13208A7FB24
:101AD0000837C7F343172B6827449F60A6E700BF6A
:101AE000003801401F85EB512DE9F04105460F46B6
:101AF00016469846069C2B681B6837EA03030CBF02
:101B000001230023B3421DD1B4F1FF3FF3D02CB128
:101B1000FFF7C2F8A0EB0800A042ECD92A68D3680E
:101B200023F4D073D3602A68536923F0010353610F
:101B3000202385F8393085F83A30002385F838308D
:101B4000032000E00020BDE8F08158B310B5044642
:101B500090F839300BB3242384F839302268D368E5
:101B600023F40053D3602046FFF7E8FE2268136990
:101B700023F4904313612268536923F02A035361CD
:101B80002268D36843F40053D3600020E06320232D
:101B900084F8393084F83A3010BD80F8383000F0DD
:101BA00089FAD8E7012070472DE9F04182B01E463E
:101BB00090F83930DBB2202B55D104460D469046C3
:101BC000002955D0002A55D090F83830012B53D039
:101BD000012380F838300023C363212380F8393093
:101BE000FFF75AF80746A4F82480A4F8268010E0EE
:101BF00000963B46002280212046FFF775FF002813
:101C00003CD12B882268C3F3080353602369C3B90E
:101C10000235E38C9BB2B3B1E38C013B9BB2E3840E
:101C2000A368B3F5805FE3D000963B460022802195
:101C30002046FFF759FF18BB2A7823685A60013500
:101C4000E7E70135E5E700963B46002240212046C4
:101C5000FFF74AFF0346A8B9202284F83920002262
:101C600084F8382000E00223184602B0BDE8F08175
:101C70000123F9E70123F7E70223F5E70323F3E75D
:101C80000323F1E70323EFE730B587B08DF80F00AA
:101C90000D4C00224FF480512046FFF75DF90125DD
:101CA000009502230DF117020DF10F010748FFF710
:101CB000E8FC2A464FF480512046FFF74DF99DF885
:101CC000170007B030BD00BF000C01400802002023
:101CD00030B587B08DF80F000D4C00224FF48051C5
:101CE0002046FFF739F90125009502230DF117026F
:101CF0000DF10F010748FFF7C4FC2A464FF480514D
:101D00002046FFF729F99DF8170007B030BD00BF46
:101D1000000C01400802002010B501224FF4805150
:101D20000848FFF719F96420FEF7BCFF002406E01D
:101D30000020FFF7A9FFFA20FEF7B4FF0134022CC0
:101D4000F6DD10BD000C014038B57020FFF79CFF98
:101D500005461420FEF7A6FF002407E00020FFF749
:101D600093FF05461420FEF79DFF0134802D01D01E
:101D7000092CF3DD802D04D0044800F055F8002034
:101D800038BD034800F050F80120F9E7204300086F
:101D90000C43000838B505461020FFF775FF0520F5
:101DA000FEF780FF0020FFF76FFF04460520FEF7D7
:101DB00079FF06E00020FFF767FF04460520FEF7E5
:101DC00071FF102CF6D10020FFF782FF84B22402AD
:101DD000A4B20520FEF766FF0020FFF779FF80B26E
:101DE00004430520FEF75EFF4FF4B47000FB04F0DF
:101DF000FEF700FB0022094BFEF766FB02460B468E
:101E000000200749FEF7A8F9FEF770FD2860054994
:101E1000FEF700FE08B100232B6038BD0000303F04
:101E2000008076400000B44300B58FB002460849F8
:101E300001A800F04FFE01A8FEF71EFE642382B247
:101E400001A90448FFF7B0FE0FB05DF804FB00BF26
:101E5000404300086002002000B58FB0FEF7DCFAB6
:101E600002460B46074901A800F034FE01A8FEF720
:101E700003FE1E2382B201A90348FFF795FE0FB0AF
:101E80005DF804FB484300086002002010B588B0EC
:101E900000220492059206920792184B996941F02C
:101EA00020019961996901F02001019101999969D5
:101EB00041F008019961996901F0080102910299C4
:101EC000996941F0040199619B6903F0040303934C
:101ED000039B0B4C4FF480512046FFF73DF84FF425
:101EE000805304930123059306930323079304A9C6
:101EF0002046FEF747FF08B010BD00BF00100240AB
:101F0000000C014008B50848084B03604FF4165315
:101F1000436000238360C36003610C2242618361DC
:101F2000C361FFF712FE08BD6002002000380140C7
:101F300008B50C480C4B03604FF4827343600023D8
:101F40008360C360036143614FF4007282612822A1
:101F5000C2610362436283620A23C362FFF7ADFC7E
:101F600008BD00BF080200200038004030B591B025
:101F70000024089409940B940C9401940294039403
:101F800004940594012206924FF4803307930A9239
:101F900002250D950E934FF4E0130F9306A8FEF75C
:101FA000F7FF0F230193029503944FF4806304938A
:101FB0000594294601A8FFF711FA11B030BD00B50C
:101FC00083B000230193FEF749FEFFF7CFFFFFF731
:101FD0005DFFFFF797FFFFF7ABFFFFF79DFEFFF7F2
:101FE000B3FE01A8FFF7D6FE0198FFF735FF3220B8
:101FF000FEF758FEF5E7000082B00E4B9A6942F0FA
:1020000001029A619A6902F001020092009ADA696B
:1020100042F08052DA61DB6903F080530193019B47
:10202000054A536823F0E06343F00073536002B045
:10203000704700BF001002400000014010B586B09C
:10204000002302930393049305930268174B9A426B
:1020500001D006B010BD03F5EC33DA6942F48042DA
:10206000DA61DA6902F480420092009A9A6942F0D9
:1020700008029A619B6903F008030193019B4FF4E6
:10208000204302930223039303230593084C02A9E0
:102090002046FEF777FE4FF480430293002303931C
:1020A000049302A92046FEF76DFED2E700380040F7
:1020B000000C014010B586B00023029303930493F3
:1020C00005930268174B9A4201D006B010BD03F584
:1020D00058439A6942F480429A619A6902F48042B4
:1020E0000092009A9A6942F004029A619B6903F097
:1020F00004030193019B4FF40073029302230393A3
:1021000003230593084C02A92046FEF73BFE4FF43B
:102110008063029300230393049302A92046FEF7F1
:1021200031FED2E700380140000801407047FEE769
:10213000FEE7FEE7FEE770477047704708B5FEF719
:102140009FFD08BD0F4B1A6842F001021A605968E2
:102150000D4A0A405A601A6822F0847222F48032D2
:102160001A601A6822F480221A605A6822F4FE0269
:102170005A604FF41F029A60044B4FF000629A605D
:10218000704700BF001002400000FFF800ED00E0C3
:10219000002103E00B4B5B58435004310A480B4BC2
:1021A00042189A42F6D30A4A02E0002342F8043B5E
:1021B000084B9A42F9D3FFF7C5FF00F00FF8FFF77D
:1021C000FEFE7047B845000800000020DC0100203A
:1021D000DC010020A4020020FEE7000070B500250D
:1021E0000C4E0D4CA41BA410A54209D102F06CF8B2
:1021F00000250A4E0A4CA41BA410A54205D170BDAF
:1022000056F8253098470135EEE756F825309847BF
:102210000135F2E7B0450008B0450008B0450008B8
:10222000B445000803460244934200D1704703F8C6
:10223000011BF9E7002B2DE9F0471E46BBBF03F158
:1022400000431E4600232D2388B0149FDDE9121A97
:1022500027F02007462F1446109D0B7004D0452F01
:1022600000D10135022300E0032307AA049206AA45
:10227000CDE902A2CDE900352246334600F0D8FC74
:10228000472F804602D1119BDB0726D5462F08EB4E
:10229000050911D198F80030302B0AD10022002313
:1022A00020463146FEF746FC18B9C5F10105CAF8CB
:1022B0000050DAF8003099440022002320463146CD
:1022C000FEF738FC38B93022079B4B4505D2591C24
:1022D00007911A70F8E7CDF81C904046079B159AB5
:1022E000A3EB0803136008B0BDE8F087F7B5002939
:1022F000B4BF2D232B230446B8BF4942092904F853
:10230000022B437021DD0DF107031F460A2691FBC6
:10231000F6F506FB1511092D01F1300103F8011C3A
:1023200003F1FF32294609DC3031023B02F8011C7F
:10233000BB42224604D3101A03B0F0BD1346E6E7B1
:1023400013F8012B04F8012BF2E7302319448370B2
:10235000021DC170EFE700002DE9F04F91B00C466F
:102360001A9F93461E46054601F016FA0368184662
:102370000993FEF781FB00230E933B680A90073315
:1023800023F0070303F1080294F81880D4F800A0A2
:102390003A60D3E90023C4E91223D4E9127929F081
:1023A00000430B934FF0FF32A64B38460B99FEF7D4
:1023B000F3FB68BB4FF0FF32A24B38460B99FEF798
:1023C000CDFB28BB0022002338464946FEF7BCFB64
:1023D00010B12D2384F843309B4F9C4BB8F1470F2D
:1023E00098BF1F4603234FF0000923612AF004031E
:1023F000236000965B460FAA2146284600F0E2F9CA
:10240000013040F090804FF0FF3011B0BDE8F08F08
:102410003A464B4638464946FEF7BEFB10B18C4F54
:102420008C4BDBE763684AF48062591C0DA80EA947
:1024300040D1062363604FF0000C0DF13303CDE96A
:10244000012363682260CDE9030800933A464B46B6
:10245000CDE9051C2846FFF7EDFE08F0DF03472B0A
:10246000074609D10D9BD81C02DB6268934247DD09
:10247000A8F102085FFA88F8B8F1650F0D9924D821
:102480000139424604F150000D91FFF72FFF0E9ADB
:1024900081461318012A236102DC2268D10701D585
:1024A000013323619DF83330002BA2D02D2384F813
:1024B00043309EE7B8F1670F00F06E81B8F1470F27
:1024C000B9D1002BB7D10123B4E7B8F1660F19D108
:1024D000002963680CDD216113B92268D20702D597
:1024E00001330B4423610D9B4FF00009A365D9E72D
:1024F00013B92268D00701D50233F3E70123F1E7CE
:102500004FF06708DDE90D32934205DB2268236155
:10251000D107E8D50133E5E7002BCCBF0123C3F198
:1025200002031344DEE723685A0507D423693A46B9
:1025300059462846B047013029D164E7B8F1650F04
:1025400040F2D780D4E9120100220023FEF7F2FA0C
:1025500088B30123404A59462846B04701303FF42A
:1025600052AFDDE90D239A4202DB2368D8070ED56E
:10257000DDE9092359462846B04701303FF443AF0F
:10258000002704F11A080E9B013BBB4209DC2368BB
:102590009F0700F1FD80E0680F9B9842B8BF184686
:1025A00033E70123424659462846B04701303FF4FD
:1025B0002AAF0137E7E70D9B002B2BDC0123264ACE
:1025C00059462846B04701303FF41DAF0D9B23B953
:1025D0000E9B13B92368D907D9D5DDE909235946DC
:1025E0002846B04701303FF40EAF4FF0000804F129
:1025F0001A090D9B5B42434501DC0E9B97E70123C3
:102600004A4659462846B04701303FF4FCAE08F12F
:102610000108EEE70E9AA36D9A42A8BF1A46002A57
:10262000904607DD134659463A462846B0470130E2
:102630003FF4E9AE04F11A034FF0000A28EAE87803
:102640000B9315E0FFFFEF7F544300085043000851
:102650005C430008584300086043000801230B9ABC
:1026600059462846B04701303FF4CDAE0AF1010A81
:10267000D4F85890A9EB08035345EFDCDDE90D23AE
:102680009A424F4414DB2368DA0711D40E9B0D994C
:10269000A3EB0902A3EB01099145A8BF9146B9F14B
:1026A000000F0DDC002729EAE97904F11A0818E087
:1026B000DDE9092359462846B0470130E6D1A2E6B4
:1026C0004B463A4659462846B0470130EAD19AE689
:1026D0000123424659462846B04701303FF493AEA5
:1026E0000137DDE90D239B1AA3EB0903BB42EFDCA5
:1026F0004DE70E9A012A01DCDB0738D501233A4663
:1027000059462846B04701303FF47DAEDDE9092344
:1027100059462846B047013007F101073FF473AE30
:10272000D4E912010E9B002203F1FF380023FEF7CB
:1027300001FAC0B943463A4659462846B0470130E7
:102740000DD160E60123424659462846B047013084
:102750003FF459AE01370E9B013BBB42F2DC4B46C6
:1027600004F15002E4E6002704F11A08F3E701231C
:10277000E1E70123424659462846B04701303FF47D
:1027800042AE0137E3680F9A9B1ABB42F1DC02E7C5
:10279000002704F11908F5E7002B3FF494AE4FF041
:1027A000000CCDE9051C0DF133012260CDE90308D1
:1027B000CDE9012100933A464B462846FFF73AFD02
:1027C00007464FE62DE9F04791461F468A680B6998
:1027D00006469342B8BF1346C9F8003091F843202B
:1027E0000C46DDF8208012B10133C9F800302368AF
:1027F000990642BFD9F800300233C9F80030256885
:1028000015F0060507D104F1190AE368D9F800208C
:102810009B1AAB4229DC94F843302268003318BF7E
:10282000012392062ED404F1430239463046C047B4
:10283000013021D02368E56803F00603042B18BF9C
:102840000025D9F800204FF0000908BFAD1AA36891
:10285000226908BF25EAE5759342C4BF9B1AED18AB
:102860001A344D451AD1002008E00123524639465A
:102870003046C047013003D14FF0FF30BDE8F0874C
:102880000135C2E73020E11881F843005A1C94F862
:1028900045102244023382F84310C4E70123224644
:1028A00039463046C0470130E6D009F10109D8E782
:1028B0002DE9F04301F1430C0C46097E85B06E29E9
:1028C0001746064698460C9A00F0B38022D8632932
:1028D00036D00AD8002900F0B980582900F083804A
:1028E00004F1420584F8421032E0642901D06929DC
:1028F000F6D120681368050603F104012AD51B6888
:102900001160002B03DA2D225B4284F843206F48CC
:102910000A2239E0732900F09D8008D86F2920D061
:102920007029DDD1236843F02003236003E075297B
:1029300017D07829D4D17823654884F8453055E0FC
:10294000136804F14205191D1B68116084F84230B8
:1029500001238CE01B6810F0400F116018BF1BB200
:10296000CFE713682568181D1060280601D51B687D
:1029700002E06806FBD51B886F2914BF0A220822D3
:102980005248002184F843106568002DA560C0F20C
:102990009580216821F004012160002B3DD1002D9C
:1029A00040F08E806546082A0BD12368DB0708D5E6
:1029B000236962689A42DEBF302305F8013C05F1C5
:1029C000FF35ACEB05032361CDF800803B4603AA3D
:1029D00021463046FFF7F6FE01304DD14FF0FF3073
:1029E00005B0BDE8F083394884F8451013682168C4
:1029F0001D1D1B6815600A060BD5CA0744BF41F0B0
:102A0000200121601BB9226822F0200222601022DE
:102A1000B7E74D0648BF9BB2EFE76546B3FBF2F15F
:102A200002FB1133C35C05F8013D0B460029F5D1CB
:102A3000B9E713682568181D6169106028061B68CE
:102A400001D5196002E06A06FBD5198000236546AE
:102A50002361B9E71368191D11601D6862680021C0
:102A6000284600F0AFFE08B1401B60606368236138
:102A7000002384F84330A7E723692A4639463046C5
:102A8000C0470130AAD023689B0713D4E068039B9A
:102A90009842B8BF1846A3E701234A463946304654
:102AA000C04701309AD00135E368039A9B1AAB42C4
:102AB000F2DCEBE7002504F11909F5E7002BACD1B6
:102AC000037804F1420584F842306CE76243000861
:102AD000734300080EB46FF0004100B59CB01DAB0D
:102AE00002900690079104910848094953F8042B75
:102AF0000591006802A9019301F068FA0022029B87
:102B00001A701CB05DF804EB03B070470C00002095
:102B10000802FFFF2DE9F74F03690C698046A342C5
:102B2000C0F28480013C01F1140700F1140657F84B
:102B3000245056F824000135B0FBF5F54FEA840C1B
:102B400006EB0C0307EB0C0901939DB34FF0000A51
:102B50003846B646D34650F8042B93B205FB03A380
:102B6000120C4FEA134A05FB02A29BB2ABEB030324
:102B7000DEF800B04FEA124A1FFA8BFB5B441FFAE3
:102B800082FBDEF800208145CBEB124202EB2342B0
:102B90009BB243EA02434FEA224B4EF8043BDAD29F
:102BA00056F80C3033B9019B043B9E421A4631D390
:102BB000C8F81040404601F033F8002826DB3046C4
:102BC0004FF0000C013557F8041BD0F800E08BB231
:102BD000ACEB03031FFA8EF213440A0CC2EB1E4245
:102BE00002EB23429BB243EA0243B9454FEA224C2F
:102BF00040F8043BE7D256F8242006EB84032AB9B8
:102C0000043B9E421A460BD3C8F81040284603B036
:102C1000BDE8F08F1268043B002AC9D1013CC4E72B
:102C20001268043B002AEFD1013CEAE70020EEE7FE
:102C30002DE9F04F16461F46456A95B00446DDF86B
:102C40008480CDE902673DB9102000F0B3FD6062D9
:102C5000C0E901550560C560636A196851B15A68D9
:102C6000012393404A608B60204600F0F8FD00226B
:102C7000636A1A603B1EAFBF0023012223F00043AA
:102C80000393ACBFC8F80030C8F80020AE4BDDF8A5
:102C90000C8033EA08031BD142F20F73209A1360B1
:102CA000029B23B9C8F31300002800F04585229B3E
:102CB00053B9A64B21E0A64B06930833229A136022
:102CC000069815B0BDE8F08FA04B06930333F5E7E7
:102CD000DDE902670022002330463946FDF72AFF6E
:102CE000824660B10123209A1360229B002B00F0E2
:102CF0002085984B229A1360013B0693E0E712ABC4
:102D0000019313AB009332463B46204601F000F896
:102D1000C8F30A558346002D7DD0B046C7F3130390
:102D200043F07F5949F44019A5F2FF35CDF840A092
:102D30000022894B40464946FDF70EFA7CA3D3E9B1
:102D40000023FDF7C1FB7CA3D3E90023FDF706FABE
:102D5000064628460F46FDF74DFB79A3D3E900232D
:102D6000FDF7B2FB02460B4630463946FDF7F6F951
:102D700006460F46FDF726FF002282460023304616
:102D80003946FDF7E1FE48B15046FDF733FB3246C8
:102D90003B46FDF7CFFE08B90AF1FF3ABAF1160F2C
:102DA0005AD8DDE902236D4901EBCA01D1E90001DE
:102DB000FDF7E8FE002851D000230AF1FF3A0D93F9
:102DC000129B5D1B6B1E079343BF0023C5F10109D6
:102DD00007934FF00009BAF1000F41DB079BCDF8D4
:102DE00030A053440793002308931E9B092B00F245
:102DF0008F80052BC4BF043B1E931E9BC8BF0025BC
:102E0000A3F10203D8BF0125032B00F28D80DFE878
:102E100003F07B7D2F6FDDE912531D4405F2324034
:102E2000202813DDC0F14000029B08FA00F805F2EB
:102E3000124023FA00F048EA0000FDF7CBFA012324
:102E40008046A1F1F879013D109371E7029BC0F132
:102E5000200003FA00F0F0E70123B0E70D90AFE7A0
:102E6000CAF1000308930023A9EB0A090C93BCE7FD
:102E7000012309931F9B002B74DD984604930022C5
:102E8000666A7260042202F11400984271686ED979
:102E9000204600F0B0FC636A30601B68B8F10E0F8A
:102EA000069300F2ED80002D00F0EA80DDE90223B8
:102EB000BAF1000FCDE90E2377DD284A0AF00F039F
:102EC0004FEA2A1602EBC303F006D3E90023CDE94B
:102ED0000A2368D5DDE90E01214B0325D3E9082338
:102EE000FDF71CFCCDE9020106F00F061C4F4FE078
:102EF000012309931F9B534403F1010804934346A4
:102F0000012BB8BF0123BAE70023B2E70023F0E7A3
:102F10000125002309951E934FF0FF3300220493EF
:102F2000984612231F92AAE701230993F4E700BFF2
:102F300061436F63A787D23FB3C8608B288AC63FBF
:102F4000FB799F501344D33F0000F07F8D4300086E
:102F500084430008614300080000F83FC0430008B4
:102F6000984300080123049398461A46DAE7013192
:102F70007160520087E7F10708D5DDE90A01D7E95A
:102F80000023FDF7A1FACDE90A01013576100837D3
:102F9000002EF0D1DDE90A23DDE90201FDF7BEFBD9
:102FA000CDE902011BE00225A0E700F0A480DDE9E5
:102FB0000E01CAF10006A04B06F00F0203EBC2039C
:102FC000D3E90023FDF780FA02250023CDE90201B1
:102FD0009A4F3611002E40F08380002BE0D10D9BDC
:102FE000002B00F08A80DDE90223CDE90A23DDE928
:102FF0000A010022924BFDF7A7FD00287DD0B8F111
:10300000000F7AD0049B002B36DDDDE90A01002297
:103010008C4BFDF759FACDE90201049E0AF1FF3706
:1030200001352846FDF7E6F9DDE90223FDF74CFA04
:103030000022854BFDF792F8A1F15075CDE90A0108
:103040000B95002E5CD1DDE9020100227F4BFDF7DC
:1030500083F80A9A2B46CDE90201FDF793FD00287B
:1030600040F08182DDE902010A9A05F10043FDF793
:103070006BFD002840F07582DDE90E23CDE90223C7
:10308000139B002BC0F24B81BAF10E0F00F3478166
:10309000694B03EBCA03D3E90023CDE904231F9B4B
:1030A000002B80F2D780B8F1000F00F3D38040F0FE
:1030B0005782DDE904010022644BFDF705FADDE9E2
:1030C0000223FDF755FD46464746002840F02D8275
:1030D000069B069A5D1C31230AF1010A137028E24F
:1030E000F20705D5D7E90023FDF7EEF901230135F5
:1030F000761008376EE7022571E75746464690E797
:103100004D4B03EBC60353E90201099B002B48D04A
:1031100002460B4600204E49FDF700FBDDE90A237D
:10312000FDF71AF8CDE90A01069DDDE90201FDF778
:1031300049FD1190FDF75EF902460B46DDE90201FB
:10314000FDF70AF8119BCDE90201303305F8013B88
:10315000DDE90A23FDF7F8FC002863D1DDE902234D
:1031600000203749FCF7F8FFDDE90A23FDF7ECFC06
:10317000002840F0B580069BEB1A9E427FF77CAF9B
:10318000DDE90A0100222F4BFDF79EF90022CDE96F
:103190000A01DDE902012B4BFDF796F9CDE90201A9
:1031A000C3E7DDE90A23FDF78FF9069BCDE90A01A4
:1031B0009D191E46DDE90201FDF704FD1190FDF7A2
:1031C00019F902460B46DDE90201FCF7C5FF119B28
:1031D000CDE90201303306F8013BAE424FF0000268
:1031E00024D1DDE90A011A4BFCF7B8FF02460B4671
:1031F000DDE90201FDF7C6FC002871D1DDE90A23F3
:1032000000201349FCF7A8FF02460B46DDE9020146
:10321000FDF79AFC00283FF42FAF15F8013C6A1E19
:10322000302B01D0BA464AE01546F6E7054BFDF7CC
:103230004BF9CDE90201BDE7C043000898430008FF
:103240000000F03F0000244000001C40000014403B
:103250000000E03F069DDDE90267DDE9042330461A
:103260003946FDF75BFAFDF7ADFC8146FDF7C2F884
:10327000DDE90423FDF728F902460B4630463946BE
:10328000FCF76AFF09F1300605F8016B069E02465D
:10329000AE1BB0450B4635D1FCF760FFDDE90423DA
:1032A00006460F46FDF76EFCC8B9DDE9042330463B
:1032B0003946FDF73FFC10B119F0010F0FD1594607
:1032C000204600F0CCFA0023209A2B700AF101036B
:1032D0001360229B002B3FF4F3AC1D60F0E45746D3
:1032E00015F8012C6B1E392A06D1069A9A4207D18D
:1032F00030231370134601371A7801321A7091E7A0
:103300001D46EDE70022994BFDF7DEF80022002371
:1033100006460F46FDF70EFC00289ED0CFE7099A1F
:10332000002A00F088801E9A012A6DDC109A002A7B
:1033300066D003F233434D46089E079A01211A4492
:1033400020469944079200F02AFB0746002D0BDD2A
:10335000079B002B08DDAB42A8BF2B46079AA9EBC1
:103360000309ED1AD31A0793089BEBB1099B002BB5
:1033700065D08EB139463246204600F0AFFB5A4642
:1033800001460746204600F013FB59460A902046A6
:1033900000F065FA0A9B9B46089B9A1B04D059468D
:1033A000204600F09BFB83460121204600F0F7FAFF
:1033B0000C9B0646002B00F0C6811A4601462046AB
:1033C00000F08CFB1E9B0646012B3EDC029B002B73
:1033D00037D1039BC3F31303002B34D1039B23F09A
:1033E00000431B0D1B052BB1079B09F1010901339C
:1033F0000793012308930C9B002B28D101202EE07A
:10340000129BC3F1360396E7089B08F1FF36B342DF
:10341000B7BF089B9E1BF21A0C9BBFBF08969B1858
:103420000C930026B8F1000FB9BFA9EB08050023E3
:103430004D46434681E7089E4D46099F86E7089A18
:10344000ADE70023D6E7029BD4E700230893336956
:1034500006EB8303186900F054FAC0F12000079BC3
:10346000184410F01F0047D0C0F12003042B3BDDAF
:10347000079BC0F11C008144054403440793B9F144
:10348000000F05DD59464A46204600F075FB83468D
:10349000079B002B05DD31461A46204600F06CFBE9
:1034A00006460D9B53B33146584600F0B9FB002841
:1034B00024DA002359460A22204600F0E7F9099B46
:1034C0000AF1FF3A8346002B00F04481002339467D
:1034D0000A22204600F0DAF9049B0746002B4DDC57
:1034E0001E9B022B4ADD11E0C9D0079A1C331A44F7
:1034F00099441D441346C1E70346F6E7B8F1000FAF
:1035000036DC1E9B022B33DDCDF81080049B63B9A3
:1035100031460522204600F0B9F9014606465846D4
:1035200000F07EFB00283FF7D3AD1F9B069D6FEA9E
:10353000030A4FF000093146204600F090F9002FB1
:103540003FF4BDAEB9F1000F05D0B94503D04946EF
:10355000204600F084F93946204600F080F9AEE6B6
:1035600000263746E1E7BA463746B1E50000244079
:10357000099BCDF81080002B00F0F380002D05DDB5
:1035800039462A46204600F0F7FA0746089B002BEA
:103590004CD07968204600F02EF905463A6907F1CB
:1035A0000C01023292000C3000F01AF90122294677
:1035B000204600F0E1FAB9460746069B0793029BB6
:1035C00003F00103089331465846FFF7A3FA494632
:1035D000054600F13008584600F022FB3A460290BA
:1035E0003146204600F036FBC368024603BB014665
:1035F0000990584600F014FB0346099A11462046EC
:10360000099300F02CF9099BA3B91E9A92B9089A64
:1036100082B9B8F1390F29D0029B002B01DD05F1E9
:103620003108079B5D1C83F8008084E73846C2E7B9
:103630000123E3E7029A002A04DB23D11E9A0ABB86
:10364000089AFAB9002BECDD59460122204600F019
:1036500093FA3146834600F0E3FA002803DCE0D118
:1036600018F0010FDDD0B8F1390FD8D1079B079AB8
:103670005D1C3923137015F8013C6A1E392B4DD09F
:10368000013352E0079A002B02F1010506DDB8F183
:10369000390FEBD008F10108079BC4E7069B049A99
:1036A000EB1A934205F8018C21D0594600230A22D7
:1036B000204600F0EBF8B94583464FF000034FF089
:1036C0000A024946204605D100F0E0F88146074647
:1036D000079578E700F0DAF83946814600230A2298
:1036E000204600F0D3F80746F2E74FF000095946AC
:1036F0000122204600F040FA3146834600F090FA5D
:103700000028B8DC02D118F0010FB4D115F8013C43
:103710006A1E302B7FF40FAF1546F7E7069B9342E6
:1037200005D13123069A0AF1010A137003E7154601
:10373000A1E7174BFFF7E1BA229B002B7FF4BBAA4E
:10374000144BFFF7DABA1E9B012B7FF73FAE0C9BA1
:10375000089353E6049B002B03DC1E9B022B3FF7D0
:10376000D5AE069D31465846FFF7D4F9069B00F1C9
:10377000300805F8018B049AEB1A9A42B5DD5946D8
:1037800000230A22204600F081F88346EAE700BFC2
:103790006043000884430008044B1B68186A044B0C
:1037A000002808BF1846F030704700BF0C0000200A
:1037B00070000020024B0146186800F053BB00BFA8
:1037C0000C00002010B5C9B202449042034601D15A
:1037D000002303E01C7801308C42F6D1184610BD5E
:1037E00010B5431E0A44914200D110BD11F8014B9F
:1037F00003F8014FF7E770B5456A04460E463DB938
:103800001020FFF7D7FF6062C0E901550560C56071
:10381000656AEB6883B1636ADB6853F82600B8B960
:10382000012101FA06F56A1D9200204600F0BFFA58
:1038300060B1C0E901650EE021220421204600F0BC
:10384000B6FA636AE860DB68002BE4D1002070BD43
:10385000026843F826200023C0E90333F7E770B578
:10386000446A06460D463CB91020FFF7A3FF70627C
:10387000C0E901440460C4603DB1736A6A68DB68F2
:1038800053F82210296043F8225070BD2DE9F04111
:103890001F4606460C4600230D6901F1140CDCF8A6
:1038A0000000013381B202FB0171000C0F0C02FB1E
:1038B000007089B201EB00419D424FEA10474CF87D
:1038C000041BECDCD7B1A368AB4212DC6168304664
:1038D0000131FFF790FF8046226904F10C010232AA
:1038E00092000C30FFF77CFF21463046FFF7B7FF10
:1038F000444604EB850301355F6125612046BDE840
:10390000F081020C12040346B2B90304102013F034
:103910007F4F04BF1B02083013F0704F04BF1B0120
:10392000043013F0404F04BF9B000230002B06DB35
:103930005B0003D5013070470020E8E72020704786
:103940000368014613F007020BD0DA0723D4980767
:1039500049BF5B089B0801200B605CBF0B60022025
:10396000704798B2A8B910201B0C13F0FF0F04BFCA
:103970001B0A08301A0704BF1B0904309A0704BF4A
:103980009B080230DA0702D45B0806D001300B60D6
:1039900070471046E9E7002070472020704710B5B7
:1039A0000C460121FFF727FF01224461026110BD8F
:1039B0002DE9F74F14460A69236988469A42BEBF2B
:1039C0000B46A0461C46D8F81070D4F81090D8F8D2
:1039D0000830D8F8041007EB0906B342B8BF01312C
:1039E000FFF709FF00F114052B46002205EB860EB8
:1039F000734516D304F1140208F1140102EB890394
:103A000001EB87070093009B019293420CD8002E94
:103A100003DD5EF8043D002B5DD0066103B0BDE818
:103A2000F08F43F8042BE3E7B2F800B0BBF1000FCE
:103A300023D08946AC464FF0000859F8044BDCF817
:103A400000A0A3B21FFA8AFA0BFB03A34FEA144AA1
:103A5000DCF8004043444FEA14480BFB0A84E2467A
:103A600004EB13449BB243EA04434F454FEA144826
:103A70004AF8043B2BD8CCF80480019B0432B3F8FD
:103A800002A0BAF1000F20D08946A8464FF0000BE3
:103A90002B68B9F800C0B8F802409BB20AFB0C448E
:103AA000C4465C4443EA04434CF8043B59F8043BE5
:103AB000B8F804B01B0C0AFB03B34F4503EB1443E7
:103AC0004FEA134B05D8C8F8043004359BE7D446B9
:103AD000B3E7E046DDE7013E99E700002DE9F84352
:103AE000154612F0030206460F4607D0214C013A54
:103AF000002354F82220FFF7C9FE0746AD1035D049
:103B0000746A3CB91020FFF755FE7062C0E90144A9
:103B10000460C460D6F82480D8F808404CB940F25C
:103B200071213046FFF73BFF00230446C8F8080028
:103B300003604FF00008EB070AD5394622463046AD
:103B4000FFF736FF814639463046FFF788FE4F467D
:103B50006D100BD0206838B9224621463046FFF759
:103B600027FF2060C0F800800446E4E73846BDE83F
:103B7000F88300BF884400082DE9F0470C4607464B
:103B8000164623694FEA621A0AEB03094968A368DB
:103B900009F10105AB4232DB3846FFF72CFE00236A
:103BA00080461A4600F1140153452BDB20692AEAAE
:103BB000EA7A04F1140316F01F0201EB8A0103EB09
:103BC000800C25D00020C2F1200E8A461E68964047
:103BD00030434AF8040B53F8040B9C4520FA0EF0CE
:103BE00014D8486008B109F10205013D3846C8F80B
:103BF00010502146FFF733FE4046BDE8F087013103
:103C00005B00C7E741F823200133CDE75146DCE7ED
:103C1000043953F8042B9C4541F8042FF9D8E4E704
:103C200003690A6930B59B1A0CD192001430143123
:103C30008418114454F8045D51F8042D954203D0C2
:103C400005D30123184630BDA042F3D3FAE74FF065
:103C5000FF33F7E72DE9F0470D46074611462846A2
:103C60001446FFF7DDFF061E08D131463846FFF740
:103C7000C2FD0123C0E90436BDE8F087A4BF234696
:103C80002C4638466168A6BF1D4600260126FFF770
:103C9000B2FD4FF0000EC6602B69266904F11402D4
:103CA00005F1140902EB860709EB830800F1140102
:103CB00052F804AB59F8045B1FFA8AF37344ACB2B0
:103CC0001B1B2C0CC4EB1A4404EB23449BB24FEA9D
:103CD000244EC84543EA0444944641F8044BE7D8CF
:103CE000BC4504D351F8043D83B10661C4E75CF8D8
:103CF000044BA2B27244131403EB144392B242EA8F
:103D000003424FEA234E41F8042BE9E7013EE9E77D
:103D10002DE9F3411C46DDE9086501219046FFF7D6
:103D20006AFDC4F31302C4F30A54074634BB01927C
:103D3000B8F1000227D002A840F8082DFFF700FED6
:103D40000099F0B1019AC0F1200302FA03F30B438A
:103D5000C2407B610192019B002B14BF0221012113
:103D6000BB613961C4B1A4F2334404443460C0F18E
:103D700035002860384602B0BDE8F08142F4801278
:103D8000D5E77961E7E701A8FFF7DAFD0121019B9B
:103D900039617B612030E5E7A0F2324007EB810317
:103DA00030601869FFF7ADFDC0EB4110E1E738B5B1
:103DB00002FB01F4214600F055F8054618B12246F1
:103DC0000021FEF72FFA284638BD000038B5054619
:103DD000002943D051F8043C0C1F002BB8BFE41855
:103DE00000F027FA1E4A1368104633B96360146066
:103DF0002846BDE8384000F01DBAA3420BD921681F
:103E00006218934201BF1A685B68521822606360AF
:103E10000460EDE713465A680AB1A242FAD919685C
:103E20005818A0420BD120680144581882421960EA
:103E3000DED110685268014419605A60D8E702D98F
:103E40000C232B60D4E7206821188A4201BF116837
:103E500052680918216062605C60C9E738BD00BF24
:103E6000F801002070B5CD1C25F0030508350C2D98
:103E700038BF0C25002D064601DBA94203D90C23CF
:103E80003360002070BD00F0D4F9214A1468214647
:103E900091B9204C23681BB9304600F08FF920609F
:103EA0002946304600F08AF9431C24D10C233046C1
:103EB000336000F0BFF9E4E70B685B1B18D40B2BF1
:103EC0000FD90B60CC18CD50304600F0B3F904F197
:103ED0000B00231D20F00700C31AD3D05A42E25032
:103EE000D0E74B688C4216BF636013600C46EBE76B
:103EF0000C464968CCE7C41C24F00304A04205D05A
:103F0000211A304600F05AF90130CFD02560DBE7A6
:103F1000F8010020FC0100202DE9F0478E68824660
:103F20009E420C469046994637D88A8912F4906F83
:103F300031D00223256809696F1A656905EB4505CB
:103F400095FBF3F509F101033B449D4238BF1D4643
:103F5000530530D52946FFF785FF064650B90C2397
:103F60004FF0FF30CAF80030A38943F04003A3812B
:103F7000BDE8F0873A462169FFF732FCA38923F4B4
:103F8000906343F08003A38126613E4426604E4641
:103F90006561ED1BA5604E4500D94E46324641464F
:103FA000206800F02DF9A36800209B1BA360236804
:103FB0001E442660DCE72A4600F03DF9064600284C
:103FC000E2D121695046FFF701FFC8E72DE9F04F24
:103FD0001D468B899DB01F0680460C4616460FD5A0
:103FE0000B696BB94021FFF73DFF2060206128B9C4
:103FF0000C23C8F800304FF0FF30C8E04023636165
:104000000023099320238DF8293030234FF0010B32
:104010008DF82A30039537463D4615F8013B0BB124
:10402000252B3ED1B7EB060A0BD05346324621462C
:104030004046FFF771FF013000F0A480099B534414
:1040400009933B78002B00F09D8000234FF0FF3256
:10405000CDE90523049307938DF853301A932F4627
:10406000052217F8011B5048FFF7ACFB049BD0B9A1
:10407000D90644BF20228DF853201A0744BF2B22B3
:104080008DF853202A782A2A15D02F4600200A2599
:10409000079A394611F8013B303B092B4DD9B8B18D
:1040A0000FE02F46B8E7404A3D46801A0BFA00F071
:1040B00018430490D3E7039A111D12680391002A54
:1040C00001DB079204E0524243F00203079204939B
:1040D0003B782E2B0CD17B782A2B33D1039B0237D4
:1040E0001A1D1B680392002BB8BF4FF0FF330593D6
:1040F0002E4D032239782846FFF764FB38B1402360
:10410000401B03FA00F0049B013703430493397802
:10411000062227487E1C8DF82810FFF753FB002845
:1041200038D0244B13BB039B073323F0070308331A
:104130000393099B4B4409936DE705FB0232012071
:104140000F46A6E700230A2519460137059338468E
:1041500010F8012B303A092A03D9002BC8D0059159
:10416000C6E705FB012101230746F0E703AB0093F7
:104170002246114B04A94046FEF7EEF8B0F1FF3F8E
:104180008146D6D1A3895B063FF535AF09981DB0AE
:10419000BDE8F08F03AB00932246074B04A94046CD
:1041A000FEF786FBEAE700BF944400089A44000843
:1041B0009E44000859230008193F000838B5002321
:1041C000054C05460846236000F070F8431C02D1F8
:1041D000236803B12B6038BDA002002082B001B972
:1041E00001A942B14BB113780B601278101C18BFB3
:1041F000012002B070471046FBE76FF00100F8E7BE
:10420000884210B501EB020307D8421E99420AD03A
:1042100011F8014B02F8014FF8E78342F5D98118F4
:10422000D21AD34200D110BD13F8014D01F8014D4F
:10423000F7E770477047F8B5074614460E4621B9B0
:10424000BDE8F8401146FFF70DBE22B9FFF7BEFDED
:1042500025462846F8BD00F021F8A0420FD221469D
:104260003846FFF7FFFD05460028F2D031462246CA
:10427000FFF7B6FA31463846FFF7A8FDE9E73546BD
:10428000E7E749B1FF2A8BBF8A230A700360012048
:1042900088BF4FF0FF3070470846704751F8043C24
:1042A000181F002BBCBF0B58C0187047044A0549A3
:1042B0001368002B08BF0B4618441060184670475F
:1042C00000020020A8020020F8B500BFF8BC08BC1E
:1042D0009E467047F8B500BFF8BC08BC9E467047C4
:1042E00002030405060708090A0B0C0D0E0F101037
:1042F00001020000000000000000000001020304B1
:10430000060708090000000001020304456E636F00
:1043100064657220776173207A65726F656421002D
:10432000456E636F64657220636F756C64206E6F99
:1043300074206265207A65726F6564210000000058
:1043400025730D0A00000000252E32660D0A0000BC
:10435000494E4600696E66004E414E006E616E0029
:104360003000303132333435363738394142434406
:10437000454600303132333435363738396162637F
:1043800064656600496E66696E697479004E614EB7
:1043900000000000000000000080E03779C34143C6
:1043A000176E05B5B5B89346F5F93FE9034F384D9B
:1043B000321D30F94877825A3CBF737FDD4F157547
:1043C000000000000000F03F00000000000024405A
:1043D00000000000000059400000000000408F4035
:1043E000000000000088C34000000000006AF840A0
:1043F0000000000080842E4100000000D0126341C4
:104400000000000084D797410000000065CDCD4139
:10441000000000205FA00242000000E8764837421A
:10442000000000A2941A6D42000040E59C30A242B8
:104430000000901EC4BCD64200003426F56B0C432D
:104440000080E03779C3414300A0D88557347643D4
:1044500000C84E676DC1AB43003D9160E458E14335
:10446000408CB5781DAF154450EFE2D6E41A4B44AA
:1044700092D54D06CFF08044F64AE1C7022DB544EF
:10448000B49DD9794378EA44050000001900000082
:104490007D000000232D302B2000686C4C006566E9
:1044A00067454647004300504F534958002E0000CF
:1044B00020202020202020202028282828282020D4
:1044C00020202020202020202020202020202020EC
:1044D0008810101010101010101010101010101064
:1044E0000404040404040404040410101010101044
:1044F000104141414141410101010101010101011D
:104500000101010101010101010101101010101050
:1045100010424242424242020202020202020202ED
:104520000202020202020202020202101010102015
:10453000000000000000000000000000000000007B
:10454000000000000000000000000000000000006B
:10455000000000000000000000000000000000005B
:10456000000000000000000000000000000000004B
:10457000000000000000000000000000000000003B
:10458000000000000000000000000000000000002B
:10459000000000000000000000000000000000001B
:1045A000000000000000000000000000000000000B
:0445B00035010008C9
:0445B40011010008E9
:1045B800010000001000000000A24A0410000020C2
:1045C80000000000000000000000000000000000E3
:1045D80000000000000000000000000000000000D3
:1045E80000000000000000000000000000000000C3
:1045F80000000000000000000000000000000000B3
:1046080000000000000000000000000000000000A2
:104618000000000000000000000000000000000092
:10462800430000000000000000000000000000003F
:104638000000000000000000000000000000000072
:10464800430000000000000000000000000000001F
:104658000000000000000000000000000000000052
:1046680043000000000000000000000000000000FF
:104678000000000000000000000000000000000032
:1046880043000000000000000000000000000000DF
:104698000000000000000000000000000000000012
:1046A80043000000000000000000000000000000BF
:1046B80000000000000000000000000000000000F2
:1046C800430000000000000000000000000000009F
:1046D80000000000000000000000000000000000D2
:1046E800430000000000000000000000000000007F
:1046F80000000000000000000000000000000000B2
:1047080083420008DD41000800000000AF440008B3
:10471800AD440008994400089944000899440008E9
:1047280099440008994400089944000899440008ED
:104738009944000899440008FFFFFFFFFFFFFFFFAF
:10474800FFFFFFFFFFFF00000100415343494900FD
:104758000000000000000000000000000000000051
:1047680000000000000000000000415343494900D8
:104778000000000000000000000000000000000031
:0C47880000000000000000000000000025
:04000005080021913D
:00000001FF
