:020000040800F2
:10000000005000204D010008590400085B0400085E
:100010005D0400085F04000861040008000000009F
:100020000000000000000000000000006304000861
:100030006504000800000000670400086904000867
:100040009501000895010008950100089501000838
:100050009501000895010008950100089501000828
:100060009501000895010008950100089501000818
:100070009501000895010008950100089501000808
:1000800095010008950100089501000895010008F8
:1000900095010008950100089501000895010008E8
:1000A00095010008950100089501000895010008D8
:1000B00095010008950100089501000895010008C8
:1000C00095010008950100089501000895010008B8
:1000D00095010008950100089501000895010008A8
:1000E0009501000895010008950100080000000036
:1000F0000000000000000000000000000000000000
:0C01000000000000000000005FF808F1A3
:10010C0010B5054C237833B9044B13B10448AFF345
:10011C0000800123237010BD0C00002000000000A3
:10012C001012000808B5034B1BB103490348AFF389
:10013C00008008BD00000000100000201012000814
:10014C00002103E00B4B5B58435004310A480B4B26
:10015C0042189A42F6D30A4A02E0002342F8043BC2
:10016C00084B9A42F9D300F07DF901F027F800F022
:10017C00F9F870475C120008000000200C00002009
:10018C000C0000205C000020FEE700002DE9F0418F
:10019C0088B000240494059406940794404B9A6903
:1001AC0042F010029A619A6902F010020092009AD1
:1001BC009A6942F020029A619A6902F02002019237
:1001CC00019A9A6942F004029A619A6902F0040257
:1001DC000292029A9A6942F008029A619B6903F0B2
:1001EC0008030393039BDFF8C88001224FF40051EE
:1001FC00404600F049FC2B4D22464FF481712846B5
:10020C0000F042FC4FF4005304930126059606942B
:10021C000227079704A9404600F04CFB4FF481736A
:10022C00049305960694079704A9284600F042FB10
:10023C004FF40173049305970326079604A92846E7
:10024C0000F038FB4FF4816304930594069404A9E1
:10025C00284600F02FFBF0230493059604A92846AA
:10026C0000F028FB4FF47063049312230593079658
:10027C000D4C04A9204600F01DFB4FF47043049371
:10028C000597079604A9204600F014FB074A53680B
:10029C0043F0E0633B43536008B0BDE8F08100BF1E
:1002AC000010024000080140000C01400000014019
:1002BC000010014070B584B000250195029503959E
:1002CC000C4C0D4B2360A560E56065614FF4602319
:1002DC00E361656001262661204600F007FA0423DD
:1002EC000193029603950DEB0301204600F03CF9B7
:1002FC0004B070BD280000200024014030B595B03A
:10030C0000240C940D940F94109405940694079467
:10031C0008940994019402940394049401220A927F
:10032C004FF480330B930E920225119512934FF4D8
:10033C00A01313930AA800F0C3FB0F230593069593
:10034C0007944FF4806308930994294605A800F09C
:10035C00DDFD01954FF48043039301A800F0A4FE4A
:10036C0015B030BD08B500F0C7F8FFF7C7FFFFF7B1
:10037C000DFFFFF79FFF0B4C00224FF4005120465E
:10038C0000F082FB4FF47A7000F0DAF801224FF49F
:10039C000051204600F078FB4FF47A7000F0D0F852
:1003AC00E9E700BF0010014082B00E4B9A6942F0A1
:1003BC0001029A619A6902F001020092009ADA69CC
:1003CC0042F08052DA61DB6903F080530193019BA8
:1003DC00054A536823F0E06343F00073536002B0A6
:1003EC00704700BF001002400000014000B587B00C
:1003FC00002302930393049305930268114B9A42D2
:10040C0002D007B05DF804FB03F56C439A6942F423
:10041C0000729A619A6902F400720092009A9A69C9
:10042C0042F004029A619B6903F004030193019B5F
:10043C00102302930323039302A9034800F03AFA12
:10044C00DFE700BF00240140000801407047FEE7D1
:10045C00FEE7FEE7FEE770477047704708B500F00F
:10046C005DF808BD0F4B1A6842F001021A6059681A
:10047C000D4A0A405A601A6822F0847222F48032C3
:10048C001A601A6822F480221A605A6822F4FE025A
:10049C005A604FF41F029A60044B4FF000629A604E
:1004AC00704700BF001002400000FFF800ED00E0B4
:1004BC0010B504460E4B18784FF47A73B3FBF0F377
:1004CC000C4A1068B0FBF3F000F0DEF968B90F2CA1
:1004DC0001D901200AE0002221464FF0FF3000F044
:1004EC009FF9034B5C60002000E0012010BD00BFB1
:1004FC00040000200000002008B5074A136843F0F0
:10050C0010031360032000F079F90020FFF7D0FFEF
:10051C00FFF74AFF002008BD00200240034A116883
:10052C00034B1B780B441360704700BF580000202E
:10053C0004000020014B1868704700BF58000020D1
:10054C0038B50446FFF7F6FF0546B4F1FF3F02D07D
:10055C00044B1B781C44FFF7EDFF401BA042FAD361
:10056C0038BD00BF0400002030B482B000230193DA
:10057C0090F82430012B00F08B800246012380F888
:10058C0024304B68062B29D80568686B03EB830372
:10059C00053B1F249C4020EA04000C6804FA03F37A
:1005AC0003436B630B68092B38D91568E86803EBB8
:1005BC0043031E3B07249C4020EA04008C6804FA89
:1005CC0003F30343EB600B68103B012B34D9002081
:1005DC00002382F8243002B030BC70470C2B0ED8AC
:1005EC000568286B03EB8303233B1F249C4020EA04
:1005FC0004000C6804FA03F303432B63D2E7056889
:10060C00E86A03EB8303413B1F249C4020EA04006F
:10061C000C6804FA03F30343EB62C3E7156828691B
:10062C0003EB430307249C4020EA04008C6804FA83
:10063C0003F303432B61C6E713681648834205D0C6
:10064C00936A43F0200393620120C1E7986810F489
:10065C00000F1BD1986840F4000098600B68102BB9
:10066C0001D00020B4E70C4B1B680C49A1FB031311
:10067C009B0C03EB83035900019102E0019B013BAE
:10068C000193019B002BF9D10020A1E700209FE7EB
:10069C000220A0E7002401400000002083DE1B4361
:1006AC0038B503689A6812F0010F01D1002038BDEB
:1006BC0004469A6822F001029A60FFF73BFF054658
:1006CC0023689B6813F0010F0ED0FFF733FF401B1C
:1006DC000228F5D9A36A43F01003A362E36A43F03E
:1006EC000103E3620120E2E70020E0E700287FD06D
:1006FC0038B50446836A002B33D02046FFF7D0FF71
:10070C00A36A13F010036DD100286BD1A26A22F4F6
:10071C00885222F0020242F00202A2626268E1698F
:10072C000A43E56842EA4502A168B1F5807F21D011
:10073C0001291CD0616901291FD02568696821F441
:10074C0069410B436B6021688D682A4B2B40134326
:10075C008B60A368B3F5807F20D0012B1ED00021C5
:10076C001FE0C36280F82430FFF740FEC5E74FF46A
:10077C008073DFE74FF48073DCE735B9A169013989
:10078C0043EA413343F40063D7E7A16A41F0200107
:10079C00A162E16A41F00101E162CEE72369013B0C
:1007AC0019052568EB6A23F470030B43EB6223688D
:1007BC009968114B0B409A420BD0A36A23F0120399
:1007CC0043F01003A362E36A43F00103E3620120E8
:1007DC000DE00023E362A36A23F0030343F001035B
:1007EC00A36204E0A36A43F01003A362012038BDA6
:1007FC0001207047FDF7E1FFFE0E1FFF074AD3688B
:10080C0023F4E0631B041B0C000200F4E0601843AB
:10081C0040F0BF6040F40030D060704700ED00E065
:10082C0030B4174BDB68C3F30223C3F10704042C69
:10083C0028BF04241D1D062D18D9033B4FF0FF358E
:10084C0005FA04F421EA0401994005FA03F322EABB
:10085C000303194300280BDB0901C9B200F1604006
:10086C0000F5614080F8001330BC70470023E5E7C9
:10087C0000F00F000901C9B2024B1954F4E700BF94
:10088C0000ED00E014ED00E00138B0F1807F0AD2F9
:10089C00064B5860064AF02182F82310002098601D
:1008AC0007221A6070470120704700BF10E000E07B
:1008BC0000ED00E0F0B482B000263546A1E0002C3B
:1008CC0059D0012C00D1CE68FF2B68D88446FF2B61
:1008DC0068D8AC00DCF800200F27A74022EA0702FA
:1008EC0006FA04F42243CCF800204A6812F0805F28
:1008FC0000F086805E4A946944F001049461926928
:10090C0002F001020192019AAC08A71C594A52F854
:10091C00272005F00307BF004FF00F0C0CFA07FC63
:10092C0022EA0C0C544A904242D002F5806290426A
:10093C007FD002F5806290427DD002F580629042B9
:10094C0034D0042235E04D4FBC4214D00BD94C4F5F
:10095C00BC4210D007F58037BC420CD0A7F58017ED
:10096C00BC42B1D107E0A7F58017BC4203D007F514
:10097C008037BC42A8D18C687CB1012C08D0426174
:10098C000826A1E7CE6808369EE7CE680C369BE7B2
:10099C000261082698E7002696E7042694E700F102
:1009AC00040C94E7A5F10804A40093E7032200E0EB
:1009BC000022BA4042EA0C0202342E4F47F824209F
:1009CC004A6812F4803F38D02E4C22681A432260B9
:1009DC004A6812F4003F36D02A4C62681A436260AF
:1009EC004A6812F4801F34D0264CA2681A43A260C5
:1009FC004A6812F4001F32D0224CE2681343E360C1
:100A0C0001350F2D31D80122AA400B6813409A42B0
:100A1C00F6D14C68122CB8D095D8022CB2D07FF6F7
:100A2C004EAF032CB7D0112C7FF44EAFCE680436EA
:100A3C004AE70122BDE70222BBE7124C226822EAF8
:100A4C0003022260C4E70F4C626822EA0302626070
:100A5C00C6E70C4CA26822EA0302A260C8E7094C64
:100A6C00E26822EA0303E360CAE702B0F0BC704715
:100A7C00001002400000014000080140000021105D
:100A8C00000031100004014012B9090401617047E3
:100A9C000161704782B0084B1B68084AA2FB032314
:100AAC005B0A00FB03F0019000BF019B5A1E0192F0
:100ABC00002BF9D102B0704700000020D34D62101A
:100ACC0070B582B00446036813F0010F2CD0AB4B09
:100ADC005B6803F00C03042B1DD0A84B5B6803F080
:100AEC000C03082B12D06368B3F5803F41D0002B68
:100AFC0055D103F1804303F504331A6822F4803294
:100B0C001A601A6822F480221A6037E09B4B5B68EB
:100B1C0013F4803FE7D0994B1B6813F4003F03D0CC
:100B2C006368002B00F0AE81236813F0020F76D0BF
:100B3C00924B5B6813F00C0F5FD0904B5B6803F02B
:100B4C000C03082B54D02369002B00F08A808C4BAB
:100B5C0001221A60FFF7EEFC0546884B1B6813F068
:100B6C00020F75D1FFF7E6FC401B0228F5D90320D4
:100B7C008BE1824A136843F480331360636843B398
:100B8C00FFF7D8FC05467D4B1B6813F4003FCBD117
:100B9C00FFF7D0FC401B6428F5D9032075E1B3F5B1
:100BAC00A02F09D0754B1A6822F480321A601A688B
:100BBC0022F480221A60E1E703F18043A3F53C3371
:100BCC001A6842F480221A601A6842F480321A6061
:100BDC00D4E7FFF7AFFC0546684B1B6813F4003FE6
:100BEC00A2D0FFF7A7FC401B6428F5D903204CE1E9
:100BFC00624B5B6813F4803FA5D1604B1B6813F00C
:100C0C00020F04D02369012B01D001203DE15B4A86
:100C1C00136823F0F803616943EAC1031360236886
:100C2C0013F0080F32D0A369002B5BD0554B012277
:100C3C001A60FFF77FFC0546504B5B6A13F0020FFE
:100C4C0021D1FFF777FC401B0228F5D903201CE1CA
:100C5C004A4A136823F0F803616943EAC10313603D
:100C6C00DDE7474B00221A60FFF764FC0546434B57
:100C7C001B6813F0020FD2D0FFF75CFC401B02285C
:100C8C00F5D9032001E10120FFF704FF236813F0DD
:100C9C00040F00F09780394BDB6913F0805F33D180
:100CAC00364BDA6942F08052DA61DB6903F080532B
:100CBC000193019B0125344B1B6813F4807F25D0D5
:100CCC00E368012B36D0002B4CD103F1804303F5A4
:100CDC0004331A6A22F001021A621A6A22F0040220
:100CEC001A622CE0274B00221A60FFF723FC054602
:100CFC00224B5B6A13F0020FC8D0FFF71BFC401BA2
:100D0C000228F5D90320C0E00025D4E71E4A136859
:100D1C0043F480731360FFF70DFC06461A4B1B68F7
:100D2C0013F4807FCCD1FFF705FC801B6428F5D928
:100D3C000320AAE0114A136A43F001031362E3682B
:100D4C0073B3FFF7F7FB06460C4B1B6A13F0020F4D
:100D5C0037D1FFF7EFFB801B41F288339842F3D970
:100D6C00032092E0052B11D0044B1A6A22F00102E9
:100D7C001A621A6A22F004021A62E0E700100240BA
:100D8C00000042428004424200700040414B1A6A0B
:100D9C0042F004021A621A6A42F001021A62CEE7A9
:100DAC00FFF7C8FB06463B4B1B6A13F0020F08D03B
:100DBC00FFF7C0FB801B41F288339842F3D9032024
:100DCC0063E0E5B9E369002B5ED0324A526802F069
:100DDC000C02082A5BD0022B17D02F4B00221A6072
:100DEC00FFF7A8FB04462B4B1B6813F0007F47D082
:100DFC00FFF7A0FB001B0228F5D9032045E0254A8C
:100E0C00D36923F08053D361DCE7234B00221A60B3
:100E1C00FFF790FB05461F4B1B6813F0007F06D0B5
:100E2C00FFF788FB401B0228F5D903202DE0236A2D
:100E3C00B3F5803F1AD017494B6823F47413226A18
:100E4C00606A024313434B60134B01221A60FFF795
:100E5C0071FB04460F4B1B6813F0007F0ED1FFF79C
:100E6C0069FB001B0228F5D903200EE0094A5368E0
:100E7C0023F40033A1680B435360DCE7002004E04B
:100E8C00002002E0012000E0002002B070BD012033
:100E9C00FBE700BF001002406000424210B487B074
:100EAC00164C94E80F000DF1180C0CE90F00238A76
:100EBC00ADF80430124B5B6803F00C02082A1AD10F
:100ECC00C3F38342624412F8102C13F4803F05D113
:100EDC000C4800FB02F007B010BC7047084B5B6875
:100EEC00C3F34043634413F8143C074800FB02F07F
:100EFC00B0FBF3F0EFE70448EDE700BF4012000849
:100F0C000010024000093D0000127A00624B1B6881
:100F1C0003F007038B420CD25F4A136823F00703DC
:100F2C000B431360136803F007038B4201D00120BD
:100F3C00704770B5036813F0020F17D013F0040F4D
:100F4C0004D0564A536843F4E0635360036813F0CB
:100F5C00080F04D0514A536843F4605353604F4A0E
:100F6C00536823F0F0038468234353600D46044612
:100F7C00036813F0010F52D04368012B23D0022BCE
:100F8C0028D0464A126812F0020F00F082804349C2
:100F9C004A6822F0030213434B60FFF7CBFA064674
:100FAC006368012B1DD0022B2AD03C4B5B6813F0DD
:100FBC000C0F34D0FFF7BEFA801B41F288339842F5
:100FCC00F3D9032064E0354A126812F4003FDED1F5
:100FDC0001205DE0314A126812F0007FD7D1012068
:100FEC0056E02E4B5B6803F00C03042B17D0FFF775
:100FFC00A1FA801B41F288339842F2D9032047E0D2
:10100C00264B5B6803F00C03082B08D0FFF792FA11
:10101C00801B41F288339842F2D9032038E01E4BF2
:10102C001B6803F00703AB420CD91B4A136823F06F
:10103C0007032B431360136803F00703AB4201D083
:10104C00012025E0236813F0040F06D0134A5368DF
:10105C0023F4E063E1680B435360236813F0080F3B
:10106C0007D00E4A536823F46053216943EAC10345
:10107C005360FFF713FF094B5B68C3F30313084A74
:10108C00D35CD840074B18600020FFF711FA002002
:10109C0070BD0120FCE700BF0020024000100240A0
:1010AC00281200080000002070B582B004460368C6
:1010BC0013F0010F34D03E4BDB6913F0805F48D145
:1010CC003B4BDA6942F08052DA61DB6903F0805302
:1010DC000193019B0125374B1B6813F4807F3AD099
:1010EC00334B1B6A13F4407311D0626802F44072E4
:1010FC009A420CD02E4A136A23F440702E490126D2
:10110C000E6000260E60106213F0010F37D1284AD2
:10111C00136A23F4407361680B431362002D3FD1B3
:10112C00236813F0020F06D0214A536823F440437E
:10113C00A1680B435360236813F0100F35D01C4A81
:10114C00536823F48003E1680B435360002002B022
:10115C0070BD0025BFE7174A136843F48073136012
:10116C00FFF7E8F90646134B1B6813F4807FB7D1E1
:10117C00FFF7E0F9801B6428F5D90320E7E7FFF7B8
:10118C00D9F906460A4B1B6A13F0020FBFD1FFF7C1
:10119C00D1F9801B41F288339842F3D90320D6E76A
:1011AC00D36923F08053D361BAE70020CFE700BFA7
:1011BC0000100240007000404004424270B500250F
:1011CC000C4E0D4CA41BA410A54209D100F01AF82A
:1011DC0000250A4E0A4CA41BA410A54205D170BDD3
:1011EC0056F8253098470135EEE756F825309847E4
:1011FC000135F2E75412000854120008541200088A
:10120C0058120008F8B500BFF8BC08BC9E467047E1
:0C121C00F8B500BFF8BC08BC9E46704747
:10122800000000000000000001020304060708098E
:101238000000000001020304020304050607080970
:0C1248000A0B0C0D0E0F1010010200002C
:04125400310100085C
:041258000D0100087C
:0C125C0000A24A04010000001000000085
:040000050800014DA1
:00000001FF
