:020000040800F2
:1000000000500020E93A0008813A0008833A0008CD
:10001000853A0008873A0008893A00080000000085
:100020000000000000000000000000003130000867
:100030008B3A000800000000D1300008153100089C
:10004000313B0008313B0008313B0008313B0008E0
:10005000313B0008313B0008313B0008313B0008D0
:10006000313B0008313B0008313B0008313B0008C0
:10007000313B0008313B0008313B0008313B0008B0
:10008000313B0008313B0008313B0008313B0008A0
:10009000313B0008313B0008313B0008313B000890
:1000A000313B00088D3A0008313B0008313B000825
:1000B000313B0008313B0008313B0008313B000870
:1000C000313B0008313B0008313B0008313B000860
:1000D000313B0008313B0008313B0008313B000850
:1000E000313B0008313B0008313B000800000000B4
:1000F0000000000000000000000000000000000000
:0C01000000000000000000005FF808F1A3
:1001100010B5054C237833B9044B13B10448AFF341
:1001200000800123237010BDE001002000000000CA
:10013000345C000808B5034B1BB103490348AFF317
:10014000008008BD00000000E4010020345C0008CD
:1001500081F0004102E000BF83F0004330B54FEA78
:1001600041044FEA430594EA050F08BF90EA020FE5
:100170001FBF54EA000C55EA020C7FEA645C7FEA78
:10018000655C00F0E2804FEA5454D4EB5555B8BF9B
:100190006D420CDD2C4480EA020281EA030382EA0C
:1001A000000083EA010180EA020281EA0303362D9E
:1001B00088BF30BD11F0004F4FEA01314FF4801C71
:1001C0004CEA113102D0404261EB410113F0004F83
:1001D0004FEA03334CEA133302D0524263EB43033A
:1001E00094EA050F00F0A780A4F10104D5F1200ED8
:1001F0000DDB02FA0EFC22FA05F2801841F1000133
:1002000003FA0EF2801843FA05F359410EE0A5F106
:1002100020050EF1200E012A03FA0EFC28BF4CF037
:10022000020C43FA05F3C01851EBE37101F00045ED
:1002300007D54FF0000EDCF1000C7EEB00006EEBFA
:100240000101B1F5801F1BD3B1F5001F0CD3490884
:100250005FEA30004FEA3C0C04F101044FEA4452DB
:1002600012F5800F80F09A80BCF1004F08BF5FEA62
:10027000500C50F1000041EB045141EA050130BD42
:100280005FEA4C0C404141EB010111F4801FA4F1E5
:100290000104E9D191F0000F04BF01460020B1FA3A
:1002A00081F308BF2033A3F10B03B3F120020CDA72
:1002B0000C3208DD02F1140CC2F10C0201FA0CF050
:1002C00021FA02F10CE002F11402D8BFC2F1200CB5
:1002D00001FA02F120FA0CFCDCBF41EA0C0190406B
:1002E000E41AA2BF01EB0451294330BD6FEA0404B4
:1002F0001F3C1CDA0C340EDC04F11404C4F120029F
:1003000020FA04F001FA02F340EA030021FA04F3B0
:1003100045EA030130BDC4F10C04C4F1200220FA07
:1003200002F001FA04F340EA0300294630BD21FA45
:1003300004F0294630BD94F0000F83F4801306BF0B
:1003400081F480110134013D4EE77FEA645C18BFFF
:100350007FEA655C29D094EA050F08BF90EA020F96
:1003600005D054EA000C04BF1946104630BD91EA8E
:10037000030F1EBF0021002030BD5FEA545C05D191
:100380004000494128BF41F0004130BD14F58004D0
:100390003CBF01F5801130BD01F0004545F0FE4144
:1003A00041F470014FF0000030BD7FEA645C1ABF79
:1003B000194610467FEA655C1CBF0B46024650EAB0
:1003C000013406BF52EA033591EA030F41F40021DC
:1003D00030BD00BF90F0000F04BF0021704730B562
:1003E0004FF4806404F132044FF000054FF0000137
:1003F00050E700BF90F0000F04BF0021704730B5F8
:100400004FF4806404F1320410F0004548BF4042CC
:100410004FF000013EE700BF42004FEAE2014FEA21
:1004200031014FEA02701FBF12F07F4393F07F4FFC
:1004300081F06051704732F07F4208BF704793F0FF
:100440007F4F04BF41F40021704730B54FF4607412
:1004500001F0004521F000411CE700BF50EA010215
:1004600008BF704730B54FF000050AE050EA0102BE
:1004700008BF704730B511F0004502D5404261EB2E
:1004800041014FF4806404F132045FEA915C3FF46F
:10049000D8AE4FF003025FEADC0C18BF03325FEA0C
:1004A000DC0C18BF033202EBDC02C2F1200300FABD
:1004B00003FC20FA02F001FA03FE40EA0E0021FAE2
:1004C00002F11444BDE600BF70B54FF0FF0C4CF4D0
:1004D000E06C1CEA11541DBF1CEA135594EA0C0F82
:1004E00095EA0C0F00F0DEF82C4481EA030621EABD
:1004F0004C5123EA4C5350EA013518BF52EA0335F8
:1005000041F4801143F4801338D0A0FB02CE4FF0A9
:100510000005E1FB02E506F00042E0FB03E54FF0D9
:100520000006E1FB03569CF0000F18BF4EF0010ED1
:10053000A4F1FF04B6F5007F64F5407404D25FEACD
:100540004E0E6D4146EB060642EAC62141EA555180
:100550004FEAC52040EA5E504FEACE2EB4F1FD0CC2
:1005600088BFBCF5E06F1ED8BEF1004F08BF5FEA40
:10057000500E50F1000041EB045170BD06F00046F2
:1005800046EA010140EA020081EA0301B4EB5C049F
:10059000C2BFD4EB0C0541EA045170BD41F4801197
:1005A0004FF0000E013C00F3AB8014F1360FDEBFBC
:1005B000002001F0004170BDC4F10004203C35DA98
:1005C0000C341BDC04F11404C4F1200500FA05F31B
:1005D00020FA04F001FA05F240EA020001F00042BC
:1005E00021F0004110EBD37021FA04F642EB060132
:1005F0005EEA430E08BF20EAD37070BDC4F10C045C
:10060000C4F1200500FA04F320FA05F001FA04F21F
:1006100040EA020001F0004110EBD37041F100010B
:100620005EEA430E08BF20EAD37070BDC4F1200516
:1006300000FA05F24EEA020E20FA04F301FA05F27E
:1006400043EA020321FA04F001F0004121FA04F226
:1006500020EA020000EBD3705EEA430E08BF20EAF6
:10066000D37070BD94F0000F0FD101F00046400030
:1006700041EB010111F4801F08BF013CF7D041EAB2
:10068000060195F0000F18BF704703F000465200B6
:1006900043EB030313F4801F08BF013DF7D043EA87
:1006A0000603704794EA0C0F0CEA135518BF95EA3D
:1006B0000C0F0CD050EA410618BF52EA4306D1D1C4
:1006C00081EA030101F000414FF0000070BD50EAE3
:1006D000410606BF1046194652EA430619D094EA6D
:1006E0000C0F02D150EA013613D195EA0C0F05D157
:1006F00052EA03361CBF104619460AD181EA0301AB
:1007000001F0004141F0FE4141F470014FF0000062
:1007100070BD41F0FE4141F4780170BD70B54FF0FD
:10072000FF0C4CF4E06C1CEA11541DBF1CEA13557D
:1007300094EA0C0F95EA0C0F00F0A7F8A4EB05045F
:1007400081EA030E52EA03354FEA013100F0888056
:100750004FEA03334FF0805545EA131343EA12631F
:100760004FEA022245EA111545EA10654FEA0026D4
:100770000EF000419D4208BF964244F1FD0404F58D
:10078000407402D25B084FEA3202B61A65EB0305E9
:100790005B084FEA32024FF480104FF4002CB6EBA6
:1007A000020E75EB030E22BFB61A754640EA0C0026
:1007B0005B084FEA3202B6EB020E75EB030E22BF66
:1007C000B61A754640EA5C005B084FEA3202B6EBA7
:1007D000020E75EB030E22BFB61A754640EA9C0066
:1007E0005B084FEA3202B6EB020E75EB030E22BF36
:1007F000B61A754640EADC0055EA060E18D04FEAF4
:10080000051545EA16754FEA06164FEAC30343EA93
:1008100052734FEAC2025FEA1C1CC0D111F4801F60
:100820000BD141EA00014FF000004FF0004CB6E759
:1008300011F4801F04BF01430020B4F1FD0C88BFF8
:10084000BCF5E06F3FF6AFAEB5EB030C04BFB6EB03
:10085000020C5FEA500C50F1000041EB045170BDF6
:100860000EF0004E4EEA113114EB5C04C2BFD4EB23
:100870000C0541EA045170BD41F480114FF0000EA7
:10088000013C90E645EA060E8DE60CEA135594EA23
:100890000C0F08BF95EA0C0F3FF43BAF94EA0C0F26
:1008A0000AD150EA01347FF434AF95EA0C0F7FF49B
:1008B00025AF104619462CE795EA0C0F06D152EAEF
:1008C00003353FF4FDAE1046194622E750EA4106D3
:1008D00018BF52EA43067FF4C5AE50EA41047FF4E4
:1008E0000DAF52EA43057FF4EBAE12E74FEA410247
:1008F000B2F1E04324BFB3F5001CDCF1FE5C0DD97E
:1009000001F0004C4FEAC0024CEA5070B2F1004FC7
:1009100040EB830008BF20F00100704711F0804FCA
:1009200021D113F13872BCBF01F00040704741F48F
:1009300080114FEA5252C2F11802C2F1200C10FA93
:100940000CF320FA02F018BF40F001004FEAC12377
:100950004FEAD32303FA0CFC40EA0C0023FA02F31B
:100960004FEA4303CCE77FEA625307D150EA0133F1
:100970001EBF4FF0FE4040F44000704701F00040C1
:1009800040F0FE4040F40000704700BF80F000409F
:1009900002E000BF81F0004142001FBF5FEA410357
:1009A00092EA030F7FEA226C7FEA236C6AD04FEA57
:1009B0001262D2EB1363C1BFD2184140484041409C
:1009C000B8BF5B42192B88BF704710F0004F40F44E
:1009D000000020F07F4018BF404211F0004F41F46A
:1009E000000121F07F4118BF494292EA030F3FD036
:1009F000A2F1010241FA03FC10EB0C00C3F1200349
:100A000001FA03F100F0004302D5494260EB4000D7
:100A1000B0F5000F13D3B0F1807F06D340084FEA42
:100A2000310102F10102FE2A51D2B1F1004F40EB37
:100A3000C25008BF20F0010040EA0300704749009F
:100A400040EB000010F4000FA2F10102EDD1B0FA6A
:100A500080FCACF1080CB2EB0C0200FA0CF0AABF5F
:100A600000EBC25052421843BCBFD04018437047FD
:100A700092F0000F81F4000106BF80F40000013203
:100A8000013BB5E74FEA41037FEA226C18BF7FEADA
:100A9000236C21D092EA030F04D092F0000F08BF1C
:100AA0000846704790EA010F1CBF0020704712F003
:100AB0007F4F04D1400028BF40F00040704712F142
:100AC00000723CBF00F50000704700F0004343F0A7
:100AD000FE4040F4000070477FEA226216BF0846DD
:100AE0007FEA23630146420206BF5FEA412390EAA0
:100AF000010F40F4800070474FF0000304E000BF96
:100B000010F0004348BF40425FEA000C08BF704746
:100B100043F0964301464FF000001CE050EA01020A
:100B200008BF70474FF000030AE000BF50EA01021F
:100B300008BF704711F0004302D5404261EB41010C
:100B40005FEA010C02BF84460146002043F0B64331
:100B500008BFA3F18053A3F50003BCFA8CF2083A56
:100B6000A3EBC25310DB01FA02FC634400FA02FC5F
:100B7000C2F12002BCF1004F20FA02F243EB020066
:100B800008BF20F00100704702F1200201FA02FCC8
:100B9000C2F1200250EA4C0021FA02F243EB0200BB
:100BA00008BF20EADC7070474FF0FF0C1CEAD052FF
:100BB0001EBF1CEAD15392EA0C0F93EA0C0F6FD0C0
:100BC0001A4480EA010C400218BF5FEA41211ED09E
:100BD0004FF0006343EA501043EA5111A0FB01318A
:100BE0000CF00040B1F5000F3EBF490041EAD3715F
:100BF0005B0040EA010062F17F02FD2A1DD8B3F1DB
:100C0000004F40EBC25008BF20F00100704790F049
:100C1000000F0CF0004C08BF49024CEA502040EA9B
:100C200051207F3AC2BFD2F1FF0340EAC250704761
:100C300040F400004FF00003013A5DDC12F1190F9F
:100C4000DCBF00F000407047C2F10002410021FA11
:100C500002F1C2F1200200FA02FC5FEA310040F129
:100C6000000053EA4C0308BF20EADC70704792F0A2
:100C7000000F00F0004C02BF400010F4000F013ADA
:100C8000F9D040EA0C0093F0000F01F0004C02BFD5
:100C9000490011F4000F013BF9D041EA0C018FE744
:100CA0000CEAD15392EA0C0F18BF93EA0C0F0AD04A
:100CB00030F0004C18BF31F0004CD8D180EA010070
:100CC00000F00040704790F0000F17BF90F0004F09
:100CD000084691F0000F91F0004F14D092EA0C0FEB
:100CE00001D142020FD193EA0C0F03D14B0218BF7E
:100CF000084608D180EA010000F0004040F0FE40C4
:100D000040F40000704740F0FE4040F4400070475F
:100D10004FF0FF0C1CEAD0521EBF1CEAD15392EADE
:100D20000C0F93EA0C0F69D0A2EB030280EA010CCE
:100D300049024FEA402037D04FF0805343EA111167
:100D400043EA10130CF000408B4238BF5B0042F1C5
:100D50007D024FF4000C8B4224BF5B1A40EA0C006A
:100D6000B3EB510F24BFA3EB510340EA5C00B3EB9C
:100D7000910F24BFA3EB910340EA9C00B3EBD10F8A
:100D800024BFA3EBD10340EADC001B0118BF5FEADC
:100D90001C1CE0D1FD2A3FF650AF8B4240EBC25005
:100DA00008BF20F0010070470CF0004C4CEA5020C6
:100DB0007F32C2BFD2F1FF0340EAC250704740F415
:100DC00000004FF00003013A37E792F0000F00F007
:100DD000004C02BF400010F4000F013AF9D040EA85
:100DE0000C0093F0000F01F0004C02BF490011F419
:100DF000000F013BF9D041EA0C0195E70CEAD15311
:100E000092EA0C0F08D142027FF47DAF93EA0C0FF7
:100E10007FF470AF084676E793EA0C0F04D14B02DB
:100E20003FF44CAF08466EE730F0004C18BF31F08D
:100E3000004CCAD130F000427FF45CAF31F0004387
:100E40007FF43CAF5FE700BF4FF0FF3C06E000BF20
:100E50004FF0010C02E000BF4FF0010C4DF804CD43
:100E60004FEA40024FEA41037FEA226C18BF7FEA53
:100E7000236C11D001B052EA530C18BF90EA010F55
:100E800058BFB2EB030088BFC81738BF6FEAE170E4
:100E900018BF40F0010070477FEA226C02D15FEA80
:100EA000402C05D17FEA236CE4D15FEA412CE1D0EC
:100EB0005DF8040B704700BF844608466146FFE7B3
:100EC0000FB5FFF7C9FF002848BF10F1000F0FBD95
:100ED0004DF808EDFFF7F4FF0CBF012000205DF88E
:100EE00008FB00BF4DF808EDFFF7EAFF34BF012013
:100EF00000205DF808FB00BF4DF808EDFFF7E0FFAC
:100F000094BF012000205DF808FB00BF4DF808EDFC
:100F1000FFF7D2FF94BF012000205DF808FB00BF5F
:100F20004DF808EDFFF7C8FF34BF012000205DF841
:100F300008FB00BF4FEA4002B2F1FE4F0FD34FF063
:100F40009E03B3EB12620DD94FEA002343F0004336
:100F500010F0004F23FA02F018BF404270474FF0E4
:100F60000000704712F1610F01D1420205D110F06B
:100F7000004008BF6FF0004070474FF0000070471E
:100F8000034613F8012B002AFBD1181A01387047C9
:100F90004FF0FF3C06E000BF4FF0010C02E000BF45
:100FA0004FF0010C4DF804CD4FEA410C7FEA6C5C28
:100FB0004FEA430C18BF7FEA6C5C1BD001B050EACB
:100FC000410C0CBF52EA430C91EA030F02BF90EAB6
:100FD000020F0020704710F1000F91EA030F58BF75
:100FE000994208BF90422CBFD8176FEAE37040F0D7
:100FF000010070474FEA410C7FEA6C5C02D150EA75
:10100000013C07D14FEA430C7FEA6C5CD6D152EA2F
:10101000033CD3D05DF8040B704700BF84461046F4
:1010200062468C461946634600E000BF01B5FFF7F3
:10103000B7FF002848BF10F1000F01BD4DF808EDC3
:10104000FFF7F4FF0CBF012000205DF808FB00BF94
:101050004DF808EDFFF7EAFF34BF012000205DF8EE
:1010600008FB00BF4DF808EDFFF7E0FF94BF01203B
:1010700000205DF808FB00BF4DF808EDFFF7CEFF3C
:1010800094BF012000205DF808FB00BF4DF808ED7B
:10109000FFF7C4FF34BF012000205DF808FB00BF4C
:1010A0004FEA410C7FEA6C5C02D150EA013C0AD164
:1010B0004FEA430C7FEA6C5C02D152EA033C02D156
:1010C0004FF0000070474FF0010070474FEA4102B7
:1010D00012F5001215D211D56FF47873B3EB62528A
:1010E00012D94FEAC12343F0004343EA505311F0B1
:1010F000004F23FA02F018BF404270474FF0000043
:10110000704750EA013005D111F0004008BF6FF080
:10111000004070474FF00000704700BF08B5074A15
:10112000136843F010031360032000F02FF8002031
:1011300002F06AFC02F08EFB002008BD0020024095
:10114000034A1168034B1B780B441360704700BFC0
:101150003C03002000000020014B1868704700BFCE
:101160003C03002038B50446FFF7F6FF0546B4F10E
:10117000FF3F02D0044B1B781C44FFF7EDFF401BE0
:10118000A042FAD338BD00BF00000020074AD36850
:1011900023F4E0631B041B0C000200F4E06018431E
:1011A00040F0BF6040F40030D060704700ED00E0D8
:1011B00030B4174BDB68C3F30223C3F10704042CDC
:1011C00028BF04241D1D062D18D9033B4FF0FF3501
:1011D00005FA04F421EA0401994005FA03F322EA2E
:1011E0000303194300280BDB0901C9B200F1604079
:1011F00000F5614080F8001330BC70470023E5E73C
:1012000000F00F000901C9B2024B1954F4E700BF06
:1012100000ED00E014ED00E000F01F0240090123A2
:101220009340024A42F82030704700BF00E100E0DE
:10123000F0B482B000263546A1E0002C59D0012C34
:1012400000D1CE68FF2B68D88446FF2B68D8AC004D
:10125000DCF800200F27A74022EA070206FA04F470
:101260002243CCF800204A6812F0805F00F08680AC
:101270005E4A946944F001049461926902F00102AB
:101280000192019AAC08A71C594A52F8272005F090
:101290000307BF004FF00F0C0CFA07FC22EA0C0CFE
:1012A000544A904242D002F5806290427FD002F5CB
:1012B000806290427DD002F58062904234D0042258
:1012C00035E04D4FBC4214D00BD94C4FBC4210D02E
:1012D00007F58037BC420CD0A7F58017BC42B1D1CE
:1012E00007E0A7F58017BC4203D007F58037BC4262
:1012F000A8D18C687CB1012C08D042610826A1E7F6
:10130000CE6808369EE7CE680C369BE70261082659
:1013100098E7002696E7042694E700F1040C94E78A
:10132000A5F10804A40093E7032200E00022BA40DC
:1013300042EA0C0202342E4F47F824204A6812F485
:10134000803F38D02E4C22681A4322604A6812F43B
:10135000003F36D02A4C62681A4362604A6812F431
:10136000801F34D0264CA2681A43A2604A6812F447
:10137000001F32D0224CE2681343E36001350F2D89
:1013800031D80122AA400B6813409A42F6D14C682A
:10139000122CB8D095D8022CB2D07FF64EAF032CC9
:1013A000B7D0112C7FF44EAFCE6804364AE7012245
:1013B000BDE70222BBE7124C226822EA0302226048
:1013C000C4E70F4C626822EA03026260C6E70C4C75
:1013D000A26822EA0302A260C8E7094CE26822EA96
:1013E0000303E360CAE702B0F0BC7047001002409C
:1013F00000000140000801400000211000003110F1
:101400000004014012B9090401617047016170478D
:1014100082B0084B1B68084AA2FB03235B0A00FB4F
:1014200003F0019000BF019B5A1E0192002BF9D1DD
:1014300002B070470C000020D34D621070B582B02E
:101440000446036813F0010F2CD0AB4B5B6803F02C
:101450000C03042B1DD0A84B5B6803F00C03082B76
:1014600012D06368B3F5803F41D0002B55D103F112
:10147000804303F504331A6822F480321A601A6834
:1014800022F480221A6037E09B4B5B6813F4803FA4
:10149000E7D0994B1B6813F4003F03D06368002B1F
:1014A00000F0AE81236813F0020F76D0924B5B6898
:1014B00013F00C0F5FD0904B5B6803F00C03082B0C
:1014C00054D02369002B00F08A808C4B01221A60D3
:1014D000FFF742FE0546884B1B6813F0020F75D1DB
:1014E000FFF73AFE401B0228F5D903208BE1824A20
:1014F000136843F480331360636843B3FFF72CFE33
:1015000005467D4B1B6813F4003FCBD1FFF724FE4B
:10151000401B6428F5D9032075E1B3F5A02F09D04D
:10152000754B1A6822F480321A601A6822F48022FD
:101530001A60E1E703F18043A3F53C331A6842F4F3
:1015400080221A601A6842F480321A60D4E7FFF7EA
:1015500003FE0546684B1B6813F4003FA2D0FFF75B
:10156000FBFD401B6428F5D903204CE1624B5B680E
:1015700013F4803FA5D1604B1B6813F0020F04D019
:101580002369012B01D001203DE15B4A136823F060
:10159000F803616943EAC1031360236813F0080F7D
:1015A00032D0A369002B5BD0554B01221A60FFF7A4
:1015B000D3FD0546504B5B6A13F0020F21D1FFF7B4
:1015C000CBFD401B0228F5D903201CE14A4A1368D1
:1015D00023F0F803616943EAC1031360DDE7474B79
:1015E00000221A60FFF7B8FD0546434B1B6813F055
:1015F000020FD2D0FFF7B0FD401B0228F5D903201F
:1016000001E10120FFF704FF236813F0040F00F04D
:101610009780394BDB6913F0805F33D1364BDA6941
:1016200042F08052DA61DB6903F080530193019B41
:101630000125344B1B6813F4807F25D0E368012B10
:1016400036D0002B4CD103F1804303F504331A6AE2
:1016500022F001021A621A6A22F004021A622CE0D5
:10166000274B00221A60FFF777FD0546224B5B6A85
:1016700013F0020FC8D0FFF76FFD401B0228F5D909
:101680000320C0E00025D4E71E4A136843F48073AA
:101690001360FFF761FD06461A4B1B6813F4807F49
:1016A000CCD1FFF759FD801B6428F5D90320AAE0AF
:1016B000114A136A43F001031362E36873B3FFF73F
:1016C0004BFD06460C4B1B6A13F0020F37D1FFF798
:1016D00043FD801B41F288339842F3D9032092E006
:1016E000052B11D0044B1A6A22F001021A621A6A01
:1016F00022F004021A62E0E70010024000004242B9
:101700008004424200700040414B1A6A42F00402D9
:101710001A621A6A42F001021A62CEE7FFF71CFD54
:1017200006463B4B1B6A13F0020F08D0FFF714FD6F
:10173000801B41F288339842F3D9032063E0E5B976
:10174000E369002B5ED0324A526802F00C02082A8C
:101750005BD0022B17D02F4B00221A60FFF7FCFC46
:1017600004462B4B1B6813F0007F47D0FFF7F4FCB7
:10177000001B0228F5D9032045E0254AD36923F050
:101780008053D361DCE7234B00221A60FFF7E4FCAF
:1017900005461F4B1B6813F0007F06D0FFF7DCFCEB
:1017A000401B0228F5D903202DE0236AB3F5803FC2
:1017B0001AD017494B6823F47413226A606A0243F3
:1017C00013434B60134B01221A60FFF7C5FC04461C
:1017D0000F4B1B6813F0007F0ED1FFF7BDFC001B01
:1017E0000228F5D903200EE0094A536823F4003398
:1017F000A1680B435360DCE7002004E0002002E016
:10180000012000E0002002B070BD0120FBE700BF16
:10181000001002406000424210B487B0164C94E8B9
:101820000F000DF1180C0CE90F00238AADF80430FD
:10183000124B5B6803F00C02082A1AD1C3F38342EF
:10184000624412F8102C13F4803F05D10C4800FBC1
:1018500002F007B010BC7047084B5B68C3F340430D
:10186000634413F8143C074800FB02F0B0FBF3F0AC
:10187000EFE70448EDE700BF505C000800100240AD
:1018800000093D0000127A00624B1B6803F0070359
:101890008B420CD25F4A136823F007030B4313609B
:1018A000136803F007038B4201D00120704770B525
:1018B000036813F0020F17D013F0040F04D0564A38
:1018C000536843F4E0635360036813F0080F04D0D7
:1018D000514A536843F4605353604F4A536823F0AE
:1018E000F0038468234353600D460446036813F0F5
:1018F000010F52D04368012B23D0022B28D0464A37
:10190000126812F0020F00F0828043494A6822F008
:10191000030213434B60FFF71FFC06466368012B6D
:101920001DD0022B2AD03C4B5B6813F00C0F34D037
:10193000FFF712FC801B41F288339842F3D9032051
:1019400064E0354A126812F4003FDED101205DE008
:10195000314A126812F0007FD7D1012056E02E4B99
:101960005B6803F00C03042B17D0FFF7F5FB801B1B
:1019700041F288339842F2D9032047E0264B5B6856
:1019800003F00C03082B08D0FFF7E6FB801B41F2A5
:1019900088339842F2D9032038E01E4B1B6803F0CD
:1019A0000703AB420CD91B4A136823F007032B43F0
:1019B0001360136803F00703AB4201D0012025E058
:1019C000236813F0040F06D0134A536823F4E0632E
:1019D000E1680B435360236813F0080F07D00E4AE9
:1019E000536823F46053216943EAC1035360FFF74E
:1019F00013FF094B5B68C3F30313084AD35CD84059
:101A0000074B1860002001F0FFFF002070BD01208F
:101A1000FCE700BF0020024000100240A05C00086C
:101A20000C000020014B1868704700BF0C0000201C
:101A300008B5FFF7F7FF044B5B68C3F30223034AC3
:101A4000D35CD84008BD00BF00100240B05C000865
:101A500008B5FFF7E7FF044B5B68C3F3C223034AF3
:101A6000D35CD84008BD00BF00100240B05C000845
:101A70000F2303600B4B5A6802F0030242605A685E
:101A800002F0F00282605A6802F4E062C2605B68B1
:101A9000DB0803F4E0630361034B1B6803F00703F7
:101AA0000B6070470010024000200240F8B5054668
:101AB0000F4616461C463BE02CB1FFF74DFB069B3C
:101AC000C01AA04234D32A68536823F0E00353605D
:101AD0006B68B3F5827F0BD0AB6AB3F5005F14D0AF
:101AE000012385F85130002385F85030032027E08A
:101AF000AB68B3F5004F02D0B3F5806FECD12A6824
:101B0000136823F040031360E6E72A68136823F4A0
:101B100000531B041B0C13602A68136843F4005322
:101B20001360DDE70123B34209D0B4F1FF3FC3D115
:101B30002B689B6837EA0303F4D00023F3E7002007
:101B4000F8BD10B582B0044600920B4600228021F9
:101B5000FFF7ACFF034610B9184602B010BD636D25
:101B600043F0200363650323F6E72DE9F04385B0D6
:101B700099460C9D90F85030012B00F010810446DE
:101B80000F461646012380F85030FFF7E5FA8046ED
:101B900094F85130DBB26268012B15D0B2F5827F28
:101BA0000AD00223012284F85120002284F8502018
:101BB000184605B0BDE8F083A268002A40F0E7802F
:101BC000042B01D00223EDE7002F00F0E280002E6D
:101BD00000F0E180B9F1000F00F0DF8094F851309F
:101BE000DBB2012B2BD000236365A663A4F83E90E3
:101BF000A4F83C902763A4F83690A4F834902364AA
:101C0000636423681A6812F0400F03D11A6842F027
:101C100040021A60E368B3F5006F14D063681BB12B
:101C2000E38E9BB2012B07D1236817F8012B1A739F
:101C3000E38E013B9BB2E3864FF0010961E005238F
:101C400084F85130CFE763681BB1E38E9BB2012B60
:101C500007D1236837F8022BDA60E38E013B9BB291
:101C6000E3864FF0010913E0E38F9BB26BB1236869
:101C70009A6812F0010F08D0DB6826F8023BE38F68
:101C8000013B9BB2E3874FF00109B5F1FF3F1CD147
:101C9000E38E9BB21BB9E38F9BB2002B55D0B9F1F9
:101CA000000FE1D0E38E9BB2002BDDD023689A6851
:101CB00012F0020FD8D037F8022BDA60E38E013B26
:101CC0009BB2E3864FF00009CEE7FFF745FAA0EBA1
:101CD0000800A842DCD3032364E7E38F9BB26BB117
:101CE00023689A6812F0010F08D0DB683370E38F25
:101CF000013B9BB2E38701364FF00109B5F1FF3F8D
:101D00001BD1E38E9BB213B9E38F9BB2EBB1B9F158
:101D1000000FE2D0E38E9BB2002BDED023689A68DE
:101D200012F0020FD9D03A781A73E38E013B9BB2BE
:101D3000E38601374FF00009CFE7FFF70DFAA0EB7C
:101D40000800A842DDD303232CE7CDF800802B4602
:101D5000012202212046FFF7A9FE08B1032321E753
:101D6000424629462046FFF7ECFE034618B12023E1
:101D70006365012316E7A268002A7FF413AF03927C
:101D80002268D168039192680392039A0AE70223BA
:101D900008E7012306E7012304E7012302E7022302
:101DA00006E700283CD010B504460023836290F873
:101DB0005130002B31D0022384F85130226813684F
:101DC00023F0400313606368A2681343E26813437F
:101DD0002269134362691343A26902F40072134338
:101DE000E2691343226A1343A16A22680B4313601A
:101DF000638B03F00403616A22680B43536023681A
:101E0000E26A1A612268D36923F40063D361002077
:101E10006065012384F8513010BD01F045FDCAE72B
:101E20000120704770B4036A23F001030362036A60
:101E30004268846924F073040D6845EA040623F0BF
:101E400002048B6823430D4DA84209D00B4DA842D4
:101E50000DD0426086614A684263036270BC70477D
:101E600023F00803CC68234323F00403EEE722F4B5
:101E700040724C6914438A692243EAE7002C01400E
:101E800030B4036A23F480730362036A4268C4694E
:101E900024F073040D682C4323F400738D6843EA27
:101EA00005230F4DA84209D00D4DA8420ED0426027
:101EB000C4614A68C263036230BC704723F40063A4
:101EC000CD6843EA052323F48063EDE722F4405212
:101ED0004D6942EA05128D6942EA0512E7E700BF43
:101EE000002C014030B4036A23F480530362036A78
:101EF0004468C26922F4E6420D6842EA052223F4EE
:101F000000538D6843EA0533074DA84206D044606C
:101F1000C2614A680264036230BC704724F48044A2
:101F20004D6944EA8514F2E7002C014010B4036ABD
:101F3000046A24F001040462846924F0F00444EA91
:101F4000021223F00A030B438261036210BC704744
:101F500010B4036A23F0100303628469036A24F453
:101F6000704444EA023223F0A00343EA0113826181
:101F7000036210BC7047836823F0700341F00701CF
:101F800019438160704710B4846824F47F4442EAA6
:101F900003230B432343836010BC70470268D3685C
:101FA00043F00103D3600268136843F00103136038
:101FB00000207047704790F83C30012B7DD010B561
:101FC0000446012380F83C30022380F83D3002684B
:101FD000936823F47F4323F0770393600B68402BCF
:101FE00057D010D9702B3ED01FD8502B47D0602B24
:101FF00032D1CA6849680068FFF7AAFF60212068EB
:10200000FFF7B9FF28E0102B4DD008D9202B4FD077
:10201000302B21D130210068FFF7ADFF1CE0DBB988
:1020200000210068FFF7A7FF16E0B3F5805F0ED030
:10203000B3F5005F10D1CB684A6889680068FFF784
:10204000A2FF2268936843F48043936004E002682F
:10205000936823F007039360012384F83D30002048
:1020600084F83C0010BDCB684A6889680068FFF7B7
:102070008AFF2268936843F077039360ECE7CA68AD
:1020800049680068FFF752FF50212068FFF773FF8F
:10209000E2E7CA6849680068FFF748FF4021206806
:1020A000FFF769FFD8E710210068FFF764FFD3E767
:1020B00020210068FFF75FFFCEE7022070477047DE
:1020C00070477047704710B5044603681A6912F0EC
:1020D000020F11D0DA6812F0020F0DD06FF0020279
:1020E0001A610123037703689B6913F0030F70D013
:1020F000FFF7E6FF0023237723681A6912F0040F25
:1021000012D0DA6812F0040F0ED06FF004021A61D8
:102110000223237723689B6913F4407F5FD0204616
:10212000FFF7CEFF0023237723681A6912F0080F08
:1021300012D0DA6812F0080F0ED06FF008021A61A0
:10214000042323772368DB6913F0030F4ED0204666
:10215000FFF7B6FF0023237723681A6912F0100FE8
:1021600012D0DA6812F0100F0ED06FF010021A6160
:10217000082323772368DB6913F4407F3DD0204692
:10218000FFF79EFF0023237723681A6912F0010FDF
:1021900003D0DA6812F0010F36D123681A6912F001
:1021A000800F03D0DA6812F0800F34D123681A69E7
:1021B00012F0400F03D0DA6812F0400F32D12368DA
:1021C0001A6912F0200F03D0DA6812F0200F30D114
:1021D00010BDFFF774FF2046FFF773FF8AE7204624
:1021E000FFF76DFF2046FFF76CFF9BE72046FFF7E8
:1021F00066FF2046FFF765FFACE72046FFF75FFF6D
:102200002046FFF75EFFBDE76FF001021A6120462E
:1022100001F014FBC1E76FF080021A61204600F064
:102220006BF9C3E76FF040021A612046FFF74AFFDF
:10223000C5E76FF020021A61204600F05CF9C7E79D
:1022400003681B4A90420AD0B0F1804F07D0A2F534
:102250009432904203D002F58062904203D123F081
:1022600070034A681343124A90420AD0B0F1804F7B
:1022700007D0A2F59432904203D002F580629042DA
:1022800003D123F44073CA68134323F080034A69DF
:10229000134303608B68C3620B688362044B9842EC
:1022A00002D00123436170470B690363F9E700BF64
:1022B000002C0140A8B110B5044690F83D305BB148
:1022C000022384F83D30211D2068FFF7B9FF012368
:1022D00084F83D30002010BD80F83C3001F020FB38
:1022E000EEE701207047A8B110B5044690F83D30E4
:1022F0005BB1022384F83D30211D2068FFF7A0FF69
:10230000012384F83D30002010BD80F83C30FFF7F9
:1023100051FEEEE70120704730B4036A23F010034A
:102320000362036A4468826922F4E6420D6842EA65
:10233000052223F020038D6843EA05130E4DA842C1
:1023400009D00D4DA8420ED0446082614A68826374
:10235000036230BC704723F08003CD6843EA051365
:1023600023F04003EDE724F440644D6944EA85041A
:102370008D6944EA8504E7E7002C014038B590F800
:102380003C30012B66D00D460446012380F83C30DA
:10239000022380F83D300C2A1AD8DFE802F0071932
:1023A0001919201919193419191947000068FFF76C
:1023B00039FD2268936943F00803936122689369A9
:1023C00023F0040393612268936929690B439361A5
:1023D000012384F83D30002084F83C0038BD0068BB
:1023E000FFF79AFF2268936943F4006393612268C0
:1023F000936923F48063936122689369296943EAAE
:1024000001239361E4E70068FFF73AFD2268D3698E
:1024100043F00803D3612268D36923F00403D36136
:102420002268D36929690B43D361D1E70068FFF7BC
:1024300059FD2268D36943F40063D3612268D369EC
:1024400023F48063D3612268D369296943EA0123B5
:10245000D361BDE70220C1E710B4012303FA01F400
:10246000036A23EA04030362036A8A401343036294
:1024700010BC704710B5044601220068FFF7ECFF5E
:102480002368074A934206D02268136843F0010389
:102490001360002010BD5A6C42F400425A64F3E706
:1024A000002C014090F83C30012B22D030B40122A6
:1024B00080F83C20022380F83D300468636823F0F4
:1024C00070036360046863680D682B43636004688D
:1024D000A36823F08003A3600468A36849680B43E2
:1024E000A36080F83D20002380F83C30184630BCC3
:1024F0007047022070477047704700002DE9F8438D
:1025000005460268136923F44053C1680B43136105
:10251000836802691343426913430168CA6822F45D
:10252000B05222F00C021343CB600268536923F4CB
:10253000407381690B4353610268594B9A4257D0EB
:10254000FFF776FA00EB800000EB80006C68A400D7
:10255000B0FBF4F4534FA7FB043464092601FFF7E2
:1025600067FA00EB800000EB80006C68A400B0FB11
:10257000F4F9FFF75DFA00EB800000EB80006C6877
:10258000A400B0FBF4F4A7FB043464094FF0640822
:1025900008FB149424013234A7FB0434640904F0CA
:1025A000F0043444FFF744FA00EB800000EB8000B5
:1025B0006E68B600B0FBF6F6FFF73AFA00EB800063
:1025C00000EB80006B689B00B0FBF3F0A7FB0030D2
:1025D000400908FB10684FEA081808F13208A7FB09
:1025E0000837C7F343172B6827449F60BDE8F8837B
:1025F000FFF72EFA00EB800000EB80006C68A4006F
:10260000B0FBF4F4274FA7FB043464092601FFF75D
:102610001FFA00EB800000EB80006C68A400B0FBA8
:10262000F4F9FFF715FA00EB800000EB80006C680E
:10263000A400B0FBF4F4A7FB043464094FF0640871
:1026400008FB149424013234A7FB0434640904F019
:10265000F0043444FFF7FCF900EB800000EB80004D
:102660006E68B600B0FBF6F6FFF7F2F900EB8000FB
:1026700000EB80006B689B00B0FBF3F0A7FB003021
:10268000400908FB10684FEA081808F13208A7FB58
:102690000837C7F343172B6827449F60A6E700BF9E
:1026A000003801401F85EB512DE9F04105460F46EA
:1026B00016469846069C2B681B6837EA03030CBF36
:1026C00001230023B3421DD1B4F1FF3FF3D02CB15D
:1026D000FEF742FDA0EB0800A042ECD92A68D368BF
:1026E00023F4D073D3602A68536923F00103536144
:1026F000202385F8393085F83A30002385F83830C2
:10270000032000E00020BDE8F08158B310B5044676
:1027100090F839300BB3242384F839302268D36819
:1027200023F40053D3602046FFF7E8FE22681369C4
:1027300023F4904313612268536923F02A03536101
:102740002268D36843F40053D3600020E063202361
:1027500084F8393084F83A3010BD80F8383001F010
:1027600017F9D8E7012070472DE9F04182B01E46E5
:1027700090F83930DBB2202B55D104460D469046F7
:10278000002955D0002A55D090F83830012B53D06D
:10279000012380F838300023C363212380F83930C7
:1027A000FEF7DAFC0746A4F82480A4F8268010E09F
:1027B00000963B46002280212046FFF775FF002847
:1027C0003CD12B882268C3F3080353602369C3B943
:1027D0000235E38C9BB2B3B1E38C013B9BB2E38443
:1027E000A368B3F5805FE3D000963B4600228021CA
:1027F0002046FFF759FF18BB2A7823685A60013535
:10280000E7E70135E5E700963B46002240212046F8
:10281000FFF74AFF0346A8B9202284F83920002296
:1028200084F8382000E00223184602B0BDE8F081A9
:102830000123F9E70123F7E70223F5E70323F3E791
:102840000323F1E70323EFE7842801D00330704727
:102850000020704708B500F0C1F9002008BDF0B5B0
:1028600085B00F46446805680669B0F90800FFF7AF
:10287000EBFF03AB019300903B46B2B229462046E2
:1028800000F07AF9012802D1039805B0F0BD0020CC
:10289000FBE708B5034600B90123184600F0E0FA4B
:1028A000002008BD00F1080343604FF0FF32826052
:1028B000C360036100230360704700230361704716
:1028C00043684B609A688A609A68516099600861B1
:1028D000036801330360704730B40D68B5F1FF3F02
:1028E00002D000F1080202E0026904E01A465368CF
:1028F0001C68AC42FAD953684B6099608A60516099
:10290000086103680133036030BC704703694268A3
:10291000816891608268416851605A68824205D03E
:1029200000220261186801381860704782685A6096
:10293000F6E70000074B9B6A1B6833B1054B9A6AA8
:10294000D268D2685268DA627047024B4FF0FF32A9
:10295000DA627047FC01002010B50446006B00F0FD
:1029600059FC204600F056FC10BD2DE9F04780468A
:102970009946089D099F0A9C266B02F18042013A04
:1029800006EB820626F0070600230F2B07D8C85C4B
:10299000E21882F83400CA5C0AB10133F5E700237B
:1029A00084F84330062D00D90625E56265644FF0B2
:1029B000000AC4F848A0201DFFF77FFF04F11800AB
:1029C000FFF77BFF2461C5F10705A5616462C4F8C8
:1029D0004CA084F850A04A464146304600F016FB11
:1029E000206007B13C60BDE8F087000070B50024AE
:1029F00007E004EB8402930010481844FFF752FFED
:102A00000134062CF5D90E4C04F1BC063046FFF714
:102A100049FF04F1D0052846FFF744FF04F11400F4
:102A2000FFF740FF04F1E400FFF73CFF2046FFF70B
:102A300039FFA662C4F8F85070BD00BF2C02002018
:102A4000FC01002038B5054600F004FB264BD3F806
:102A5000FC200132C3F8FC20D3F8003173B1224BC3
:102A6000D3F804318BB9204BD3F80031DA6AEB6A22
:102A70009A420AD81C4BC3F8005106E01A4BC3F81F
:102A80000051D3F8FC30012B2AD0174CD4F8083170
:102A90000133C4F80831EB6A01229A40D4F80C11D2
:102AA0000A43C4F80C2104F1300003EB83039A00BD
:102AB000291D1044FFF704FF00F0EEFAD4F80431AA
:102AC0006BB1D4F80031DA6AEB6A9A4207D2074B4D
:102AD0004FF080521A60BFF34F8FBFF36F8F38BD36
:102AE000FFF784FFD1E700BFFC01002004ED00E008
:102AF00070B504460E461F4BD3F81051D3F80001B1
:102B00000430FFF703FF60B91A4BD3F80021D16AF4
:102B1000012202FA01F1D3F80C2122EA0102C3F8E2
:102B20000C21B4F1FF3F12D02C44124BD3F80031EA
:102B30005C60A54214D80F4DA86AD5F80011043185
:102B4000FFF7CAFEEB6AA34212D9EC6210E0002E36
:102B5000EAD00848D0F800110431FFF7B1FE07E0D1
:102B6000044BD3F8F800D3F800110431FFF7B4FE9A
:102B700070BD00BFFC0100202DE9F04385B0074681
:102B8000884615469946900000F038FBF8B1064695
:102B9000542000F033FB0446A8B10663D4B10023EF
:102BA000039302940D9B01930C9B00934B462A4682
:102BB00041463846FFF7D9FE2046FFF743FF012084
:102BC00005B0BDE8F083304600F024FBE6E74FF0A7
:102BD000FF30F5E74FF0FF30F2E7000000B583B0BB
:102BE000174B019300230093802216491648FFF7E4
:102BF000C3FF012805D0B0F1FF3F17D003B05DF847
:102C000004FB4FF0500383F31188BFF36F8FBFF3C2
:102C10004F8F0E4B4FF0FF32DA620122C3F80421CE
:102C20000022C3F8102100F0A1FAE7E74FF05003AB
:102C300083F31188BFF36F8FBFF34F8FFEE700BFA1
:102C400018030020B85C0008012F0008FC010020D8
:102C5000034AD2F818310133C2F81831704700BF67
:102C6000FC0100202DE9F041404BD3F81831002B36
:102C70006CD13E4BD3F810510135C3F81051CDB98A
:102C80009B6A1B6843B14FF0500383F31188BFF375
:102C90006F8FBFF34F8FFEE7344B9A6AD3F8F8106B
:102CA0009962C3F8F820D3F820210132C3F820211B
:102CB000FFF740FE2D4BDB6AAB423DD900242B4A87
:102CC000D2F80031DB6A03EB830399000A44136BEB
:102CD000012B42D9012440E00124244B9B6A1B684C
:102CE00063B3224B9B6ADB68DE6873689D422AD31C
:102CF00006F104084046FFF709FEB36A1BB106F16E
:102D00001800FFF703FEF36A01229A40174FD7F825
:102D10000C110A43C7F80C2107F1300003EB8303C1
:102D20009A0041461044FFF7CBFDF26AD7F8003114
:102D3000DB6A9A42D0D2D0E70024CEE70B4B4FF0AB
:102D4000FF32DA62BBE7094AD362B8E7074AD2F832
:102D500024310133C2F824310024044BD3F8283144
:102D600003B101242046BDE8F08100BFFC01002032
:102D7000394BD3F8183143B94FF0500383F311881E
:102D8000BFF36F8FBFF34F8FFEE770B500F062F9AE
:102D9000314BD3F81821013AC3F81821D3F8183170
:102DA000002B54D12C4BD3F8FC3023B9002400F075
:102DB00073F9204670BD0024274B5B692BB3264D69
:102DC0002B6ADC6804F11800FFF7A0FD261D3046D1
:102DD000FFF79CFDE36A01229A40D5F80C110A43E3
:102DE000C5F80C2105F1300003EB83039A0031464E
:102DF0001044FFF765FDE26AD5F80031DB6A9A42BC
:102E0000DAD30122C5F82821D6E70CB1FFF792FDED
:102E1000114BD3F8244164B1FFF724FF18B10E4BD6
:102E20000122C3F82821013CF6D10B4B0022C3F844
:102E30002421094BD3F828315BB1084B4FF0805265
:102E40001A60BFF34F8FBFF36F8F0124AFE70024E9
:102E5000ADE70024ABE700BFFC01002004ED00E07B
:102E600010B5B0B104460F4BD3F8183143B14FF051
:102E7000500383F31188BFF36F8FBFF34F8FFEE7CB
:102E8000FFF7E6FE00212046FFF732FEFFF770FF56
:102E900038B9054B4FF080521A60BFF34F8FBFF324
:102EA0006F8F10BDFC01002004ED00E038B5134B1E
:102EB000D3F814310BB3FFF7CBFE104BD3F8E4403B
:102EC000FFF756FF002CF2D000F0C4F80B4CD4F8FA
:102ED000F030DD68281DFFF719FDD4F8FC30013B08
:102EE000C4F8FC30D4F81431013BC4F8143100F0BC
:102EF000D3F82846FFF730FDD9E738BDFC010020A4
:102F000008B5FFF7D3FF064B1B6B012BF9D9054B17
:102F10004FF080521A60BFF34F8FBFF36F8FF0E70F
:102F2000FC01002004ED00E0224BD3F8183123B15E
:102F3000204B0122C3F8282170471E4A0023C2F803
:102F40002831D2F80C31B3FA83F3DBB2C3F11F039B
:102F500003EB830081000A44126B42B94FF0500327
:102F600083F31188BFF36F8FBFF34F8FFEE710B469
:102F7000104A9900CC18A0001044446B6468446364
:102F80003032194488000830024494420AD009497A
:102F900003EB83039A000A44536BDB68C1F80031EA
:102FA00010BC704761680348142202FB030251639E
:102FB000EDE700BFFC0100200B4B1B68B3F1FF3FA6
:102FC00008D04FF0500383F31188BFF36F8FBFF326
:102FD0004F8FFEE74FF0500383F31188BFF36F8FDD
:102FE000BFF34F8FFEE700BF0800002006480068CF
:102FF000006880F3088862B661B6BFF34F8FBFF3F5
:103000006F8F00DF00BF000008ED00E04FF080731D
:1030100040F8043C21F0010140F8081C034B40F843
:103020000C3C40F8202C4038704700BFB92F0008F6
:10303000074B19680868B0E8F00F80F30988BFF300
:103040006F8F4FF0000080F311884EF00D0E704727
:10305000FC0200204FF0500383F31188BFF36F8F01
:10306000BFF34F8F0A4A136801331360012B00D05E
:103070007047084B1B6813F0FF0FF9D04FF0500357
:1030800083F31188BFF36F8FBFF34F8FFEE700BF4D
:103090000800002004ED00E0094B1B6843B94FF025
:1030A000500383F31188BFF36F8FBFF34F8FFEE799
:1030B000013B034A13600BB983F31188704700BFCB
:1030C00008000020000000000000000000000000D8
:1030D000EFF30980BFF36F8F0D4B1A6820E9F00FF3
:1030E00010602DE908404FF0500080F31188FFF781
:1030F0001BFF4FF0000080F31188BDE808401968FD
:103100000868B0E8F00F80F30988BFF36F8F70474D
:10311000FC02002008B54FF0500383F31188BFF381
:103120006F8FBFF34F8FFFF79DFD18B1034B4FF02B
:1031300080521A60002383F3118808BD04ED00E07B
:10314000064B1B68064AA2FB03239B09013B054A69
:103150001360054B07221A60704700BF0C00002067
:10316000D34D621014E000E010E000E000B583B041
:103170001E4B1A78D2B20192FF221A701B78DBB272
:103180008DF803309DF8033003F05003184A137094
:103190000723536009E0164A5368013B53609DF8CA
:1031A00003305B00DBB28DF803309DF8033013F081
:1031B000800FF0D10E4A53681B0203F4E0635360A2
:1031C000019BDBB2094A13700A4B1A6842F4700281
:1031D0001A601A6842F070421A60FFF7B1FF064B9E
:1031E00000221A60FFF702FFFFF7E6FE00E400E0AE
:1031F0002803002020ED00E00800002010B5044660
:10320000FFF726FD204600F0B9FC0446FFF7B0FDAD
:10321000204610BD48B110B50446FFF719FD204601
:1032200000F0B4FCFFF7A4FD10BD704730B587B0C7
:103230008DF80F000D4C00224FF480512046FEF710
:10324000E1F80125009502230DF117020DF10F01A0
:103250000748FEF78AFC2A464FF480512046FEF7C5
:10326000D1F89DF8170007B030BD00BF000C014039
:103270004403002030B587B08DF80F000D4C0022BC
:103280004FF480512046FEF7BDF80125009502233A
:103290000DF117020DF10F010748FEF766FC2A46F3
:1032A0004FF480512046FEF7ADF89DF8170007B0A7
:1032B00030BD00BF000C01404403002010B50122C6
:1032C0004FF480510848FEF79DF86420FDF74AFF4F
:1032D000002406E00020FFF7A9FFFA20FDF742FFD7
:1032E0000134022CF6DD10BD000C014038B5702011
:1032F000FFF79CFF05461420FDF734FF002407E08C
:103300000020FFF793FF05461420FDF72BFF013443
:10331000802D01D0092CF3DD802D04D0044800F06D
:103320006BF8002038BD034800F066F80120F9E78B
:10333000D45C0008C05C000838B505461020FFF7D3
:1033400075FF0520FDF70EFF0020FFF76FFF044615
:103350000520FDF707FF06E00020FFF767FF0446A2
:103360000520FDF7FFFE102CF6D10020FFF782FFAD
:1033700084B22402A4B20520FDF7F4FE0020FFF77A
:1033800079FF80B204430520FDF7ECFE4FF4B470E2
:1033900000FB04F0FDF72EF80022094BFDF794F82E
:1033A00002460B4600200749FCF7D6FEFDF79EFAC1
:1033B00028600549FDF78CFD08B100232B6038BD5E
:1033C0000000303F008076400000B44370B50546F1
:1033D0000E461446FDF7AEFD3060FDF791FB014649
:1033E0002846FDF7D7FA0349FDF7DEFBFDF7A2FDFE
:1033F000206070BD0000C84200B58FB00246084989
:1034000001A801F0E5F801A8FDF7BAFD1E2382B27C
:1034100001A90448FFF7A8F90FB05DF804FB00BF4D
:10342000F45C0008B403002030B59FB004460846A1
:10343000154603AA04A9FFF7C9FF039B092B12DD58
:1034400001950093049B22460B4905A801F0C0F8A2
:1034500005A8FDF795FD462382B205A90748FFF7A9
:1034600083F91FB030BD01950093049B22460449A7
:1034700005A801F0ADF8EBE7205D0008B4030020DB
:10348000FC5C000808B504210148FEF7F3FF08BD05
:10349000FC030020632802D84FF0804398637047F4
:1034A000F0B589B000240494059406940794204B49
:1034B0009A6942F020029A619A6902F02002019210
:1034C000019A9A6942F004029A619A6902F0040230
:1034D0000292029A9A6942F008029A619B6903F08B
:1034E00008030393039B134F2246C0213846FDF780
:1034F00089FF114E22464FF480513046FDF782FF7E
:10350000C02304930125059506940223079304A97B
:103510003846FDF78DFE4FF48053049305950695CC
:103520000323079304A93046FDF782FE09B0F0BDDE
:103530000010024000080140000C014008B5084896
:10354000084B03604FF4E133436000238360C360A2
:1035500003610C2242618361C361FFF7D6F808BDA5
:10356000B40300200038014030B58FB000240A9425
:103570000B940C940D940894099401940294039470
:103580000494059406940794164D4FF080432B60E5
:1035900009236B60AC606323EB602C61AC6128464F
:1035A000FEF788FE4FF480530A930AA92846FEF7D7
:1035B00002FD2846FEF797FE0894099408A92846BC
:1035C000FEF770FF60230193029403940594042294
:1035D0000DEB02012846FEF7D1FE284600F0B4F9B3
:1035E0000FB030BDFC03002008B50C480C4B036045
:1035F0004FF48273436000238360C36003614361BF
:103600004FF4007282612822C261036243628362C6
:103610000A23C362FEF7C5FB08BD00BF44030020B8
:103620000038004008B5084B1D68084B1C68084B63
:103630001868FDF77FFC2A462146FFF7F5FE642057
:10364000FFF727F9EFE700BFAC030020B00300202D
:103650009C0300200000000070B51B4B00221A6084
:103660001A4C2046FFF768FE2268194B1A6006E0E4
:1036700004F10044174B1C606420FFF70AF9124C58
:10368000134D2B682360114E3046FFF755FE30680E
:1036900028602168FDF77EF9FCF7BEFE08A3D3E998
:1036A0000023FDF73BF8FDF721F904460021FDF763
:1036B00019FC0028DCD1074B1C60DDE7AFF300806C
:1036C0009A9999999999B93FA00300209C030020E9
:1036D00040030020B003002008B5FFF7D3FE10E040
:1036E000164B00221A60164B00221A60144B186801
:1036F000144B1860FDF71EFCFFF7CCFE6420FFF7AB
:10370000C8F8114B1C6811492046FDF7EBFB18B1B6
:103710000A4B1B68012BE3D00D492046FDF700FC46
:103720000028E3D0054B1B68002BDFD1034B01229F
:103730001A60034B074A1A60D8E700BFAC030020A9
:10374000F8030020A4030020B00300200000704212
:103750000000A0420000A04130B591B000240894C0
:1037600009940B940C94019402940394049405948A
:10377000012206924FF4803307930A9202250D9599
:103780000E934FF4E0130F9306A8FDF757FE0F2397
:103790000193029503944FF48063049305942946A2
:1037A00001A8FEF771F811B030BD000080B590B0EF
:1037B000FDF7B4FCFFF7D0FFFFF772FEFFF7BEFE88
:1037C000FFF7D2FEFFF710FFFFF778FDFFF78EFD42
:1037D0000027154B1F60154C0BAD26460FCE0FC5AD
:1037E00033682B6039460BA8FFF739F8104B186087
:1037F00006AD04F114060FCE0FC533682B603946B1
:1038000006A8FFF72CF80B4B186001AD28340FCC3D
:103810000FC523682B60394601A8FFF720F8064B37
:103820001860FFF717F8FEE7AC030020645C00089F
:10383000F4030020A80300203C04002008B502681F
:10384000034B9A4200D008BDFDF77AFCFBE700BFAE
:10385000002C014000B583B0114B9A6942F001027F
:103860009A619A6902F001020092009ADA6942F0C4
:103870008052DA61DB6903F080530193019B0022DF
:103880000F216FF00100FDF793FC064A536823F007
:10389000E06343F00073536003B05DF804FB00BFC6
:1038A000001002400000014010B586B000230293D2
:1038B0000393049305930268174B9A4201D006B014
:1038C00010BD03F5EC33DA6942F48042DA61DA695B
:1038D00002F480420092009A9A6942F008029A61CA
:1038E0009B6903F008030193019B4FF4204302936B
:1038F0000223039303230593084C02A92046FDF7F6
:1039000097FC4FF48043029300230393049302A98E
:103910002046FDF78DFCD2E700380040000C014046
:103920000368B3F1804F00D0704782B003F50433D1
:10393000DA6942F00102DA61DB6903F00103019305
:10394000019B02B07047000000B587B000230293CE
:103950000393049305930368B3F1804F02D007B03B
:103960005DF804FB03F504339A6942F004029A619E
:103970009B6903F004030193019B022302930393C9
:10398000059302A90148FDF753FCE8E70008014050
:1039900010B586B000230293039304930593026845
:1039A000174B9A4201D006B010BD03F558439A69EF
:1039B00042F480429A619A6902F480420092009A2D
:1039C0009A6942F004029A619B6903F0040301932F
:1039D000019B4FF400730293022303930323059387
:1039E000084C02A92046FDF723FC4FF480630293A4
:1039F00000230393049302A92046FDF719FCD2E7A4
:103A0000003801400008014000B589B0002201469D
:103A10001920FDF7CDFB1920FDF7FEFB144B9A6929
:103A200042F400629A619B6903F400630193019B75
:103A300002A903A8FEF71CF8FEF70AF80D4BA3FB3A
:103A400000239B0C013B0C480C4A026040F2E73219
:103A5000C2604360002303618360FEF72BFC18B152
:103A6000012009B05DF804FB0348FEF797FAF8E778
:103A70000010024083DE1B4340040020002C014064
:103A80007047FEE7FEE7FEE7FEE7704708B502482D
:103A9000FEF719FB08BD00BF400400200F4B1A6859
:103AA00042F001021A6059680D4A0A405A601A68C9
:103AB00022F0847222F480321A601A6822F4802282
:103AC0001A605A6822F4FE025A604FF41F029A608C
:103AD000044B4FF000629A60704700BF0010024034
:103AE0000000FFF800ED00E0002103E00B4B5B5805
:103AF000435004310A480B4B42189A42F6D30A4A03
:103B000002E0002342F8043B084B9A42F9D3FFF746
:103B1000C5FF00F00FF8FFF749FE7047D85F0008B7
:103B200000000020E0010020E001002084040020CB
:103B3000FEE7000070B500250C4E0D4CA41BA41030
:103B4000A54209D102F076F800250A4E0A4CA41BC2
:103B5000A410A54205D170BD56F82530984701350F
:103B6000EEE756F8253098470135F2E7D05F0008B8
:103B7000D05F0008D05F0008D45F0008024B014608
:103B8000186800F06BB800BF10000020024B01461F
:103B9000186800F017B800BF1000002010B5431ED1
:103BA0000A44914200D110BD11F8014B03F8014FB6
:103BB000F7E703460244934200D1704703F8011B24
:103BC000F9E7000038B50546002943D051F8043C18
:103BD0000C1F002BB8BFE41801F07AFB1E4A1368D3
:103BE000104633B9636014602846BDE8384001F0E0
:103BF00070BBA3420BD921686218934201BF1A68B7
:103C00005B685218226063600460EDE713465A68EF
:103C10000AB1A242FAD919685818A0420BD12068FB
:103C20000144581882421960DED11068526801447C
:103C300019605A60D8E702D90C232B60D4E72068BA
:103C400021188A4201BF1168526809182160626018
:103C50005C60C9E738BD00BF3003002070B5CD1CE3
:103C600025F0030508350C2D38BF0C25002D064620
:103C700001DBA94203D90C233360002070BD01F0A1
:103C800027FB214A1468214691B9204C23681BB9AF
:103C9000304600F08DFC20602946304600F088FC5C
:103CA000431C24D10C233046336001F012FBE4E7BF
:103CB0000B685B1B18D40B2B0FD90B60CC18CD50A5
:103CC000304601F006FB04F10B00231D20F0070035
:103CD000C31AD3D05A42E250D0E74B688C4216BF89
:103CE000636013600C46EBE70C464968CCE7C41CE4
:103CF00024F00304A04205D0211A304600F058FCFD
:103D00000130CFD02560DBE73003002034030020F2
:103D1000002B2DE9F0471E46BBBF03F100431E46B2
:103D200000232D2388B0149FDDE9121A27F0200705
:103D3000462F1446109D0B7004D0452F00D101353D
:103D4000022300E0032307AA049206AACDE902A2F7
:103D5000CDE900352246334600F0EAFC472F804685
:103D600002D1119BDB0726D5462F08EB050911D19F
:103D700098F80030302B0AD100220023204631462B
:103D8000FDF75CF918B9C5F10105CAF80050DAF879
:103D9000003099440022002320463146FDF74EF9B9
:103DA00038B93022079B4B4505D2591C07911A7030
:103DB000F8E7CDF81C904046079B159AA3EB080343
:103DC000136008B0BDE8F087F7B50029B4BF2D2314
:103DD0002B230446B8BF4942092904F8022B43703B
:103DE00021DD0DF107031F460A2691FBF6F506FBC0
:103DF0001511092D01F1300103F8011C03F1FF3207
:103E0000294609DC3031023B02F8011CBB42224644
:103E100004D3101A03B0F0BD1346E6E713F8012BE4
:103E200004F8012BF2E7302319448370021DC1709E
:103E3000EFE700002DE9F04F91B00C461A9F934632
:103E40001E46054601F028FA036818460993FDF757
:103E500097F800230E933B680A90073323F007037B
:103E600003F1080294F81880D4F800A03A60D3E96E
:103E70000023C4E91223D4E9127929F000430B93FB
:103E80004FF0FF32A64B38460B99FDF709F968BB96
:103E90004FF0FF32A24B38460B99FDF7E3F828BBF1
:103EA0000022002338464946FDF7D2F810B12D23F1
:103EB00084F843309B4F9C4BB8F1470F98BF1F4687
:103EC00003234FF0000923612AF0040323600096C6
:103ED0005B460FAA2146284600F0E2F9013040F087
:103EE00090804FF0FF3011B0BDE8F08F3A464B465E
:103EF00038464946FDF7D4F810B18C4F8C4BDBE7C0
:103F000063684AF48062591C0DA80EA940D10623AB
:103F100063604FF0000C0DF13303CDE901236368BA
:103F20002260CDE9030800933A464B46CDE9051CD3
:103F30002846FFF7EDFE08F0DF03472B074609D1BF
:103F40000D9BD81C02DB6268934247DDA8F1020892
:103F50005FFA88F8B8F1650F0D9924D80139424607
:103F600004F150000D91FFF72FFF0E9A81461318B0
:103F7000012A236102DC2268D10701D501332361C4
:103F80009DF83330002BA2D02D2384F843309EE7D8
:103F9000B8F1670F00F06E81B8F1470FB9D1002B6F
:103FA000B7D10123B4E7B8F1660F19D100296368CE
:103FB0000CDD216113B92268D20702D501330B440D
:103FC00023610D9B4FF00009A365D9E713B922685F
:103FD000D00701D50233F3E70123F1E74FF067087B
:103FE000DDE90D32934205DB22682361D107E8D574
:103FF0000133E5E7002BCCBF0123C3F102031344D7
:10400000DEE723685A0507D423693A46594628460D
:10401000B047013029D164E7B8F1650F40F2D7808D
:10402000D4E9120100220023FDF708F888B3012328
:10403000404A59462846B04701303FF452AFDDE9C7
:104040000D239A4202DB2368D8070ED5DDE9092348
:1040500059462846B04701303FF443AF002704F1EA
:104060001A080E9B013BBB4209DC23689F0700F145
:10407000FD80E0680F9B9842B8BF184633E70123E4
:10408000424659462846B04701303FF42AAF01372F
:10409000E7E70D9B002B2BDC0123264A59462846D7
:1040A000B04701303FF41DAF0D9B23B90E9B13B9F0
:1040B0002368D907D9D5DDE9092359462846B047F1
:1040C00001303FF40EAF4FF0000804F11A090D9BC8
:1040D0005B42434501DC0E9B97E701234A46594664
:1040E0002846B04701303FF4FCAE08F10108EEE786
:1040F0000E9AA36D9A42A8BF1A46002A904607DD81
:10410000134659463A462846B04701303FF4E9AED7
:1041100004F11A034FF0000A28EAE8780B9315E03F
:10412000FFFFEF7F745D0008705D00087C5D000894
:10413000785D0008805D000801230B9A59462846E7
:10414000B04701303FF4CDAE0AF1010AD4F85890DF
:10415000A9EB08035345EFDCDDE90D239A424F44F8
:1041600014DB2368DA0711D40E9B0D99A3EB090227
:10417000A3EB01099145A8BF9146B9F1000F0DDCF1
:10418000002729EAE97904F11A0818E0DDE9092392
:1041900059462846B0470130E6D1A2E64B463A469A
:1041A00059462846B0470130EAD19AE601234246F3
:1041B00059462846B04701303FF493AE0137DDE958
:1041C0000D239B1AA3EB0903BB42EFDC4DE70E9ACC
:1041D000012A01DCDB0738D501233A465946284637
:1041E000B04701303FF47DAEDDE90923594628464A
:1041F000B047013007F101073FF473AED4E9120173
:104200000E9B002203F1FF380023FCF717FFC0B913
:1042100043463A4659462846B04701300DD160E63C
:104220000123424659462846B04701303FF459AE73
:1042300001370E9B013BBB42F2DC4B4604F15002BE
:10424000E4E6002704F11A08F3E70123E1E701237C
:10425000424659462846B04701303FF442AE013746
:10426000E3680F9A9B1ABB42F1DC02E7002704F1D6
:104270001908F5E7002B3FF494AE4FF0000CCDE9A0
:10428000051C0DF133012260CDE90308CDE90121C0
:1042900000933A464B462846FFF73AFD07464FE65D
:1042A0002DE9F04791461F468A680B6906469342FE
:1042B000B8BF1346C9F8003091F843200C46DDF82A
:1042C000208012B10133C9F800302368990642BF3B
:1042D000D9F800300233C9F80030256815F006051A
:1042E00007D104F1190AE368D9F800209B1AAB4200
:1042F00029DC94F843302268003318BF012392066A
:104300002ED404F1430239463046C047013021D053
:104310002368E56803F00603042B18BF0025D9F8CD
:1043200000204FF0000908BFAD1AA368226908BF3A
:1043300025EAE5759342C4BF9B1AED181A344D4522
:104340001AD1002008E00123524639463046C047C2
:10435000013003D14FF0FF30BDE8F0870135C2E7EF
:104360003020E11881F843005A1C94F8451022448B
:10437000023382F84310C4E701232246394630460F
:10438000C0470130E6D009F10109D8E72DE9F04333
:1043900001F1430C0C46097E85B06E29174606468E
:1043A00098460C9A00F0B38022D8632936D00AD8F8
:1043B000002900F0B980582900F0838004F14205FB
:1043C00084F8421032E0642901D06929F6D12068CE
:1043D0001368050603F104012AD51B681160002B40
:1043E00003DA2D225B4284F843206F480A2239E029
:1043F000732900F09D8008D86F2920D07029DDD165
:10440000236843F02003236003E0752917D078293F
:10441000D4D17823654884F8453055E0136804F119
:104420004205191D1B68116084F8423001238CE09D
:104430001B6810F0400F116018BF1BB2CFE7136864
:104440002568181D1060280601D51B6802E0680663
:10445000FBD51B886F2914BF0A220822524800216D
:1044600084F843106568002DA560C0F2958021682E
:1044700021F004012160002B3DD1002D40F08E8001
:104480006546082A0BD12368DB0708D523696268D3
:104490009A42DEBF302305F8013C05F1FF35ACEB55
:1044A00005032361CDF800803B4603AA2146304630
:1044B000FFF7F6FE01304DD14FF0FF3005B0BDE8FB
:1044C000F083394884F84510136821681D1D1B6866
:1044D00015600A060BD5CA0744BF41F020012160D0
:1044E0001BB9226822F0200222601022B7E74D0695
:1044F00048BF9BB2EFE76546B3FBF2F102FB113315
:10450000C35C05F8013D0B460029F5D1B9E71368F6
:104510002568181D6169106028061B6801D519609F
:1045200002E06A06FBD51980002365462361B9E7DE
:104530001368191D11601D6862680021284600F08B
:10454000B9FE08B1401B606063682361002384F8F2
:104550004330A7E723692A4639463046C047013031
:10456000AAD023689B0713D4E068039B9842B8BF86
:104570001846A3E701234A4639463046C047013072
:104580009AD00135E368039A9B1AAB42F2DCEBE761
:10459000002504F11909F5E7002BACD1037804F1EB
:1045A000420584F842306CE7825D0008935D0008A4
:1045B00038B50023054C05460846236001F02CFB66
:1045C000431C02D1236803B12B6038BD8004002056
:1045D0000EB46FF0004100B59CB01DAB0290069088
:1045E000079104910848094953F8042B0591006884
:1045F00002A9019301F0B2F90022029B1A701CB0CB
:104600005DF804EB03B07047100000200802FFFFC4
:104610002DE9F74F03690C698046A342C0F28480FC
:10462000013C01F1140700F1140657F8245056F824
:1046300024000135B0FBF5F54FEA840C06EB0C03C2
:1046400007EB0C0901939DB34FF0000A3846B646BC
:10465000D34650F8042B93B205FB03A3120C4FEA88
:10466000134A05FB02A29BB2ABEB0303DEF800B0DA
:104670004FEA124A1FFA8BFB5B441FFA82FBDEF8FB
:1046800000208145CBEB124202EB23429BB243EA6E
:1046900002434FEA224B4EF8043BDAD256F80C3074
:1046A00033B9019B043B9E421A4631D3C8F81040EF
:1046B000404601F023F8002826DB30464FF0000C7E
:1046C000013557F8041BD0F800E08BB2ACEB0303C4
:1046D0001FFA8EF213440A0CC2EB1E4202EB234275
:1046E0009BB243EA0243B9454FEA224C40F8043BEF
:1046F000E7D256F8242006EB84032AB9043B9E42F5
:104700001A460BD3C8F81040284603B0BDE8F08F16
:104710001268043B002AC9D1013CC4E71268043B7B
:10472000002AEFD1013CEAE70020EEE7000000009C
:104730002DE9F04F16461F46456A95B00446DDF850
:104740008480CDE902673DB91020FFF717FA606257
:10475000C0E901550560C560636A196851B15A68BE
:10476000012393404A608B60204600F0E7FD002261
:10477000636A1A603B1EAFBF0023012223F000438F
:104780000393ACBFC8F80030C8F80020AE4BDDF88A
:104790000C8033EA08031BD142F20F73209A136096
:1047A000029B23B9C8F31300002800F04585229B23
:1047B00053B9A64B21E0A64B06930833229A136007
:1047C000069815B0BDE8F08FA04B06930333F5E7CC
:1047D000DDE902670022002330463946FCF72EFC53
:1047E000824660B10123209A1360229B002B00F0C7
:1047F0002085984B229A1360013B0693E0E712ABA9
:10480000019313AB009332463B46204600F0EEFF87
:10481000C8F30A558346002D7DD0B046C7F3130375
:1048200043F07F5949F44019A5F2FF35CDF840A077
:104830000022894B40464946FBF78EFC7CA3D3E916
:104840000023FBF741FE7CA3D3E90023FBF786FCA2
:10485000064628460F46FBF7CDFD79A3D3E9002392
:10486000FBF732FE02460B4630463946FBF776FC34
:1048700006460F46FCF72AFC0022824600233046FB
:104880003946FCF7E5FB48B15046FBF7B3FD32462D
:104890003B46FCF7D3FB08B90AF1FF3ABAF1160F11
:1048A0005AD8DDE902236D4901EBCA01D1E90001C3
:1048B000FCF7ECFB002851D000230AF1FF3A0D93DE
:1048C000129B5D1B6B1E079343BF0023C5F10109BB
:1048D00007934FF00009BAF1000F41DB079BCDF8B9
:1048E00030A053440793002308931E9B092B00F22A
:1048F0008F80052BC4BF043B1E931E9BC8BF0025A1
:10490000A3F10203D8BF0125032B00F28D80DFE85D
:1049100003F07B7D2F6FDDE912531D4405F2324019
:10492000202813DDC0F14000029B08FA00F805F2D0
:10493000124023FA00F048EA0000FBF74BFD012388
:104940008046A1F1F879013D109371E7029BC0F117
:10495000200003FA00F0F0E70123B0E70D90AFE785
:10496000CAF1000308930023A9EB0A090C93BCE7E2
:10497000012309931F9B002B74DD984604930022AA
:10498000666A7260042202F11400984271686ED95E
:10499000204600F09FFC636A30601B68B8F10E0F80
:1049A000069300F2ED80002D00F0EA80DDE902239D
:1049B000BAF1000FCDE90E2377DD284A0AF00F0384
:1049C0004FEA2A1602EBC303F006D3E90023CDE930
:1049D0000A2368D5DDE90E01214B0325D3E908231D
:1049E000FBF79CFECDE9020106F00F061C4F4FE0DD
:1049F000012309931F9B534403F101080493434689
:104A0000012BB8BF0123BAE70023B2E70023F0E788
:104A10000125002309951E934FF0FF3300220493D4
:104A2000984612231F92AAE701230993F4E700BFD7
:104A300061436F63A787D23FB3C8608B288AC63FA4
:104A4000FB799F501344D33F0000F07FAD5D000819
:104A5000A45D0008815D00080000F83FE05D0008EB
:104A6000B85D00080123049398461A46DAE701313D
:104A70007160520087E7F10708D5DDE90A01D7E93F
:104A80000023FBF721FDCDE90A0101357610083737
:104A9000002EF0D1DDE90A23DDE90201FBF73EFE3D
:104AA000CDE902011BE00225A0E700F0A480DDE9CA
:104AB0000E01CAF10006A04B06F00F0203EBC20381
:104AC000D3E90023FBF700FD02250023CDE9020115
:104AD0009A4F3611002E40F08380002BE0D10D9BC1
:104AE000002B00F08A80DDE90223CDE90A23DDE90D
:104AF0000A010022924BFCF7ABFA00287DD0B8F1F6
:104B0000000F7AD0049B002B36DDDDE90A0100227C
:104B10008C4BFBF7D9FCCDE90201049E0AF1FF376B
:104B200001352846FBF766FCDDE90223FBF7CCFCE8
:104B30000022854BFBF712FBA1F15075CDE90A016C
:104B40000B95002E5CD1DDE9020100227F4BFBF7C3
:104B500003FB0A9A2B46CDE90201FCF797FA0028DD
:104B600040F08182DDE902010A9A05F10043FCF779
:104B70006FFA002840F07582DDE90E23CDE90223AB
:104B8000139B002BC0F24B81BAF10E0F00F347814B
:104B9000694B03EBCA03D3E90023CDE904231F9B30
:104BA000002B80F2D780B8F1000F00F3D38040F0E3
:104BB0005782DDE904010022644BFBF785FCDDE947
:104BC0000223FCF759FA46464746002840F02D825A
:104BD000069B069A5D1C31230AF1010A137028E234
:104BE000F20705D5D7E90023FBF76EFC0123013559
:104BF000761008376EE7022571E75746464690E77C
:104C00004D4B03EBC60353E90201099B002B48D02F
:104C100002460B4600204E49FBF780FDDDE90A23E2
:104C2000FBF79AFACDE90A01069DDDE90201FCF7DE
:104C30004DFA1190FBF7DEFB02460B46DDE902015F
:104C4000FBF78AFA119BCDE90201303305F8013BED
:104C5000DDE90A23FCF7FCF9002863D1DDE9022332
:104C600000203749FBF778FADDE90A23FCF7F0F971
:104C7000002840F0B580069BEB1A9E427FF77CAF80
:104C8000DDE90A0100222F4BFBF71EFC0022CDE9D3
:104C90000A01DDE902012B4BFBF716FCCDE902010D
:104CA000C3E7DDE90A23FBF70FFC069BCDE90A0108
:104CB0009D191E46DDE90201FCF708FA1190FBF789
:104CC00099FB02460B46DDE90201FBF745FA119B11
:104CD000CDE90201303306F8013BAE424FF000024D
:104CE00024D1DDE90A011A4BFBF738FA02460B46DC
:104CF000DDE90201FCF7CAF9002871D1DDE90A23D8
:104D000000201349FBF728FA02460B46DDE90201B1
:104D1000FCF79EF900283FF42FAF15F8013C6A1EFE
:104D2000302B01D0BA464AE01546F6E7054BFBF7B3
:104D3000CBFBCDE90201BDE7E05D0008B85D0008EE
:104D40000000F03F0000244000001C400000144020
:104D50000000E03F069DDDE90267DDE904233046FF
:104D60003946FBF7DBFCFCF7B1F98146FBF742FB68
:104D7000DDE90423FBF7A8FB02460B463046394623
:104D8000FBF7EAF909F1300605F8016B069E0246C9
:104D9000AE1BB0450B4635D1FBF7E0F9DDE9042346
:104DA00006460F46FCF772F9C8B9DDE90423304620
:104DB0003946FCF743F910B119F0010F0FD15946EC
:104DC000204600F0BBFA0023209A2B700AF1010361
:104DD0001360229B002B3FF4F3AC1D60F0E45746B8
:104DE00015F8012C6B1E392A06D1069A9A4207D172
:104DF00030231370134601371A7801321A7091E785
:104E00001D46EDE70022994BFBF75EFB00220023D5
:104E100006460F46FCF712F900289ED0CFE7099A04
:104E2000002A00F088801E9A012A6DDC109A002A60
:104E300066D003F233434D46089E079A01211A4477
:104E400020469944079200F019FB0746002D0BDD20
:104E5000079B002B08DDAB42A8BF2B46079AA9EBA6
:104E60000309ED1AD31A0793089BEBB1099B002B9A
:104E700065D08EB139463246204600F09DFB5A4639
:104E800001460746204600F002FB59460A9020469C
:104E900000F054FA0A9B9B46089B9A1B04D0594683
:104EA000204600F089FB83460121204600F0E6FA07
:104EB0000C9B0646002B00F0C6811A460146204690
:104EC00000F07AFB1E9B0646012B3EDC029B002B6A
:104ED00037D1039BC3F31303002B34D1039B23F07F
:104EE00000431B0D1B052BB1079B09F10109013381
:104EF0000793012308930C9B002B28D101202EE05F
:104F0000129BC3F1360396E7089B08F1FF36B342C4
:104F1000B7BF089B9E1BF21A0C9BBFBF08969B183D
:104F20000C930026B8F1000FB9BFA9EB08050023C8
:104F30004D46434681E7089E4D46099F86E7089AFD
:104F4000ADE70023D6E7029BD4E70023089333693B
:104F500006EB8303186900F043FAC0F12000079BB9
:104F6000184410F01F0047D0C0F12003042B3BDD94
:104F7000079BC0F11C008144054403440793B9F129
:104F8000000F05DD59464A46204600F063FB834684
:104F9000079B002B05DD31461A46204600F05AFBE0
:104FA00006460D9B53B33146584600F0A7FB002838
:104FB00024DA002359460A22204600F0D6F9099B3C
:104FC0000AF1FF3A8346002B00F044810023394662
:104FD0000A22204600F0C9F9049B0746002B4DDC4D
:104FE0001E9B022B4ADD11E0C9D0079A1C331A44DC
:104FF00099441D441346C1E70346F6E7B8F1000F94
:1050000036DC1E9B022B33DDCDF81080049B63B988
:1050100031460522204600F0A8F9014606465846CA
:1050200000F06CFB00283FF7D3AD1F9B069D6FEA95
:10503000030A4FF000093146204600F07FF9002FA7
:105040003FF4BDAEB9F1000F05D0B94503D04946D4
:10505000204600F073F93946204600F06FF9AEE6BD
:1050600000263746E1E7BA463746B1E5000024405E
:10507000099BCDF81080002B00F0F380002D05DD9A
:1050800039462A46204600F0E5FA0746089B002BE1
:105090004CD07968204600F01DF905463A6907F1C1
:1050A0000C01023292000C30FEF778FD01222946F5
:1050B000204600F0CFFAB9460746069B0793029BAD
:1050C00003F00103089331465846FFF7A1FA494619
:1050D000054600F13008584600F010FB3A460290B1
:1050E0003146204600F024FBC368024603BB01465C
:1050F0000990584600F002FB0346099A11462046E3
:10510000099300F01BF9099BA3B91E9A92B9089A5A
:1051100082B9B8F1390F29D0029B002B01DD05F1CE
:105120003108079B5D1C83F8008084E73846C2E79E
:105130000123E3E7029A002A04DB23D11E9A0ABB6B
:10514000089AFAB9002BECDD59460122204600F0FE
:1051500081FA3146834600F0D1FA002803DCE0D121
:1051600018F0010FDDD0B8F1390FD8D1079B079A9D
:105170005D1C3923137015F8013C6A1E392B4DD084
:10518000013352E0079A002B02F1010506DDB8F168
:10519000390FEBD008F10108079BC4E7069B049A7E
:1051A000EB1A934205F8018C21D0594600230A22BC
:1051B000204600F0DAF8B94583464FF000034FF07F
:1051C0000A024946204605D100F0CFF8814607463D
:1051D000079578E700F0C9F83946814600230A228E
:1051E000204600F0C2F80746F2E74FF000095946A2
:1051F0000122204600F02EFA3146834600F07EFA66
:105200000028B8DC02D118F0010FB4D115F8013C28
:105210006A1E302B7FF40FAF1546F7E7069B9342CB
:1052200005D13123069A0AF1010A137003E71546E6
:10523000A1E7174BFFF7E1BA229B002B7FF4BBAA33
:10524000144BFFF7DABA1E9B012B7FF73FAE0C9B86
:10525000089353E6049B002B03DC1E9B022B3FF7B5
:10526000D5AE069D31465846FFF7D2F9069B00F1B0
:10527000300805F8018B049AEB1A9A42B5DD5946BD
:1052800000230A22204600F070F88346EAE700BFB8
:10529000805D0008A45D0008044B1B68186A044B7D
:1052A000002808BF1846F030704700BF10000020EB
:1052B0007400002010B5C9B202449042034601D1E7
:1052C000002303E01C7801308C42F6D1184610BD53
:1052D0007047704770B5456A04460E463DB91020C8
:1052E000FEF74CFC6062C0E901550560C560656A67
:1052F000EB6883B1636ADB6853F82600B8B9012113
:1053000001FA06F56A1D9200204600F0BEFA60B16F
:10531000C0E901650EE021220421204600F0B5FA23
:10532000636AE860DB68002BE4D1002070BD02688E
:1053300043F826200023C0E90333F7E770B5446A39
:1053400006460D463CB91020FEF718FC7062C0E915
:1053500001440460C4603DB1736A6A68DB6853F855
:105360002210296043F8225070BD2DE9F0411F46FC
:1053700006460C4600230D6901F1140CDCF8000010
:10538000013381B202FB0171000C0F0C02FB0070B3
:1053900089B201EB00419D424FEA10474CF8041BD3
:1053A000ECDCD7B1A368AB4212DC61683046013156
:1053B000FFF790FF8046226904F10C01023292004F
:1053C0000C30FEF7EBFB21463046FFF7B7FF4446B3
:1053D00004EB850301355F6125612046BDE8F0815E
:1053E000020C12040346B2B90304102013F07F4FDD
:1053F00004BF1B02083013F0704F04BF1B010430C0
:1054000013F0404F04BF9B000230002B06DB5B0013
:1054100003D5013070470020E8E72020704703687B
:10542000014613F007020BD0DA0723D4980749BFCF
:105430005B089B0801200B605CBF0B60022070477B
:1054400098B2A8B910201B0C13F0FF0F04BF1B0A61
:1054500008301A0704BF1B0904309A0704BF9B08D1
:105460000230DA0702D45B0806D001300B607047C7
:105470001046E9E7002070472020704710B50C4621
:105480000121FFF727FF01224461026110BD2DE9D0
:10549000F74F14460A69236988469A42BEBF0B46F5
:1054A000A0461C46D8F81070D4F81090D8F80830F0
:1054B000D8F8041007EB0906B342B8BF0131FFF773
:1054C00009FF00F114052B46002205EB860E7345FB
:1054D00016D304F1140208F1140102EB890301EB65
:1054E00087070093009B019293420CD8002E03DDA6
:1054F0005EF8043D002B5DD0066103B0BDE8F08F7F
:1055000043F8042BE3E7B2F800B0BBF1000F23D05F
:105510008946AC464FF0000859F8044BDCF800A06F
:10552000A3B21FFA8AFA0BFB03A34FEA144ADCF872
:10553000004043444FEA14480BFB0A84E24604EB64
:1055400013449BB243EA04434F454FEA14484AF8D8
:10555000043B2BD8CCF80480019B0432B3F802A0A2
:10556000BAF1000F20D08946A8464FF0000B2B68F7
:10557000B9F800C0B8F802409BB20AFB0C44C4461C
:105580005C4443EA04434CF8043B59F8043BB8F844
:1055900004B01B0C0AFB03B34F4503EB14434FEA63
:1055A000134B05D8C8F8043004359BE7D446B3E75D
:1055B000E046DDE7013E99E72DE9F843154612F094
:1055C000030206460F4607D0214C013A002354F847
:1055D0002220FFF7CAFE0746AD1035D0746A3CB9E9
:1055E0001020FEF7CBFA7062C0E901440460C46089
:1055F000D6F82480D8F808404CB940F271213046E2
:10560000FFF73CFF00230446C8F8080003604FF092
:105610000008EB070AD5394622463046FFF737FF28
:10562000814639463046FFF789FE4F466D100BD054
:10563000206838B9224621463046FFF728FF20600F
:10564000C0F800800446E4E73846BDE8F88300BFB0
:10565000A85E00082DE9F0470C4607461646236968
:105660004FEA621A0AEB03094968A36809F10105C8
:10567000AB4232DB3846FFF72DFE002380461A4648
:1056800000F1140153452BDB20692AEAEA7A04F180
:10569000140316F01F0201EB8A0103EB800C25D0E6
:1056A0000020C2F1200E8A461E68964030434AF818
:1056B000040B53F8040B9C4520FA0EF014D84860F4
:1056C00008B109F10205013D3846C8F810502146DD
:1056D000FFF734FE4046BDE8F08701315B00C7E7C5
:1056E00041F823200133CDE75146DCE7043953F874
:1056F000042B9C4541F8042FF9D8E4E703690A69B3
:1057000030B59B1A0CD19200143014318418114416
:1057100054F8045D51F8042D954203D005D30123BC
:10572000184630BDA042F3D3FAE74FF0FF33F7E756
:105730002DE9F0470D460746114628461446FFF767
:10574000DDFF061E08D131463846FFF7C3FD0123B1
:10575000C0E90436BDE8F087A4BF23462C4638468E
:105760006168A6BF1D4600260126FFF7B3FD4FF076
:10577000000EC6602B69266904F1140205F11409B4
:1057800002EB860709EB830800F1140152F804AB21
:1057900059F8045B1FFA8AF37344ACB21B1B2C0C40
:1057A000C4EB1A4404EB23449BB24FEA244EC84591
:1057B00043EA0444944641F8044BE7D8BC4504D37B
:1057C00051F8043D83B10661C4E75CF8044BA2B212
:1057D0007244131403EB144392B242EA03424FEAB9
:1057E000234E41F8042BE9E7013EE9E72DE9F341B7
:1057F0001C46DDE9086501219046FFF76BFDC4F307
:105800001302C4F30A54074634BB0192B8F10002F4
:1058100027D002A840F8082DFFF701FE0099F0B14B
:10582000019AC0F1200302FA03F30B43C2407B61EB
:105830000192019B002B14BF02210121BB61396140
:10584000C4B1A4F2334404443460C0F1350028608C
:10585000384602B0BDE8F08142F48012D5E77961A4
:10586000E7E701A8FFF7DBFD0121019B39617B61BF
:105870002030E5E7A0F2324007EB81033060186981
:10588000FFF7AEFDC0EB4110E1E738B502FB01F4D4
:105890002146FEF7E3F9054618B122460021FEF73E
:1058A00088F9284638BD2DE9F0478E6882469E4229
:1058B0000C469046994637D88A8912F4906F31D0B9
:1058C0000223256809696F1A656905EB450595FB93
:1058D000F3F509F101033B449D4238BF1D465305D2
:1058E00030D52946FEF7BAF9064650B90C234FF0D9
:1058F000FF30CAF80030A38943F04003A381BDE81C
:10590000F0873A462169FEF749F9A38923F49063A9
:1059100043F08003A38126613E4426604E466561C4
:10592000ED1BA5604E4500D94E46324641462068E3
:1059300000F01EF9A36800209B1BA36023681E448F
:105940002660DCE72A4600F02CF906460028E2D162
:1059500021695046FEF736F9C8E700002DE9F04FFF
:105960001D468B899DB01F0680460C4616460FD5F6
:105970000B696BB94021FEF771F92060206128B9ED
:105980000C23C8F800304FF0FF30C8E040236361BB
:105990000023099320238DF8293030234FF0010B89
:1059A0008DF82A30039537463D4615F8013B0BB17B
:1059B000252B3ED1B7EB060A0BD053463246214683
:1059C0004046FFF770FF013000F0A480099B53446C
:1059D00009933B78002B00F09D8000234FF0FF32AD
:1059E000CDE90523049307938DF853301A932F467E
:1059F000052217F8011B5048FFF75CFC049BD0B947
:105A0000D90644BF20228DF853201A0744BF2B2209
:105A10008DF853202A782A2A15D02F4600200A25EF
:105A2000079A394611F8013B303B092B4DD9B8B1E3
:105A30000FE02F46B8E7404A3D46801A0BFA00F0C7
:105A400018430490D3E7039A111D12680391002AAA
:105A500001DB079204E0524243F0020307920493F1
:105A60003B782E2B0CD17B782A2B33D1039B02372A
:105A70001A1D1B680392002BB8BF4FF0FF3305932C
:105A80002E4D032239782846FFF714FC38B1402305
:105A9000401B03FA00F0049B013703430493397859
:105AA000062227487E1C8DF82810FFF703FC0028EB
:105AB00038D0244B13BB039B073323F00703083371
:105AC0000393099B4B4409936DE705FB02320120C8
:105AD0000F46A6E700230A251946013705933846E5
