:020000040800F2
:100000000050002019140008B5130008B7130008A9
:10001000B9130008BB130008BD130008000000005E
:10002000000000000000000000000000BF130008F6
:10003000C113000800000000C3130008C513000826
:1000400061140008611400086114000861140008BC
:1000500061140008611400086114000861140008AC
:10006000611400086114000861140008611400089C
:10007000611400086114000861140008611400088C
:10008000611400086114000861140008611400087C
:10009000611400086114000861140008611400086C
:1000A000611400086114000861140008611400085C
:1000B000611400086114000861140008611400084C
:1000C000611400086114000861140008611400083C
:1000D000611400086114000861140008611400082C
:1000E0006114000861140008611400080000000099
:1000F0000000000000000000000000000000000000
:0C01000000000000000000005FF808F1A3
:10010C0010B5054C237833B9044B13B10448AFF345
:10011C0000800123237010BD0C00002000000000A3
:10012C00AC14000808B5034B1BB103490348AFF3EB
:10013C00008008BD0000000010000020AC14000876
:10014C0010B504460E4B18784FF47A73B3FBF0F3EA
:10015C000C4A1068B0FBF3F000F094F868B90F2C5F
:10016C0001D901200AE0002221464FF0FF3000F0B7
:10017C0055F8034B5C60002000E0012010BD00BF6F
:10018C00000000200800002008B5074A136843F05F
:10019C0010031360032000F02FF80020FFF7D0FFAE
:1001AC0001F0A4F8002008BD00200240034A1168A9
:1001BC00034B1B780B441360704700BF2C000020CE
:1001CC0000000020014B1868704700BF2C00002075
:1001DC0038B50446FFF7F6FF0546B4F1FF3F02D0F1
:1001EC00044B1B781C44FFF7EDFF401BA042FAD3D5
:1001FC0038BD00BF00000020074AD36823F4E06339
:10020C001B041B0C000200F4E060184340F0BF60BC
:10021C0040F40030D060704700ED00E030B4174B74
:10022C00DB68C3F30223C3F10704042C28BF0424A6
:10023C001D1D062D18D9033B4FF0FF3505FA04F4AC
:10024C0021EA0401994005FA03F322EA0303194356
:10025C0000280BDB0901C9B200F1604000F56140D8
:10026C0080F8001330BC70470023E5E700F00F0066
:10027C000901C9B2024B1954F4E700BF00ED00E0CC
:10028C0014ED00E00138B0F1807F0AD2064B5860C3
:10029C00064AF02182F823100020986007221A6089
:1002AC0070470120704700BF10E000E000ED00E057
:1002BC00F0B482B000263546A1E0002C59D0012CB8
:1002CC0000D1CE68FF2B68D88446FF2B68D8AC00D1
:1002DC00DCF800200F27A74022EA070206FA04F4F4
:1002EC002243CCF800204A6812F0805F00F0868030
:1002FC005E4A946944F001049461926902F001022F
:10030C000192019AAC08A71C594A52F8272005F013
:10031C000307BF004FF00F0C0CFA07FC22EA0C0C81
:10032C00544A904242D002F5806290427FD002F54E
:10033C00806290427DD002F58062904234D00422DB
:10034C0035E04D4FBC4214D00BD94C4FBC4210D0B1
:10035C0007F58037BC420CD0A7F58017BC42B1D151
:10036C0007E0A7F58017BC4203D007F58037BC42E5
:10037C00A8D18C687CB1012C08D042610826A1E779
:10038C00CE6808369EE7CE680C369BE702610826DD
:10039C0098E7002696E7042694E700F1040C94E70E
:1003AC00A5F10804A40093E7032200E00022BA4060
:1003BC0042EA0C0202342E4F47F824204A6812F409
:1003CC00803F38D02E4C22681A4322604A6812F4BF
:1003DC00003F36D02A4C62681A4362604A6812F4B5
:1003EC00801F34D0264CA2681A43A2604A6812F4CB
:1003FC00001F32D0224CE2681343E36001350F2D0D
:10040C0031D80122AA400B6813409A42F6D14C68AD
:10041C00122CB8D095D8022CB2D07FF64EAF032C4C
:10042C00B7D0112C7FF44EAFCE6804364AE70122C8
:10043C00BDE70222BBE7124C226822EA03022260CB
:10044C00C4E70F4C626822EA03026260C6E70C4CF8
:10045C00A26822EA0302A260C8E7094CE26822EA19
:10046C000303E360CAE702B0F0BC7047001002401F
:10047C000000014000080140000021100000311074
:10048C000004014012B90904016170470161704711
:10049C0082B0084B1B68084AA2FB03235B0A00FBD3
:1004AC0003F0019000BF019B5A1E0192002BF9D161
:1004BC0002B0704708000020D34D621070B582B0B6
:1004CC000446036813F0010F2CD0AB4B5B6803F0B0
:1004DC000C03042B1DD0A84B5B6803F00C03082BFA
:1004EC0012D06368B3F5803F41D0002B55D103F196
:1004FC00804303F504331A6822F480321A601A68B8
:10050C0022F480221A6037E09B4B5B6813F4803F27
:10051C00E7D0994B1B6813F4003F03D06368002BA2
:10052C0000F0AE81236813F0020F76D0924B5B681B
:10053C0013F00C0F5FD0904B5B6803F00C03082B8F
:10054C0054D02369002B00F08A808C4B01221A6056
:10055C00FFF738FE0546884B1B6813F0020F75D168
:10056C00FFF730FE401B0228F5D903208BE1824AAD
:10057C00136843F480331360636843B3FFF722FEC0
:10058C0005467D4B1B6813F4003FCBD1FFF71AFED9
:10059C00401B6428F5D9032075E1B3F5A02F09D0D1
:1005AC00754B1A6822F480321A601A6822F4802281
:1005BC001A60E1E703F18043A3F53C331A6842F477
:1005CC0080221A601A6842F480321A60D4E7FFF76E
:1005DC00F9FD0546684B1B6813F4003FA2D0FFF7EA
:1005EC00F1FD401B6428F5D903204CE1624B5B689C
:1005FC0013F4803FA5D1604B1B6813F0020F04D09D
:10060C002369012B01D001203DE15B4A136823F0E3
:10061C00F803616943EAC1031360236813F0080F00
:10062C0032D0A369002B5BD0554B01221A60FFF727
:10063C00C9FD0546504B5B6A13F0020F21D1FFF741
:10064C00C1FD401B0228F5D903201CE14A4A13685E
:10065C0023F0F803616943EAC1031360DDE7474BFC
:10066C0000221A60FFF7AEFD0546434B1B6813F0E2
:10067C00020FD2D0FFF7A6FD401B0228F5D90320AC
:10068C0001E10120FFF704FF236813F0040F00F0D1
:10069C009780394BDB6913F0805F33D1364BDA69C5
:1006AC0042F08052DA61DB6903F080530193019BC5
:1006BC000125344B1B6813F4807F25D0E368012B94
:1006CC0036D0002B4CD103F1804303F504331A6A66
:1006DC0022F001021A621A6A22F004021A622CE059
:1006EC00274B00221A60FFF76DFD0546224B5B6A13
:1006FC0013F0020FC8D0FFF765FD401B0228F5D997
:10070C000320C0E00025D4E71E4A136843F480732D
:10071C001360FFF757FD06461A4B1B6813F4807FD6
:10072C00CCD1FFF74FFD801B6428F5D90320AAE03C
:10073C00114A136A43F001031362E36873B3FFF7C2
:10074C0041FD06460C4B1B6A13F0020F37D1FFF725
:10075C0039FD801B41F288339842F3D9032092E093
:10076C00052B11D0044B1A6A22F001021A621A6A84
:10077C0022F004021A62E0E700100240000042423C
:10078C008004424200700040414B1A6A42F004025D
:10079C001A621A6A42F001021A62CEE7FFF712FDE2
:1007AC0006463B4B1B6A13F0020F08D0FFF70AFDFD
:1007BC00801B41F288339842F3D9032063E0E5B9FA
:1007CC00E369002B5ED0324A526802F00C02082A10
:1007DC005BD0022B17D02F4B00221A60FFF7F2FCD4
:1007EC0004462B4B1B6813F0007F47D0FFF7EAFC45
:1007FC00001B0228F5D9032045E0254AD36923F0D4
:10080C008053D361DCE7234B00221A60FFF7DAFC3C
:10081C0005461F4B1B6813F0007F06D0FFF7D2FC78
:10082C00401B0228F5D903202DE0236AB3F5803F45
:10083C001AD017494B6823F47413226A606A024376
:10084C0013434B60134B01221A60FFF7BBFC0446A9
:10085C000F4B1B6813F0007F0ED1FFF7B3FC001B8E
:10086C000228F5D903200EE0094A536823F400331B
:10087C00A1680B435360DCE7002004E0002002E099
:10088C00012000E0002002B070BD0120FBE700BF9A
:10089C00001002406000424210B487B0164C94E83D
:1008AC000F000DF1180C0CE90F00238AADF8043081
:1008BC00124B5B6803F00C02082A1AD1C3F3834273
:1008CC00624412F8102C13F4803F05D10C4800FB45
:1008DC0002F007B010BC7047084B5B68C3F3404391
:1008EC00634413F8143C074800FB02F0B0FBF3F030
:1008FC00EFE70448EDE700BFC41400080010024005
:10090C0000093D0000127A00624B1B6803F00703DC
:10091C008B420CD25F4A136823F007030B4313601E
:10092C00136803F007038B4201D00120704770B5A8
:10093C00036813F0020F17D013F0040F04D0564ABB
:10094C00536843F4E0635360036813F0080F04D05A
:10095C00514A536843F4605353604F4A536823F031
:10096C00F0038468234353600D460446036813F078
:10097C00010F52D04368012B23D0022B28D0464ABA
:10098C00126812F0020F00F0828043494A6822F08C
:10099C00030213434B60FFF715FC06466368012BFB
:1009AC001DD0022B2AD03C4B5B6813F00C0F34D0BB
:1009BC00FFF708FC801B41F288339842F3D90320DF
:1009CC0064E0354A126812F4003FDED101205DE08C
:1009DC00314A126812F0007FD7D1012056E02E4B1D
:1009EC005B6803F00C03042B17D0FFF7EBFB801BA9
:1009FC0041F288339842F2D9032047E0264B5B68DA
:100A0C0003F00C03082B08D0FFF7DCFB801B41F232
:100A1C0088339842F2D9032038E01E4B1B6803F050
:100A2C000703AB420CD91B4A136823F007032B4373
:100A3C001360136803F00703AB4201D0012025E0DB
:100A4C00236813F0040F06D0134A536823F4E063B1
:100A5C00E1680B435360236813F0080F07D00E4A6C
:100A6C00536823F46053216943EAC1035360FFF7D1
:100A7C0013FF094B5B68C3F30313084AD35CD840DC
:100A8C00074B18600020FFF75BFB002070BD0120B6
:100A9C00FCE700BF0020024000100240D814000800
:100AAC0008000020F8B505460F4616461C463BE0EC
:100ABC002CB1FFF787FB069BC01AA04234D32A68DF
:100ACC00536823F0E00353606B68B3F5827F0BD05F
:100ADC00AB6AB3F5005F14D0012385F851300023C5
:100AEC0085F85030032027E0AB68B3F5004F02D0F7
:100AFC00B3F5806FECD12A68136823F040031360C0
:100B0C00E6E72A68136823F400531B041B0C1360DC
:100B1C002A68136843F400531360DDE70123B342E2
:100B2C0009D0B4F1FF3FC3D12B689B6837EA0303AC
:100B3C00F4D00023F3E70020F8BD10B582B00446D2
:100B4C0000920B4600228021FFF7ACFF034610B940
:100B5C00184602B010BD636D43F020036365032398
:100B6C00F6E72DE9F04184B01E4690F85030012B89
:100B7C0000F0C88004460D469046012380F85030A2
:100B8C00FFF720FB074694F85130DBB2012B0AD05B
:100B9C000223012284F85120002284F850201846A8
:100BAC0004B0BDE8F081002D00F0A480B8F1000F76
:100BBC0000F0A280032384F8513000236365256381
:100BCC00A4F83480A4F83680A363A387E387636416
:100BDC002364A368B3F5004F1BD023681A6812F086
:100BEC00400F03D11A6842F040021A60E368B3F573
:100BFC00006F14D063681BB1E38E9BB2012B3ED106
:100C0C00236815F8012B1A73E38E013B9BB2E38624
:100C1C0035E02268136843F480431360DDE76368B2
:100C2C001BB1E38E9BB2012B0DD1236835F8022B3F
:100C3C00DA60E38E013B9BB2E38604E0002E5DD0CC
:100C4C00B6F1FF3F0FD1E38E9BB27BB323689A685A
:100C5C0012F0020FF2D035F8022BDA60E38E013B72
:100C6C009BB2E386EFE7FFF7ADFAC01BB042EAD3C5
:100C7C0003238EE7002E43D0B6F1FF3F0FD1E38E56
:100C8C009BB29BB123689A6812F0020FF2D015F850
:100C9C00012B1A73E38E013B9BB2E386EFE7FFF760
:100CAC0091FAC01BB042EAD3032372E70097334694
:100CBC00012202212046FFF7F5FE08B1032368E765
:100CCC003A4631462046FFF738FF034618B1202339
:100CDC00636501235DE7A26832B903922268D1688B
:100CEC00039192680392039A626D002A3FF451AF0C
:100CFC0001234EE701234CE701234AE7032348E78E
:100D0C00032346E702234AE72DE9F04385B09946D1
:100D1C000C9D90F85030012B00F0108104460F46CA
:100D2C001646012380F85030FFF74CFA804694F8B1
:100D3C005130DBB26268012B15D0B2F5827F0AD03C
:100D4C000223012284F85120002284F850201846F6
:100D5C0005B0BDE8F083A268002A40F0E780042BC0
:100D6C0001D00223EDE7002F00F0E280002E00F00E
:100D7C00E180B9F1000F00F0DF8094F85130DBB264
:100D8C00012B2BD000236365A663A4F83E90A4F836
:100D9C003C902763A4F83690A4F8349023646364E1
:100DAC0023681A6812F0400F03D11A6842F040020F
:100DBC001A60E368B3F5006F14D063681BB1E38E5F
:100DCC009BB2012B07D1236817F8012B1A73E38E02
:100DDC00013B9BB2E3864FF0010961E0052384F8E7
:100DEC005130CFE763681BB1E38E9BB2012B07D167
:100DFC00236837F8022BDA60E38E013B9BB2E38663
:100E0C004FF0010913E0E38F9BB26BB123689A6832
:100E1C0012F0010F08D0DB6826F8023BE38F013B90
:100E2C009BB2E3874FF00109B5F1FF3F1CD1E38E74
:100E3C009BB21BB9E38F9BB2002B55D0B9F1000FBD
:100E4C00E1D0E38E9BB2002BDDD023689A6812F0C0
:100E5C00020FD8D037F8022BDA60E38E013B9BB23D
:100E6C00E3864FF00009CEE7FFF7ACF9A0EB0800E2
:100E7C00A842DCD3032364E7E38F9BB26BB12368F6
:100E8C009A6812F0010F08D0DB683370E38F013BD6
:100E9C009BB2E38701364FF00109B5F1FF3F1BD13F
:100EAC00E38E9BB213B9E38F9BB2EBB1B9F1000F98
:100EBC00E2D0E38E9BB2002BDED023689A6812F04E
:100ECC00020FD9D03A781A73E38E013B9BB2E386BA
:100EDC0001374FF00009CFE7FFF774F9A0EB0800DA
:100EEC00A842DDD303232CE7CDF800802B4601224A
:100EFC0002212046FFF7D6FD08B1032321E7424625
:100F0C0029462046FFF719FE034618B120236365D6
:100F1C00012316E7A268002A7FF413AF039222681C
:100F2C00D168039192680392039A0AE7022308E7B7
:100F3C00012306E7012304E7012302E7022306E766
:100F4C002DE9F04182B004460D4617461E46436813
:100F5C00B3F5827F19D094F85030012B00F0A280A9
:100F6C00012384F85030FFF72DF9804694F8513066
:100F7C00DBB2012B15D00220012384F85130002361
:100F8C0084F8503002B0BDE8F0818368002BE2D1C8
:100F9C00042380F85130009613460A46FFF7B4FE3E
:100FAC00F0E7002D74D0002F74D0042384F8513056
:100FBC0000236365A563A787E7872363A386E3867E
:100FCC0023646364A368B3F5004F0BD023681A68DD
:100FDC0012F0400F03D11A6842F040021A60E36825
:100FEC005BB128E02268136823F480431360EDE7BB
:100FFC00002E51D0B6F1FF3F10D1E38F9BB2002BE6
:10100C0031D023689A6812F0010FF1D01B7B05F8E0
:10101C00013BE38F013B9BB2E387EEE7FFF7D2F88E
:10102C00A0EB0800B042E8D30320A5E7002E35D092
:10103C00B6F1FF3F0FD1E38F9BB2A3B123689A683F
:10104C0012F0010FF2D0DB6825F8023BE38F013B75
:10105C009BB2E387EFE7FFF7B5F8A0EB0800B042CF
:10106C00E9D3032088E76368B3F5827F03D0636D0F
:10107C00B3B9002080E7A368B3F5004F02D0B3F5F5
:10108C00806FF4D12268136823F040031360EEE7FD
:10109C00012071E701206FE703206DE703206BE768
:1010AC00012069E702206DE700283CD010B504460A
:1010BC000023836290F85130002B31D0022384F846
:1010CC0051302268136823F0400313606368A268F0
:1010DC001343E26813432269134362691343A26901
:1010EC0002F400721343E2691343226A1343A16AA8
:1010FC0022680B431360638B03F00403616A22685C
:10110C000B4353602368E26A1A612268D36923F4A3
:10111C000063D36100206065012384F8513010BD59
:10112C0000F006F9CAE701207047000084B00F4BAD
:10113C009A6942F020029A619A6902F020020192A7
:10114C00019A9A6942F008029A619A6902F00802BF
:10115C000292029A9A6942F004029A619B6903F026
:10116C0004030393039B04B0704700BF00100240BC
:10117C0008B50C480C4B03604FF48273436000239A
:10118C008360C360036143614FF480228261282233
:10119C00C2610362436283620A23C362FFF784FF66
:1011AC0008BD00BF300000200038004000B585B0FD
:1011BC0004A901F8010D642300930123034A044898
:1011CC00FFF7A2FD05B05DF804FB00BF280000206E
:1011DC003000002070B582B002AC04F8010D0E4D49
:1011EC0000224FF480512846FFF74CF90B4E642334
:1011FC00012221463046FFF7B4FC64230122084942
:10120C003046FFF79DFE01224FF480512846FFF730
:10121C0039F902B070BD00BF000C01403000002055
:10122C002900002010B51020FFF7C0FF0A20FEF7A0
:10123C00CFFF05E00020FFF7B9FF0A20FEF7C8FF3B
:10124C000C4B1B78102BF5D10020FFF7C3FF094C7A
:10125C0063781B0263800A20FEF7BAFF0020FFF7B9
:10126C00B9FF63786288134063800A20FEF7B0FFF1
:10127C0010BD00BF2800002030B591B000240894A8
:10128C0009940B940C940194029403940494059483
:10129C00012206924FF4803307930A9202250D9592
:1012AC000E934FF4E0130F9306A8FFF707F90F23E3
:1012BC000193029503944FF480630493059429469B
:1012CC0001A8FFF721FB11B030BD08B5FEF75CFF9C
:1012DC00FFF7D2FFFFF72AFFFFF74AFFFFF7A2FF46
:1012EC004FF4FA70FEF774FFF8E7000082B00E4B73
:1012FC009A6942F001029A619A6902F00102009225
:10130C00009ADA6942F08052DA61DB6903F08053AB
:10131C000193019B054A536823F0E06343F000738B
:10132C00536002B0704700BF001002400000014043
:10133C0010B586B0002302930393049305930268BF
:10134C00174B9A4201D006B010BD03F5EC33DA69A5
:10135C0042F48042DA61DA6902F480420092009A27
:10136C009A6942F008029A619B6903F008030193A1
:10137C00019B4FF430430293022303930323059301
:10138C00084C02A92046FEF793FF4FF480430293CA
:10139C0000230393049302A92046FEF789FFD2E7AA
:1013AC0000380040000C01407047FEE7FEE7FEE706
:1013BC00FEE770477047704708B5FEF7F7FE08BDAB
:1013CC000F4B1A6842F001021A6059680D4A0A4024
:1013DC005A601A6822F0847222F480321A601A68F9
:1013EC0022F480221A605A6822F4FE025A604FF4EA
:1013FC001F029A60044B4FF000629A60704700BF66
:10140C00001002400000FFF800ED00E0002103E0B6
:10141C000B4B5B58435004310A480B4B42189A4211
:10142C00F6D30A4A02E0002342F8043B084B9A42E6
:10143C00F9D3FFF7C5FF00F00FF8FFF746FF704731
:10144C00F8140008000000200C0000200C00002004
:10145C0088000020FEE7000070B500250C4E0D4CF6
:10146C00A41BA410A54209D100F01AF800250A4EBD
:10147C000A4CA41BA410A54205D170BD56F825300A
:10148C0098470135EEE756F8253098470135F2E7D5
:10149C00F0140008F0140008F0140008F41400080C
:1014AC00F8B500BFF8BC08BC9E467047F8B500BF45
:0814BC00F8BC08BC9E46704715
:1014C40002030405060708090A0B0C0D0E0F101081
:1014D40001020000000000000000000001020304FB
:0C14E400060708090000000001020304D4
:0414F00031010008BE
:0414F4000D010008DE
:0C14F800010000001000000000A24A04E7
:0400000508001419C2
:00000001FF
