:020000040800F2
:1000000000500020F5180008911800089318000807
:1000100095180008971800089918000800000000BB
:100020000000000000000000000000009B18000815
:100030009D180008000000009F180008A118000883
:100040003D1900083D1900083D1900083D19000838
:100050003D1900083D1900083D1900083D19000828
:100060003D1900083D1900083D1900083D19000818
:100070003D1900083D1900083D1900083D19000808
:100080003D1900083D1900083D1900083D190008F8
:100090003D1900083D1900083D1900083D190008E8
:1000A0003D1900083D1900083D1900083D190008D8
:1000B0003D1900083D1900083D1900083D190008C8
:1000C0003D1900083D1900083D1900083D190008B8
:1000D0003D1900083D1900083D1900083D190008A8
:1000E0003D1900083D1900083D19000800000000F6
:1000F0000000000000000000000000000000000000
:0C01000000000000000000005FF808F1A3
:10010C0010B5054C237833B9044B13B10448AFF345
:10011C0000800123237010BD0C00002000000000A3
:10012C00B019000808B5034B1BB103490348AFF3E2
:10013C00008008BD0000000010000020B01900086D
:10014C0010B504460E4B18784FF47A73B3FBF0F3EA
:10015C000C4A1068B0FBF3F000F094F868B90F2C5F
:10016C0001D901200AE0002221464FF0FF3000F0B7
:10017C0055F8034B5C60002000E0012010BD00BF6F
:10018C00000000200800002008B5074A136843F05F
:10019C0010031360032000F02FF80020FFF7D0FFAE
:1001AC0001F01CFB002008BD00200240034A11682E
:1001BC00034B1B780B441360704700BF9800002062
:1001CC0000000020014B1868704700BF9800002009
:1001DC0038B50446FFF7F6FF0546B4F1FF3F02D0F1
:1001EC00044B1B781C44FFF7EDFF401BA042FAD3D5
:1001FC0038BD00BF00000020074AD36823F4E06339
:10020C001B041B0C000200F4E060184340F0BF60BC
:10021C0040F40030D060704700ED00E030B4174B74
:10022C00DB68C3F30223C3F10704042C28BF0424A6
:10023C001D1D062D18D9033B4FF0FF3505FA04F4AC
:10024C0021EA0401994005FA03F322EA0303194356
:10025C0000280BDB0901C9B200F1604000F56140D8
:10026C0080F8001330BC70470023E5E700F00F0066
:10027C000901C9B2024B1954F4E700BF00ED00E0CC
:10028C0014ED00E00138B0F1807F0AD2064B5860C3
:10029C00064AF02182F823100020986007221A6089
:1002AC0070470120704700BF10E000E000ED00E057
:1002BC00F0B482B000263546A1E0002C59D0012CB8
:1002CC0000D1CE68FF2B68D88446FF2B68D8AC00D1
:1002DC00DCF800200F27A74022EA070206FA04F4F4
:1002EC002243CCF800204A6812F0805F00F0868030
:1002FC005E4A946944F001049461926902F001022F
:10030C000192019AAC08A71C594A52F8272005F013
:10031C000307BF004FF00F0C0CFA07FC22EA0C0C81
:10032C00544A904242D002F5806290427FD002F54E
:10033C00806290427DD002F58062904234D00422DB
:10034C0035E04D4FBC4214D00BD94C4FBC4210D0B1
:10035C0007F58037BC420CD0A7F58017BC42B1D151
:10036C0007E0A7F58017BC4203D007F58037BC42E5
:10037C00A8D18C687CB1012C08D042610826A1E779
:10038C00CE6808369EE7CE680C369BE702610826DD
:10039C0098E7002696E7042694E700F1040C94E70E
:1003AC00A5F10804A40093E7032200E00022BA4060
:1003BC0042EA0C0202342E4F47F824204A6812F409
:1003CC00803F38D02E4C22681A4322604A6812F4BF
:1003DC00003F36D02A4C62681A4362604A6812F4B5
:1003EC00801F34D0264CA2681A43A2604A6812F4CB
:1003FC00001F32D0224CE2681343E36001350F2D0D
:10040C0031D80122AA400B6813409A42F6D14C68AD
:10041C00122CB8D095D8022CB2D07FF64EAF032C4C
:10042C00B7D0112C7FF44EAFCE6804364AE70122C8
:10043C00BDE70222BBE7124C226822EA03022260CB
:10044C00C4E70F4C626822EA03026260C6E70C4CF8
:10045C00A26822EA0302A260C8E7094CE26822EA19
:10046C000303E360CAE702B0F0BC7047001002401F
:10047C000000014000080140000021100000311074
:10048C000004014012B90904016170470161704711
:10049C0003685A6912F4806F0DD06FF480625A6150
:1004AC000423036400230363202280F83D2080F89A
:1004BC003C300120704700207047F8B506460C46CA
:1004CC0017461D461EE02DB1FFF77CFE069BC01A99
:1004DC00A84217D900233363202286F83D2086F8E2
:1004EC003E3086F83C3003201AE033685B6924EA1E
:1004FC0003039BB2B3FA83F35B099F420FD1B5F1AF
:10050C00FF3FE0D1C4F30743012BEED033689B6966
:10051C0024EA03039BB2B3FA83F35B09EDE70020F3
:10052C00F8BDF8B504460D4616461F4632E01A686B
:10053C0042F400721A6023686FF480625A610423DB
:10054C00236400232363202284F83D2084F83C306C
:10055C0001202DE026B1FFF735FEC01BB04219D9A2
:10056C0000232363202284F83D2084F83C300320B0
:10057C001EE023685B6925EA03039BB2003318BFB6
:10058C000123A3B123685A6912F4806FCFD1B6F15D
:10059C00FF3FDFD1C5F30743012BEAD023689B69EA
:1005AC0025EA03039BB2003318BF0123E9E70020BF
:1005BC00F8BD0000F0B583B004460D4616461F4644
:1005CC00C36A042B0DD0012B0BD013F5803F08D040
:1005DC00036B122B0AD10268136843F48073136007
:1005EC0004E02268136843F4807313600097334669
:1005FC0000224FF001112046FFF75FFF58BB236923
:10060C00B3F5804F10D1236805F0FE051D613B4604
:10061C00324615492046FFF784FF0346E0B1236CB0
:10062C00042B1ED1012317E0EB11226803F0060303
:10063C0043F0F00313613B4632460C492046FFF76A
:10064C0070FF20B1236C042B09D1012304E0236833
:10065C00EDB21D61DBE70323184603B0F0BD0323A5
:10066C00FAE70323F8E700BF0200010008000100CD
:10067C002DE9F04184B004460D4616461F46C26A69
:10068C0001680B6843F480630B60042A0DD0012AC7
:10069C000BD012F5803F08D0036B112B0AD10268E6
:1006AC00136843F48073136004E02268136843F406
:1006BC00807313600097334600224FF001112046DF
:1006CC00FFF7FBFE002852D12369B3F5804F12D1FE
:1006DC00236845F00105EDB21D613B4632462A49BF
:1006EC002046FFF71EFF0346002841D0236C042B45
:1006FC0048D101233CE04FEAE51808F006082368CE
:10070C0048F0F0021A613B46324620492046FFF77A
:10071C0008FF20B1236C042B2ED1012328E0236881
:10072C00EDB21D613B46324617492046FFF7F9FEF4
:10073C0020B1236C042B21D1012319E00022039258
:10074C00236859690391996903910399196841F4D4
:10075C0080711960009733464FF001112046FFF766
:10076C00ACFE68B9226848F0F1031361B5E70323C6
:10077C00184604B0BDE8F0810323F9E70323F7E73B
:10078C000323F5E70323F3E702000100080001004F
:10079C0070B504460D46164623685B6913F0800F4E
:1007AC0019D12046FFF774FEB8B9B5F1FF3FF3D06D
:1007BC0025B1FFF707FD801BA842EDD9236C43F050
:1007CC002003236400232363202284F83D2084F833
:1007DC003C30032000E0002070BD0120FCE770B528
:1007EC0004460D46164623685B6913F0040F19D1B5
:1007FC002046FFF74DFEB8B9B5F1FF3FF3D025B158
:10080C00FFF7E0FC801BA842EDD9236C43F02003DA
:10081C00236400232363202284F83D2084F83C3099
:10082C00032000E0002070BD0120FCE770B50546F8
:10083C000C4616462B685A6912F0400F22D15A69A1
:10084C0012F0100F11D124B1FFF7BCFC801BA04299
:10085C00F0D92B6C43F020032B64202385F83D301A
:10086C00002385F83C30032070BD6FF010025A61F4
:10087C0000232B642B63202285F83D2085F83C3027
:10088C000120F1E70020EFE7002800F0A28038B546
:10089C00044690F83D30002B4FD0242384F83D3093
:1008AC002268136823F00103136000F0EDFD626809
:1008BC004A4B9A4246D84A4B98428CBF002301239C
:1008CC00002B40F08880474BA3FB00239B0C226835
:1008DC0053606168414A91423AD8013322681362ED
:1008EC0061683E4B99423DD8431E4900B3FBF1F37E
:1008FC000133C3F30B03042B38BF04232268D361E9
:10090C00E369216A22680B4313602369E16822685A
:10091C000B4393606369A16922680B43D36022681F
:10092C00136843F00103136000202064202384F833
:10093C003D30206384F83E0038BD80F83C3000F038
:10094C006FFFAAE7284B98428CBF00230123B7E71F
:10095C004FF4967202FB03F3244AA2FB03239B0978
:10096C000133BBE7A368BBB9421E01EB4105B2FBE7
:10097C00F5F20132C2F30B02B2FA82F2520932BB27
:10098C00C3B9013801EB4103B0FBF3F30133C3F3FB
:10099C000B0343F40043B1E7421E01EB810505EB69
:1009AC008505B2FBF5F20132C2F30B02B2FA82F208
:1009BC005209E4E7013801EB810303EB8303B0FB3D
:1009CC00F3F30133C3F30B0343F4404396E70123E2
:1009DC0094E7012070470120AEE700BFA08601001C
:1009EC007F841E0083DE1B43FF083D00D34D621045
:1009FC002DE9F04184B004460E4690461F46FFF7A1
:100A0C00E1FB94F83D30DBB2202B04D002263046BB
:100A1C0004B0BDE8F0810546009019230122544929
:100A2C002046FFF74AFD002840F0998094F83C30AE
:100A3C00012B00F09680012384F83C3023681A685F
:100A4C0012F0010F03D11A6842F001021A602268F9
:100A5C00136823F400631360212384F83D301023C2
:100A6C0084F83E3000232364C4F824806785A3F502
:100A7C008033E362638D23852B460A9A31462046E8
:100A8C00FFF798FD064660B1236C042B04D10023BC
:100A9C0084F83C300126BAE7002384F83C30032666
:100AAC00B5E70023039323685A6903929B69039368
:100ABC00039B10E0236C042B55D12268136843F47C
:100ACC00007313600126A2E72A460A992046FFF715
:100ADC0086FE00282BD1238D002B32D02A460A9972
:100AEC002046FFF755FE0028E4D1636A5A1C626267
:100AFC0022681B781361638D013B9BB26385238D48
:100B0C00013B9BB223852268516911F0040FDBD0A5
:100B1C00002BD9D0636A591C61621B781361638DF9
:100B2C00013B9BB26385238D013B2385CCE7236C72
:100B3C00042B1AD12268136843F400731360012646
:100B4C0065E72268136843F400731360202384F86C
:100B5C003D30002384F83E3084F83C3057E70226C1
:100B6C0055E7022653E7032651E703264FE700BF5C
:100B7C00020010002DE9F04186B004460E46904666
:100B8C001F46FFF71FFB94F83D30DBB2202B04D03F
:100B9C000226304606B0BDE8F081054600901923C8
:100BAC0001228F492046FFF788FC002840F0518134
:100BBC0094F83C30012B00F04E81012384F83C303A
:100BCC0023681A6812F0010F03D11A6842F001026F
:100BDC001A602268136823F400631360222384F8DC
:100BEC003D30102384F83E3000232364C4F8248065
:100BFC006785A3F58033E362638D23852B460C9ABE
:100C0C0031462046FFF734FD064660B1236C042BB9
:100C1C0004D1002384F83C300126BAE7002384F881
:100C2C003C300326B5E7238D5BB9029323685A69E0
:100C3C0002929A690292029A1A6842F400721A603D
:100C4C007FE0012B0FD0022B21D02268136843F4D4
:100C5C00806313600023059323685A6905929B698E
:100C6C000593059B6DE02268136823F48063136081
:100C7C0072B60023039323685A6903929A6903920C
:100C8C00039A1A6842F400721A6062B659E022683C
:100C9C00136843F40063136072B600230493236853
:100CAC005A6904929A690492049A1A6822F480622E
:100CBC001A6062B645E02A460C992046FFF7B6FD4D
:100CCC0068B923681A69636A591C61621A70238DAA
:100CDC00013B2385638D013B9BB2638531E0236C23
:100CEC00202B01D0012654E7032652E700950C9BDC
:100CFC0000223C492046FFF7E0FB002840F0AD8085
:100D0C0072B62268136843F40073136023681A697F
:100D1C00636A591C61621A70238D013B2385638DB4
:100D2C00013B9BB2638562B623681A69636A591CDE
:100D3C0061621A70238D013B2385638D013B9BB24D
:100D4C006385238D002B7BD0032B4DD8012BB2D088
:100D5C00022BCBD000950C9B002222492046FFF79A
:100D6C00ACFB00287BD12268136823F480631360EA
:100D7C0072B623681A69636A591C61621A70238DF2
:100D8C00013B2385638D013B9BB2638500950C9BD6
:100D9C00002214492046FFF790FB002861D12268FD
:100DAC00136843F40073136023681A69636A591C4F
:100DBC0061621A70238D013B2385638D013B9BB2CD
:100DCC00638562B623681A69636A591C61621A707A
:100DDC00238D013B2385638D013B9BB26385B0E77B
:100DEC0002001000040001002A460C992046FFF76F
:100DFC001DFDF0B923681A69636A591C61621A7087
:100E0C00238D013B2385638D013B9BB26385236856
:100E1C005A6912F0040F94D01A69636A591C616202
:100E2C001A70238D013B2385638D013B9BB2638537
:100E3C0087E7236C202B01D00126AAE60326A8E61F
:100E4C00202384F83D30002384F83E3084F83C3075
:100E5C009FE602269DE602269BE6032699E60326DC
:100E6C0097E6032695E600BF82B0084B1B68084A3C
:100E7C00A2FB03235B0A00FB03F0019000BF019B64
:100E8C005A1E0192002BF9D102B0704708000020C5
:100E9C00D34D621070B582B00446036813F0010F95
:100EAC002CD0AB4B5B6803F00C03042B1DD0A84B70
:100EBC005B6803F00C03082B12D06368B3F5803F1A
:100ECC0041D0002B55D103F1804303F504331A684C
:100EDC0022F480321A601A6822F480221A6037E0F9
:100EEC009B4B5B6813F4803FE7D0994B1B6813F462
:100EFC00003F03D06368002B00F0AE81236813F031
:100F0C00020F76D0924B5B6813F00C0F5FD0904BB6
:100F1C005B6803F00C03082B54D02369002B00F002
:100F2C008A808C4B01221A60FFF74CF90546884BDE
:100F3C001B6813F0020F75D1FFF744F9401B022810
:100F4C00F5D903208BE1824A136843F48033136094
:100F5C00636843B3FFF736F905467D4B1B6813F402
:100F6C00003FCBD1FFF72EF9401B6428F5D90320A5
:100F7C0075E1B3F5A02F09D0754B1A6822F48032B5
:100F8C001A601A6822F480221A60E1E703F18043A8
:100F9C00A3F53C331A6842F480221A601A6842F4B2
:100FAC0080321A60D4E7FFF70DF90546684B1B68D1
:100FBC0013F4003FA2D0FFF705F9401B6428F5D9C4
:100FCC0003204CE1624B5B6813F4803FA5D1604B6E
:100FDC001B6813F0020F04D02369012B01D00120F0
:100FEC003DE15B4A136823F0F803616943EAC103EE
:100FFC001360236813F0080F32D0A369002B5BD069
:10100C00554B01221A60FFF7DDF80546504B5B6A21
:10101C0013F0020F21D1FFF7D5F8401B0228F5D9A8
:10102C0003201CE14A4A136823F0F803616943EA80
:10103C00C1031360DDE7474B00221A60FFF7C2F8CB
:10104C000546434B1B6813F0020FD2D0FFF7BAF8DA
:10105C00401B0228F5D9032001E10120FFF704FF12
:10106C00236813F0040F00F09780394BDB6913F001
:10107C00805F33D1364BDA6942F08052DA61DB693A
:10108C0003F080530193019B0125344B1B6813F42F
:10109C00807F25D0E368012B36D0002B4CD103F197
:1010AC00804303F504331A6A22F001021A621A6AA9
:1010BC0022F004021A622CE0274B00221A60FFF780
:1010CC0081F80546224B5B6A13F0020FC8D0FFF77C
:1010DC0079F8401B0228F5D90320C0E00025D4E79D
:1010EC001E4A136843F480731360FFF76BF80646CF
:1010FC001A4B1B6813F4807FCCD1FFF763F8801B6D
:10110C006428F5D90320AAE0114A136A43F00103BD
:10111C001362E36873B3FFF755F806460C4B1B6A72
:10112C0013F0020F37D1FFF74DF8801B41F28833D3
:10113C009842F3D9032092E0052B11D0044B1A6A84
:10114C0022F001021A621A6A22F004021A62E0E723
:10115C0000100240000042428004424200700040F5
:10116C00414B1A6A42F004021A621A6A42F00102F6
:10117C001A62CEE7FFF726F806463B4B1B6A13F0C4
:10118C00020F08D0FFF71EF8801B41F288339842FB
:10119C00F3D9032063E0E5B9E369002B5ED0324A52
:1011AC00526802F00C02082A5BD0022B17D02F4B8E
:1011BC0000221A60FFF706F804462B4B1B6813F04D
:1011CC00007F47D0FEF7FEFF001B0228F5D9032055
:1011DC0045E0254AD36923F08053D361DCE7234BE8
:1011EC0000221A60FEF7EEFF05461F4B1B6813F03A
:1011FC00007F06D0FEF7E6FF401B0228F5D903203E
:10120C002DE0236AB3F5803F1AD017494B6823F4BD
:10121C007413226A606A024313434B60134B01221E
:10122C001A60FEF7CFFF04460F4B1B6813F0007FCC
:10123C000ED1FEF7C7FF001B0228F5D903200EE0E4
:10124C00094A536823F40033A1680B435360DCE76D
:10125C00002004E0002002E0012000E0002002B0A9
:10126C0070BD0120FBE700BF00100240600042424D
:10127C0010B487B0164C94E80F000DF1180C0CE963
:10128C000F00238AADF80430124B5B6803F00C029C
:10129C00082A1AD1C3F38342624412F8102C13F4B7
:1012AC00803F05D10C4800FB02F007B010BC704722
:1012BC00084B5B68C3F34043634413F8143C074882
:1012CC0000FB02F0B0FBF3F0EFE70448EDE700BFE2
:1012DC00C81900080010024000093D0000127A00F5
:1012EC00624B1B6803F007038B420CD25F4A1368F6
:1012FC0023F007030B431360136803F007038B42BF
:10130C0001D00120704770B5036813F0020F17D09D
:10131C0013F0040F04D0564A536843F4E06353604F
:10132C00036813F0080F04D0514A536843F4605318
:10133C0053604F4A536823F0F0038468234353608F
:10134C000D460446036813F0010F52D04368012B7D
:10135C0023D0022B28D0464A126812F0020F00F05C
:10136C00828043494A6822F0030213434B60FEF724
:10137C0029FF06466368012B1DD0022B2AD03C4B5B
:10138C005B6813F00C0F34D0FEF71CFF801B41F28E
:10139C0088339842F3D9032064E0354A126812F47A
:1013AC00003FDED101205DE0314A126812F0007F6F
:1013BC00D7D1012056E02E4B5B6803F00C03042BB5
:1013CC0017D0FEF7FFFE801B41F288339842F2D90A
:1013DC00032047E0264B5B6803F00C03082B08D076
:1013EC00FEF7F0FE801B41F288339842F2D90320BD
:1013FC0038E01E4B1B6803F00703AB420CD91B4AA9
:10140C00136823F007032B431360136803F00703DF
:10141C00AB4201D0012025E0236813F0040F06D065
:10142C00134A536823F4E063E1680B435360236869
:10143C0013F0080F07D00E4A536823F46053216948
:10144C0043EAC1035360FFF713FF094B5B68C3F317
:10145C000313084AD35CD840074B18600020FEF7F2
:10146C006FFE002070BD0120FCE700BF0020024091
:10147C0000100240DC19000808000020014B18681D
:10148C00704700BF0800002008B5FFF7F7FF044BBA
:10149C005B68C3F30223034AD35CD84008BD00BF8A
:1014AC0000100240EC19000808B55422014602480D
:1014BC0000F064FA08BD00BF2800002070B584B0AD
:1014CC000D46164604AA02F8040D094C0A23009393
:1014DC000123D0212046FFF78BFA64230093334677
:1014EC002A46D0212046FFF745FB04B070BD00BF53
:1014FC002800002000B585B08DF80C008DF80D107B
:10150C0064230093022303AAD0210348FFF770FA47
:10151C0005B05DF804FB00BF2800002008B50146AB
:10152C001920FFF7E7FF08BD10B5044680216B209A
:10153C00FFF7E0FF6420FEF74BFE217801F0070176
:10154C0023799B0103F0400319436B20FFF7D2FF73
:10155C006420FEF73DFEE17801F007011A20FFF749
:10156C00C9FF6178C90001F018011B20FFF7C2FF09
:10157C00A178C90001F018011C20FFF7BBFF042063
:10158C00FFF7CCFFA378032B06D8DFE803F0020C9F
:10159C001014134B134A5A656378032B12D8DFE8E7
:1015AC0003F00E12161A0E4B0F4A5A65F4E70C4B49
:1015BC000E4A5A65F0E70A4B0D4A5A65ECE7084BA0
:1015CC000C4A9A6510BD064B0B4A9A65FAE7044B18
:1015DC000A4A9A65F6E7024B024A9A65F2E700BF9F
:1015EC002800002000007A3D0000FA3D00007A3E01
:1015FC000000FA3E0000FA3B00007A3C0000FA3C86
:10160C0010B586B0044601220DF115013A20FFF702
:10161C0055FF9DF815300BB906B010BD062203A975
:10162C003B20FFF74BFF9DF80C209DF80D3003EB92
:10163C00022323809DF80E209DF80F3003EB02232C
:10164C0063809DF810209DF8113003EB0223A380DA
:10165C00062201A94320FFF731FF9DF804309DF8C5
:10166C00052002EB03220A4BA3F85C209DF8061020
:10167C009DF8072002EB0122A3F85E209DF80810CC
:10168C009DF8092002EB0122A3F86020C4E700BFFB
:10169C0028000020054BB3F95C200280B3F95E20D2
:1016AC004280B3F960308380704700BF280000206F
:1016BC0082B00A4B9A6942F004029A619A6902F06C
:1016CC0004020092009A9A6942F008029A619B699E
:1016DC0003F008030193019B02B070470010024015
:1016EC0008B50948094B0360094B4360002383602C
:1016FC00C3604FF48042026143618361C361036242
:10170C00FFF7C2F808BD00BF9C0000200054004049
:10171C00A086010030B591B02022002107A800F06E
:10172C0038F900240194029403940494059402253E
:10173C00069501230A9310230B930D954FF4601318
:10174C000F9306A8FFF7A6FB0F23019302950394B2
:10175C004FF4806304930594294601A8FFF7C0FD5C
:10176C0011B030BD00B583B0FEF70EFDFFF7D2FF10
:10177C00FFF79EFFFFF7B4FF1448FFF795FE012318
:10178C008DF8023000228DF800208DF803308DF892
:10179C0001308DF804206846FFF7C6FE0C48FFF7B1
:1017AC002FFF0C48FFF776FF0B4C00224FF4005133
:1017BC002046FEF767FE4FF47A70FEF709FD012212
:1017CC004FF400512046FEF75DFEE7E79C00002039
:1017DC00F0000020F80000200010014082B00E4BF9
:1017EC009A6942F001029A619A6902F00102009230
:1017FC00009ADA6942F08052DA61DB6903F08053B7
:10180C000193019B054A536823F0E06343F0007396
:10181C00536002B0704700BF00100240000001404E
:10182C0010B586B0002302930393049305930268CA
:10183C00114B9A4201D006B010BD104CA36943F075
:10184C000803A361A36903F008030093009BC02362
:10185C000293122303930323059302A90848FEF76E
:10186C0027FDE36943F40013E361E36903F4001318
:10187C000193019BDFE700BF0054004000100240C1
:10188C00000C01407047FEE7FEE7FEE7FEE77047FD
:10189C007047704708B5FEF789FC08BD0F4B1A68F6
:1018AC0042F001021A6059680D4A0A405A601A68DF
:1018BC0022F0847222F480321A601A6822F4802298
:1018CC001A605A6822F4FE025A604FF41F029A60A2
:1018DC00044B4FF000629A60704700BF001002404A
:1018EC000000FFF800ED00E0002103E00B4B5B581B
:1018FC00435004310A480B4B42189A42F6D30A4A19
:10190C0002E0002342F8043B084B9A42F9D3FFF75C
:10191C00C5FF00F00FF8FFF725FF7047FC19000812
:10192C00000000200C0000200C00002018010020FA
:10193C00FEE7000070B500250C4E0D4CA41BA41046
:10194C00A54209D100F02EF800250A4E0A4CA41B22
:10195C00A410A54205D170BD56F825309847013525
:10196C00EEE756F8253098470135F2E7F4190008F0
:10197C00F4190008F4190008F819000810B5431EF2
:10198C000A44914200D110BD11F8014B03F8014FEC
:10199C00F7E703460244934200D1704703F8011B5A
:1019AC00F9E70000F8B500BFF8BC08BC9E467047CC
:0C19BC00F8B500BFF8BC08BC9E467047A0
:1019C80002030405060708090A0B0C0D0E0F101078
:1019D80001020000000000000000000001020304F2
:0C19E800060708090000000001020304CB
:0419F40031010008B5
:0419F8000D010008D5
:0C19FC00010000001000000000A24A04DE
:04000005080018F5E2
:00000001FF
