:020000040800F2
:1000000000500020A12D00084529000847290008BC
:10001000492900084B2900084D290008000000006C
:100020000000000000000000000000004F29000850
:100030005129000800000000532900085529000834
:10004000E92D0008E92D0008E92D0008E92D000838
:10005000E92D0008E92D0008E92D0008E92D000828
:10006000E92D0008E92D0008E92D0008E92D000818
:10007000E92D0008E92D0008E92D0008E92D000808
:10008000E92D0008E92D0008E92D0008E92D0008F8
:100090005D290008E92D0008E92D0008E92D000878
:1000A000E92D0008E92D0008E92D0008E92D0008D8
:1000B000E92D0008E92D0008E92D0008E92D0008C8
:1000C000E92D0008E92D0008E92D0008E92D0008B8
:1000D000E92D0008E92D0008E92D0008E92D0008A8
:1000E000E92D0008E92D0008E92D000800000000B6
:1000F0000000000000000000000000000000000000
:0C01000000000000000000005FF808F1A3
:10010C0010B5054C237833B9044B13B10448AFF345
:10011C0000800123237010BD60010020000000004E
:10012C00342E000808B5034B1BB103490348AFF349
:10013C00008008BD0000000064010020342E00087F
:10014C0010B504460E4B18784FF47A73B3FBF0F3EA
:10015C000C4A1068B0FBF3F000F08CF868B90F2C67
:10016C0001D901200AE0002221464FF0FF3000F0B7
:10017C0041F8034B5C60002000E0012010BD00BF83
:10018C00000000201801002008B5074A136843F04E
:10019C0010031360032000F01BF80020FFF7D0FFC2
:1001AC0002F0A8FB002008BD00200240034A1168A1
:1001BC00034B1B780B441360704700BFA003002057
:1001CC0000000020014B1868704700BFA0030020FE
:1001DC00074AD36823F4E0631B041B0C000200F4F1
:1001EC00E060184340F0BF6040F40030D0607047CE
:1001FC0000ED00E030B4174BDB68C3F30223C3F10E
:10020C000704042C28BF04241D1D062D18D9033BFC
:10021C004FF0FF3505FA04F421EA0401994005FA80
:10022C0003F322EA0303194300280BDB0901C9B2CB
:10023C0000F1604000F5614080F8001330BC70475D
:10024C000023E5E700F00F000901C9B2024B195475
:10025C00F4E700BF00ED00E014ED00E000F01F0239
:10026C00400901239340024A42F82030704700BFF6
:10027C0000E100E00138B0F1807F0AD2064B5860F3
:10028C00064AF02182F823100020986007221A6099
:10029C0070470120704700BF10E000E000ED00E067
:1002AC00F0B482B000263546A1E0002C59D0012CC8
:1002BC0000D1CE68FF2B68D88446FF2B68D8AC00E1
:1002CC00DCF800200F27A74022EA070206FA04F404
:1002DC002243CCF800204A6812F0805F00F0868040
:1002EC005E4A946944F001049461926902F001023F
:1002FC000192019AAC08A71C594A52F8272005F024
:10030C000307BF004FF00F0C0CFA07FC22EA0C0C91
:10031C00544A904242D002F5806290427FD002F55E
:10032C00806290427DD002F58062904234D00422EB
:10033C0035E04D4FBC4214D00BD94C4FBC4210D0C1
:10034C0007F58037BC420CD0A7F58017BC42B1D161
:10035C0007E0A7F58017BC4203D007F58037BC42F5
:10036C00A8D18C687CB1012C08D042610826A1E789
:10037C00CE6808369EE7CE680C369BE702610826ED
:10038C0098E7002696E7042694E700F1040C94E71E
:10039C00A5F10804A40093E7032200E00022BA4070
:1003AC0042EA0C0202342E4F47F824204A6812F419
:1003BC00803F38D02E4C22681A4322604A6812F4CF
:1003CC00003F36D02A4C62681A4362604A6812F4C5
:1003DC00801F34D0264CA2681A43A2604A6812F4DB
:1003EC00001F32D0224CE2681343E36001350F2D1D
:1003FC0031D80122AA400B6813409A42F6D14C68BE
:10040C00122CB8D095D8022CB2D07FF64EAF032C5C
:10041C00B7D0112C7FF44EAFCE6804364AE70122D8
:10042C00BDE70222BBE7124C226822EA03022260DB
:10043C00C4E70F4C626822EA03026260C6E70C4C08
:10044C00A26822EA0302A260C8E7094CE26822EA29
:10045C000303E360CAE702B0F0BC7047001002402F
:10046C000000014000080140000021100000311084
:10047C000004014012B90904016170470161704721
:10048C00002866D0F0B587B0044690F82934C3B183
:10049C00032384F82934206800F0FFFF254655F823
:1004AC00107B6E460FCD0FC62B683360231D0ECB11
:1004BC00384600F0E3FF0021206800F0F8FF00232D
:1004CC0015E080F8283402F0C9FAE1E704EB431296
:1004DC00012182F8291082F828309386002182F8B5
:1004EC002B109163D1639A1C5201A15001330E2B36
:1004FC00ECD9002312E004EB4312002182F82912FC
:10050C0082F82832938682F82B12C2F83812C2F87D
:10051C003C1203F112025201A15001330E2BEAD905
:10052C00254655F8107B6E460FCD0FC62B683360F1
:10053C00231D0ECB384600F0BCFF002584F8245058
:10054C00012384F82934206801F0C7FA284607B043
:10055C00F0BD0120704790F82834012B10D010B555
:10056C000446012180F8281402F0B1FB206801F048
:10057C00B2FA206800F089FF002084F8280410BD2E
:10058C000220704790F82834012B0DD010B504468A
:10059C00012380F8283480F82410006801F095FAC3
:1005AC00002084F8280410BD0220704738B54DB2E5
:1005BC00002D1CDB01F07F04640104F50A74044473
:1005CC0001F07F012170ED0F65702261E37090F8EE
:1005DC002834012B11D00546012380F828342146FC
:1005EC00006800F07CFF002085F8280438BD01F07D
:1005FC007F04640128340444E2E70220F6E74AB29F
:10060C00002A1BDB01F07F035B0103F50A73034433
:10061C0001F07F011970D20F5A7090F82824012A2A
:10062C0012D010B50446012280F82824194600681F
:10063C0001F0E9F8002084F8280410BD01F07F03D4
:10064C005B0128330344E3E70220704770B501F0E7
:10065C007F056C0104F50A7101440444C4F83C2282
:10066C0005F112025201861883500023736084F83E
:10067C00293284F8285225B1006801F04AFA00208A
:10068C0070BD006801F045FAF9E701F00F01123175
:10069C0000EB41118888704770B501F07F056C0143
:1006AC0004F1280101440444E263AA1C5201861897
:1006BC00835000237360012384F8293084F8285078
:1006CC0025B1006801F025FA002070BD006801F02A
:1006DC0020FAF9E770B582B004460023ADF8063075
:1006EC00ADF804302068B0F844309BB2ADF8063059
:1006FC0013F4004F00F00D82BDF8065015F00F05F5
:10070C0040F0C280BDF8063013F0100F50D00388B3
:10071C009BB2ADF80430BDF8043013F4006F79D1FE
:10072C00BDF8043013F4004FDCD0038823F07003C1
:10073C001B051B0D03802068B0F8503094F828225C
:10074C0003EBC203063300EB4303D3F80034C3F3CB
:10075C000903C4F84432002B7CD10021204602F05E
:10076C00A5F92368B3F85020063203EB4203D4F802
:10077C0038123E297CD9C1F34F1211F01F0F01D151
:10078C00013A92B26FEAC2626FEA524292B2C3F875
:10079C000024226813889BB223F4804323F0700357
:1007AC0083F4405343F4004343F08003138099E7F0
:1007BC0003889BB223F4E14323F070039BB20380C4
:1007CC002268B2F8503094F8281003EBC1030233BE
:1007DC0002EB4303D3F80034C3F309036364E26B05
:1007EC001344E3630021204602F06AF994F82430A4
:1007FC00002B3FF477AF236C002B7FF473AF94F88E
:10080C002430226843F08003A2F84C30002384F893
:10081C00243067E7B0F8503094F8282203EBC20379
:10082C00063300EB4303D3F80034C3F30903C4F8D5
:10083C004432B4F82C2204F22C4101F0C7FA22689D
:10084C00138823F070031B051B0D1380204602F048
:10085C0025F947E7B4F82C22D4F83C1201F0B6FA8B
:10086C00D4F84422D4F83C321344C4F83C3274E734
:10087C00C1F34F0211F0010F01D0013292B292027A
:10088C0092B2C3F8002484E730F825309BB2ADF85F
:10089C000430BDF8043013F4004F35D1BDF80430EA
:1008AC0013F0800F3FF41EAF226832F825309BB254
:1008BC0023F4E14323F070039BB222F8253004EBC0
:1008CC00451393F83230002B40F0B2802068B0F81A
:1008DC00503004EB451292F8282003EBC20302338C
:1008EC0000EB4303D3F80034C3F30903AA1C04EB55
:1008FC0042125360002B00F0C68004EB45118A8D28
:10090C00C96B01F0F1F8BEE030F8253023F070032C
:10091C001B051B0D20F8253004EB451393F83232E0
:10092C00D3B92068B0F8503004EB451292F8282265
:10093C0003EBC203063300EB4303B3F80064C6F3C6
:10094C00090686B304EB45113346B1F82C22D1F8D5
:10095C003C1201F03BFA26E0206804EB451393F8B7
:10096C00282230F8223013F4804F42D0B0F85030A7
:10097C0003EBC203023300EB4303B3F80064C6F38A
:10098C00090666BB226804EB451393F8281232F86B
:10099C00213023F0F0031B051B0D43F4004343F0FF
:1009AC00C00322F8213005F112035B01E1184A68FB
:1009BC0032444A6004EB4511D1F83C223244C1F870
:1009CC003C22E3581BB1D1F838128E4228D204EBEA
:1009DC00451393F82812204602F068F85EE704EB02
:1009EC0045113346B1F82E22D1F83C1201F0EEF944
:1009FC00C8E7B0F8503003EBC203063300EB4303F7
:100A0C00B3F80064C6F30906002EBBD004EB451105
:100A1C003346B1F83022D1F83C1201F0D7F9B1E7E6
:100A2C0004EB451191F828122046FFF70FFE35E72D
:100A3C00206804EB451393F8282030F8223013F08B
:100A4C00400F46D0B0F8503003EBC203023300EB3A
:100A5C004303D3F80034C3F30903AA1C04EB42127A
:100A6C0053607BBB226804EB451393F8281032F8D3
:100A7C00213023F0F0031B051B0D43F4404343F0DE
:100A8C00800322F821302268B2F8503004EB451074
:100A9C0090F8281003EBC103023302EB4303D3F8A5
:100AAC000024C2F30902AB1C5B01E1184A60C16B64
:100ABC000A44C263E35823BB90F82810204601F087
:100ACC00FFFF0FE604EB4511CA8DC96B01F00CF862
:100ADC00C8E7B0F8503003EBC203063300EB430316
:100AEC00D3F80034C3F30903AA1C04EB421253607D
:100AFC00002BB7D004EB45110A8EC96B00F0F4FF44
:100B0C00B0E704EB451595F828102046FFF7C4FD17
:100B1C00E8E5002002B070BD10B50446006800F096
:100B2C00DEFF10F4004F45D1206800F0D8FF10F420
:100B3C00806F43D1206800F0D2FF10F4804F08D0B2
:100B4C002268B2F844309BB223F480439BB2A2F8E3
:100B5C004430206800F0C3FF10F4005F08D0226816
:100B6C00B2F844309BB223F400539BB2A2F8443049
:100B7C00206800F0B4FF10F4805F30D1206800F0E2
:100B8C00AEFF10F4006F49D1206800F0A8FF10F4FC
:100B9C00007F64D1206800F0A2FF10F4807F08D0A1
:100BAC002268B2F844309BB223F480739BB2A2F853
:100BBC00443010BD2046FFF78DFDB5E72268B2F832
:100BCC0044309BB223F480639BB2A2F8443020469D
:100BDC0001F085FF00212046FFF7D4FCAAE722682C
:100BEC00B2F840309BB223F004039BB2A2F8403021
:100BFC002268B2F840309BB223F008039BB2A2F8F3
:100C0C004030204601F088FF2268B2F844309BB295
:100C1C0023F480539BB2A2F84430AFE72268B2F8B9
:100C2C00403043F00803A2F840302268B2F8443058
:100C3C009BB223F400639BB2A2F844302268B2F852
:100C4C00403043F00403A2F84030206800F047FF26
:100C5C0010F4805F98D1204601F04EFF94E7226893
:100C6C00B2F844309BB223F400739BB2A2F8443028
:100C7C00204601F02EFF8DE738B54AB2002A1BDB67
:100C8C004B0103F50A73034401249C7001F07F05AA
:100C9C001D70D20F5A7090F82824A24218D0044626
:100CAC00012280F828241946006800F08EFE4DB110
:100CBC00002084F8280438BD01F07F035B01283341
:100CCC000344E1E704F22C41206800F00BFFEFE74E
:100CDC000220F0E710B54AB2002A1ADB4B0103F5EB
:100CEC000A73034400249C7001F07F011970D20F29
:100CFC005A7090F82824012A11D00446012280F859
:100D0C0028241946006800F097FE002084F8280477
:100D1C0010BD01F07F035B0128330344E2E702209E
:100D2C00F6E711F0800F0CD001F07F01490128315A
:100D3C0001445AB101228A72CB801B0C0B8100201A
:100D4C007047490101F50A710144F2E78A728B8000
:100D5C00F5E7000082B0084B1B68084AA2FB03238E
:100D6C005B0A00FB03F0019000BF019B5A1E01922D
:100D7C00002BF9D102B0704718010020D34D62103E
:100D8C0070B582B00446036813F0010F2CD0AB4B46
:100D9C005B6803F00C03042B1DD0A84B5B6803F0BD
:100DAC000C03082B12D06368B3F5803F41D0002BA5
:100DBC0055D103F1804303F504331A6822F48032D1
:100DCC001A601A6822F480221A6037E09B4B5B6829
:100DDC0013F4803FE7D0994B1B6813F4003F03D00A
:100DEC006368002B00F0AE81236813F0020F76D0FD
:100DFC00924B5B6813F00C0F5FD0904B5B6803F069
:100E0C000C03082B54D02369002B00F08A808C4BE8
:100E1C0001221A60FFF7D6F90546884B1B6813F0C0
:100E2C00020F75D1FFF7CEF9401B0228F5D903202C
:100E3C008BE1824A136843F480331360636843B3D5
:100E4C00FFF7C0F905467D4B1B6813F4003FCBD16F
:100E5C00FFF7B8F9401B6428F5D9032075E1B3F509
:100E6C00A02F09D0754B1A6822F480321A601A68C8
:100E7C0022F480221A60E1E703F18043A3F53C33AE
:100E8C001A6842F480221A601A6842F480321A609E
:100E9C00D4E7FFF797F90546684B1B6813F4003F3E
:100EAC00A2D0FFF78FF9401B6428F5D903204CE141
:100EBC00624B5B6813F4803FA5D1604B1B6813F049
:100ECC00020F04D02369012B01D001203DE15B4AC4
:100EDC00136823F0F803616943EAC10313602368C4
:100EEC0013F0080F32D0A369002B5BD0554B0122B5
:100EFC001A60FFF767F90546504B5B6A13F0020F57
:100F0C0021D1FFF75FF9401B0228F5D903201CE122
:100F1C004A4A136823F0F803616943EAC10313607A
:100F2C00DDE7474B00221A60FFF74CF90546434BAF
:100F3C001B6813F0020FD2D0FFF744F9401B0228B4
:100F4C00F5D9032001E10120FFF704FF236813F01A
:100F5C00040F00F09780394BDB6913F0805F33D1BD
:100F6C00364BDA6942F08052DA61DB6903F0805368
:100F7C000193019B0125344B1B6813F4807F25D012
:100F8C00E368012B36D0002B4CD103F1804303F5E1
:100F9C0004331A6A22F001021A621A6A22F004025D
:100FAC001A622CE0274B00221A60FFF70BF905465A
:100FBC00224B5B6A13F0020FC8D0FFF703F9401BFA
:100FCC000228F5D90320C0E00025D4E71E4A136897
:100FDC0043F480731360FFF7F5F806461A4B1B6851
:100FEC0013F4807FCCD1FFF7EDF8801B6428F5D982
:100FFC000320AAE0114A136A43F001031362E36869
:10100C0073B3FFF7DFF806460C4B1B6A13F0020FA5
:10101C0037D1FFF7D7F8801B41F288339842F3D9C8
:10102C00032092E0052B11D0044B1A6A22F0010226
:10103C001A621A6A22F004021A62E0E700100240F7
:10104C00000042428004424200700040414B1A6A48
:10105C0042F004021A621A6A42F001021A62CEE7E6
:10106C00FFF7B0F806463B4B1B6A13F0020F08D093
:10107C00FFF7A8F8801B41F288339842F3D903207C
:10108C0063E0E5B9E369002B5ED0324A526802F0A6
:10109C000C02082A5BD0022B17D02F4B00221A60AF
:1010AC00FFF790F804462B4B1B6813F0007F47D0DA
:1010BC00FFF788F8001B0228F5D9032045E0254AE4
:1010CC00D36923F08053D361DCE7234B00221A60F1
:1010DC00FFF778F805461F4B1B6813F0007F06D00E
:1010EC00FFF770F8401B0228F5D903202DE0236A86
:1010FC00B3F5803F1AD017494B6823F47413226A56
:10110C00606A024313434B60134B01221A60FFF7D2
:10111C0059F804460F4B1B6813F0007F0ED1FFF7F4
:10112C0051F8001B0228F5D903200EE0094A536838
:10113C0023F40033A1680B435360DCE7002004E088
:10114C00002002E0012000E0002002B070BD012070
:10115C00FBE700BF001002406000424210B487B0B1
:10116C00164C94E80F000DF1180C0CE90F00238AB3
:10117C00ADF80430124B5B6803F00C02082A1AD14C
:10118C00C3F38342624412F8102C13F4803F05D150
:10119C000C4800FB02F007B010BC7047084B5B68B2
:1011AC00C3F34043634413F8143C074800FB02F0BC
:1011BC00B0FBF3F0EFE70448EDE700BF4C2E00085E
:1011CC000010024000093D0000127A00624B1B68BF
:1011DC0003F007038B420CD25F4A136823F007031A
:1011EC000B431360136803F007038B4201D00120FB
:1011FC00704770B5036813F0020F17D013F0040F8B
:10120C0004D0564A536843F4E0635360036813F008
:10121C00080F04D0514A536843F4605353604F4A4B
:10122C00536823F0F0038468234353600D4604464F
:10123C00036813F0010F52D04368012B23D0022B0B
:10124C0028D0464A126812F0020F00F082804349FF
:10125C004A6822F0030213434B60FEF7B3FF0646C5
:10126C006368012B1DD0022B2AD03C4B5B6813F01A
:10127C000C0F34D0FEF7A6FF801B41F28833984246
:10128C00F3D9032064E0354A126812F4003FDED132
:10129C0001205DE0314A126812F0007FD7D10120A5
:1012AC0056E02E4B5B6803F00C03042B17D0FEF7B3
:1012BC0089FF801B41F288339842F2D9032047E022
:1012CC00264B5B6803F00C03082B08D0FEF77AFF63
:1012DC00801B41F288339842F2D9032038E01E4B30
:1012EC001B6803F00703AB420CD91B4A136823F0AD
:1012FC0007032B431360136803F00703AB4201D0C1
:10130C00012025E0236813F0040F06D0134A53681C
:10131C0023F4E063E1680B435360236813F0080F78
:10132C0007D00E4A536823F46053216943EAC10382
:10133C005360FFF713FF094B5B68C3F30313084AB1
:10134C00D35CD840074B18600020FEF7F9FE002054
:10135C0070BD0120FCE700BF0020024000100240DD
:10136C00602E00081801002070B582B00446036896
:10137C0013F0010F34D03E4BDB6913F0805F48D182
:10138C003B4BDA6942F08052DA61DB6903F080533F
:10139C000193019B0125374B1B6813F4807F3AD0D6
:1013AC00334B1B6A13F4407311D0626802F4407221
:1013BC009A420CD02E4A136A23F440702E4901260F
:1013CC000E6000260E60106213F0010F37D1284A10
:1013DC00136A23F4407361680B431362002D3FD1F1
:1013EC00236813F0020F06D0214A536823F44043BC
:1013FC00A1680B435360236813F0100F35D01C4ABF
:10140C00536823F48003E1680B435360002002B05F
:10141C0070BD0025BFE7174A136843F4807313604F
:10142C00FEF7D0FE0646134B1B6813F4807FB7D132
:10143C00FEF7C8FE801B6428F5D90320E7E7FEF70A
:10144C00C1FE06460A4B1B6A13F0020FBFD1FEF712
:10145C00B9FE801B41F288339842F3D90320D6E7BA
:10146C00D36923F08053D361BAE70020CFE700BFE4
:10147C0000100240007000404004424284B001A8B9
:10148C0080E80E00002004B07047B0F8403043F400
:10149C003F43A0F8403000207047B0F8403023F4B0
:1014AC0074535B045B0CA0F84030002070470020A4
:1014BC00704784B038B505AC84E80E000123A0F861
:1014CC0040300024A0F84040A0F84440A0F8504020
:1014DC00FFF7DBFF2046BDE8384004B0704710B47E
:1014EC00CB78032B0FD8DFE803F0026D54600A7839
:1014FC0030F822309BB223F4EC4323F0700343F416
:10150C00007320F822300A7830F8223023F0F003F0
:10151C001B051B0D134343F4004343F0800320F8D9
:10152C0022308B7A002B40F0AF804B78002B56D0BA
:10153C008A885208B0F850300C7803EBC40300EBE7
:10154C0043035200C3F800240A7830F8223013F019
:10155C00400F0BD030F8223023F0F0031B051B0D8D
:10156C0043F4004343F0C00320F822300A7830F8EB
:10157C0022309BB223F4E04323F0400383F020039A
:10158C0043F4004343F0800320F82230002010BCC9
:10159C0070470A7830F822309BB223F4EC4323F0E6
:1015AC0070039BB220F82230ADE70A7830F8223075
:1015BC009BB223F4EC4323F0700343F4C06320F894
:1015CC002230A0E70A7830F822309BB223F4EC43A7
:1015DC0023F0700343F4806320F8223093E78A8869
:1015EC005208B0F850300C7803EBC403043300EB12
:1015FC0043035200C3F80024B0F850300A7803EBD0
:10160C00C203063300EB43030C693E2C30D9C4F300
:10161C004F1214F01F0F01D1013A92B26FEAC2625D
:10162C006FEA524292B2C3F800240A7830F82230A2
:10163C0013F4804F0BD030F8223023F0F0031B054D
:10164C001B0D43F4404343F0800320F822300A780A
:10165C0030F822309BB223F4804323F0700383F4E0
:10166C00405343F4004343F0800320F822308DE7CD
:10167C00C4F34F0214F0010F01D0013292B2920266
:10168C0092B2C3F80024D0E70A7830F8223023F461
:10169C00F8731B051B0D43F4014343F0800320F842
:1016AC002230CA885208B0F850300C7803EBC403CF
:1016BC0000EB43035200C3F800240A895208B0F827
:1016CC0050300C7803EBC403043300EB430352009B
:1016DC00C3F800244B78002B4BD10A7830F8223019
:1016EC0013F4804F0BD030F8223023F0F0031B059D
:1016FC001B0D43F4404343F0800320F822300A785A
:10170C0030F8223013F0400F0BD030F8223023F099
:10171C00F0031B051B0D43F4004343F0C00320F8FA
:10172C0022300A7830F8223023F0F0031B051B0D11
:10173C0043F4004343F0C00320F822300A7830F819
:10174C0022309BB223F4804323F0700383F4405384
:10175C0048F28004234320F822300A7830F82230F3
:10176C009BB223F4E04323F04003234320F82230C0
:10177C000CE70A7830F8223013F4804F0BD030F895
:10178C00223023F0F0031B051B0D43F4404343F0C0
:10179C00800320F822300A7830F8223013F0400F02
:1017AC000BD030F8223023F0F0031B051B0D43F453
:1017BC00004343F0C00320F822300A7830F822307E
:1017CC0023F0F0031B051B0D43F4404343F080034F
:1017DC0020F822300B7830F8232092B222F4E04229
:1017EC0022F0400248F28004224320F823200A7899
:1017FC0030F822309BB223F4804323F07003234350
:10180C0020F82230C2E68B7A002B44D14B780BB3F4
:10181C000A7830F8223013F0400F0BD030F8223019
:10182C0023F0F0031B051B0D43F4004343F0C003EE
:10183C0020F822300A7830F822309BB223F4E043AF
:10184C0023F0400343F4004343F0800320F822309C
:10185C00002070470A7830F8223013F4804F0BD0F8
:10186C0030F8223023F0F0031B051B0D43F44043EA
:10187C0043F0800320F822300A7830F822309BB2F3
:10188C0023F4804323F0700343F4004343F08003BC
:10189C0020F82230DCE710B44B78002B4BD10A78BF
:1018AC0030F8223013F4804F0BD030F8223023F074
:1018BC00F0031B051B0D43F4404343F0800320F859
:1018CC0022300A7830F8223013F0400F0BD030F869
:1018DC00223023F0F0031B051B0D43F4004343F0AF
:1018EC00C00320F822300A7830F8223023F0F003BD
:1018FC001B051B0D43F4004343F0C00320F82230BA
:10190C000B7830F8232092B222F4804222F070023D
:10191C0048F28004224320F823200A7830F8223041
:10192C009BB223F4E04323F04003234320F82230FE
:10193C00002010BC70470A7830F8223013F4804F26
:10194C000BD030F8223023F0F0031B051B0D43F4B1
:10195C00404343F0800320F822300A7830F82230DC
:10196C0013F0400F0BD030F8223023F0F0031B059E
:10197C001B0D43F4004343F0C00320F822300A78D7
:10198C0030F8223023F0F0031B051B0D43F44043C9
:10199C0043F0800320F822300B7830F8232092B2E9
:1019AC0022F4E04222F0400248F28004224320F864
:1019BC0023200A7830F822309BB223F4804323F0A2
:1019CC007003234320F82230B2E70A788AB14B78AF
:1019DC0013BB30F822309BB223F4804323F0700306
:1019EC0083F4805343F4004343F0800320F8223007
:1019FC0010E030F822309BB223F4804323F04003F4
:101A0C0083F4805383F0100343F4004343F08003CA
:101A1C0020F822300020704730F822309BB223F49B
:101A2C00E04323F0400383F0100343F4004343F0FE
:101A3C00800320F82230EDE74B781BB30A7830F89E
:101A4C00223013F0400F0BD030F8223023F0F0038B
:101A5C001B051B0D43F4004343F0C00320F8223058
:101A6C000A7830F822309BB223F4E04323F0400391
:101A7C0083F0300343F4004343F0800320F822301A
:101A8C00002070470A7830F8223013F4804F0BD0C6
:101A9C0030F8223023F0F0031B051B0D43F44043B8
:101AAC0043F0800320F822300A7830F822309BB2C1
:101ABC0023F4804323F0700383F4405343F4004336
:101ACC0043F0800320F82230DAE711B98023A0F824
:101ADC004C30002070470020704700207047B0F851
:101AEC00440070470020704701335B1000EB42024A
:101AFC0002F5806263B110B40C78487844EA002493
:101B0C0022F8044B0231013B002BF5D110BC70477D
:101B1C007047F8B58A694D78012D34D00B69934222
:101B2C0080F0EA80D21A8A618A7A002A40F0F48026
:101B3C00B0F850200C7802EBC402063200EB4202E3
:101B4C003E2B40F2DD80C3F34F1413F01F0F01D175
:101B5C00013CA4B26FEAC4646FEA5444A4B2C2F864
:101B6C0000440A7830F822309BB223F4804323F0EF
:101B7C00700383F4405343F4004343F0800320F894
:101B8C0022300020F8BD0F69974225D2D21B8A6102
:101B9C000E4604468B7A1BB30B7830F8232012F0D8
:101BAC00400F69D0002D37D1B0F8502002EBC303A1
:101BBC00063300EB43033E2F22D9C7F34F1217F025
:101BCC001F0F01D1013A92B26FEAC2626FEA524220
:101BDC0092B2C3F8002428E000238B611746D7E7A4
:101BEC00BBB28A884969FFF77FFFB4F8503032786E
:101BFC0003EBC203023304EB4303C3F800742AE083
:101C0C00C7F34F0217F0010F01D0013292B29202CA
:101C1C0092B2C3F8002408E0B0F8502002EBC303E2
:101C2C00023300EB4303C3F800743289BBB2716911
:101C3C002046FFF759FF7378002B4DD1327834F8DA
:101C4C00223023F0F0031B051B0D43F4004343F03B
:101C5C00C00324F82230327834F822309BB223F4BB
:101C6C00E04323F0400383F0300343F4004343F09C
:101C7C00800324F8223084E71DBBB0F8502002EB1F
:101C8C00C303023300EB43033E2F0ED9C7F34F12AD
:101C9C0017F01F0F01D1013A92B26FEAC2626FEADC
:101CAC00524292B2C3F8002414E0C7F34F0217F06B
:101CBC00010F01D0013292B2920292B2C3F8002409
:101CCC0008E0B0F8502002EBC303023300EB4303EF
:101CDC00C3F80074F288A9E7012BBCD1327834F830
:101CEC00223023F0F0031B051B0D43F4404343F05B
:101CFC00800324F82230AEE700238B61134613E7F0
:101D0C00C3F34F0413F0010F01D00134A4B2A402A9
:101D1C00A4B2C2F8004424E7BDB9B0F850200C7846
:101D2C0002EBC402023200EB42023E2B28D9C3F371
:101D3C004F1413F01F0F01D1013CA4B26FEAC4641D
:101D4C006FEA5444A4B2C2F800444A7882BBB0F89B
:101D5C0050200C7802EBC402063200EB42023E2B00
:101D6C001AD9C3F34F1413F01F0F01D1013CA4B2C5
:101D7C006FEAC4646FEA5444A4B2C2F80044F0E6BB
:101D8C00C3F34F0413F0010F01D00134A4B2A40229
:101D9C00A4B2C2F80044D8E7C3F34F0413F0010F08
:101DAC0001D00134A4B2A402A4B2C2F80044D8E613
:101DBC00012A7FF4D6AEB0F850200C7802EBC402A6
:101DCC00023200EB4202C2F80034CAE601335B1067
:101DDC0000EB420202F5806204E0106821F8020B6D
:101DEC00013B0432002BF8D17047D0F818321BB1EC
:101DFC000020C3F8140270470220704710B5D0F8C9
:101E0C001842D0F81C325BB194F80002FF2807D0BE
:101E1C009B6894F8012221469847FF2384F80032EE
:101E2C00002010BD432303800048704708000020A9
:101E3C0043230380004870474C0000204323038059
:101E4C0000487047900000200A2303800048704728
:101E5C00D400002038B50446D0F8185200F02CFFFE
:101E6C00C5F80C02D4F818324BB1D4F81C32DB682C
:101E7C0005F50371D5F804029847002038BD0220FF
:101E8C00FCE7000070B505460C46D0F818620B78DC
:101E9C0013F0600225D0202A07D1CA883AB9D0F8AD
:101EAC001C329B68002248789847002070BD13F0C4
:101EBC00800F0BD0D0F81C329B6831466078984765
:101ECC00E2883146284600F059FCEEE74B7886F85C
:101EDC000032CB8886F80132CA88314600F063FCA8
:101EEC00E3E74B780A2BE0D10122024900F046FCD3
:101EFC00DBE700BF7C01002010B50446812100F017
:101F0C0074FE0121204600F070FE8221204600F074
:101F1C006CFED4F8183253B1D4F81C325B68984775
:101F2C00D4F8180200F0D2FE0023C4F818320020B6
:101F3C0010BD38B50446037C73BB4FF4007302220A
:101F4C00812100F041FE4FF4007302220121204652
:101F5C0000F03AFE082303228221204600F034FED2
:101F6C004FF4077000F0AEFE0546C4F8180248B3F3
:101F7C00D4F81C321B6898470023C5F81432C5F8F6
:101F8C001832237CA3B14023D5F80422012120462A
:101F9C0000F084FE002038BD40230222812100F095
:101FAC0013FE402302220121204600F00DFED1E752
:101FBC004FF40073D5F804220121204600F06EFE88
:101FCC000020E8E70120E6E719B1C0F81C12002058
:101FDC00704702207047D0F81832C3F80812C3F8C3
:101FEC00102200207047D0F81832C3F804120020D9
:101FFC007047D0F818229AB108B5037C3BB1402346
:10200C00D2F80422012100F049FE002008BD4FF453
:10201C000073D2F80422012100F040FE0020F5E705
:10202C000220704798B108B50346D0F8140210B1DD
:10203C000020C3F8140209B1C3F81012184601238A
:10204C0080F8FC31027000F06DFD002008BD02200C
:10205C00704719B1C0F81412002070470220704765
:10206C0008B500F0A3FD002008BD08B5D0F8143267
:10207C0033B11B68984708B9002008BD0220FCE763
:10208C000220FAE708B5D0F814325B6898470020B4
:10209C0008BD38B5044600F50275284600F00CF969
:1020AC000123C4F8F431B4F80E32C4F8F83194F8C2
:1020BC00081201F01F03012B0ED03BB1022B10D0E4
:1020CC0001F08001204600F09EFD03E029462046E9
:1020DC0000F06BFA002038BD2946204600F089FA42
:1020EC00F8E72946204600F0A0FAF3E710B50446BD
:1020FC0021BB1346D0F8F421032A01D0002010BDD7
:10210C00D0F80C11D0F8102191420CD8D0F8143220
:10211C001B6923B190F8FC21032A00D19847204673
:10212C0000F058FBEAE7891AC0F80C118A4228BF64
:10213C000A4692B2194600F045FBDFE70A46D0F892
:10214C0014329B69002BD9D090F8FC110329D5D1FE
:10215C0011469847D2E710B50446002946D11346DC
:10216C00D0F8F421022A05D094F80032012B39D092
:10217C00002010BDC169026A914219D88169B1FB76
:10218C00F2F302FB13132BB98A4203D8D0F8F831BF
:10219C0099421AD3D4F81432DB682BB194F8FC2191
:1021AC00032A01D120469847204600F01EFBDBE7AE
:1021BC008A1AC26192B2194600F0EDFA00231A464F
:1021CC001946204600F06AFDCEE70022114600F0C9
:1021DC00E2FA0021C4F8F8110B460A46204600F03A
:1021EC005DFDC1E7002384F80032C1E70A46D0F850
:1021FC0014325B69002BBBD090F8FC110329B7D1CA
:10220C0011469847B4E738B50446402300221146DE
:10221C0000F0DAFC4025C4F810512B460022802136
:10222C00204600F0D1FC2562012384F8FC31D4F85F
:10223C0018322BB1D4F814325B68217920469847B8
:10224C00002038BD01740020704790F8FC3180F8F4
:10225C00FD31042380F8FC310020704790F8FD31EB
:10226C0080F8FC310020704708B590F8FC31032B46
:10227C0001D0002008BDD0F81432DB69002BF8D057
:10228C009847F6E7002302E00133DBB20130027815
:10229C00002AF9D1184670474B88012B0BD110B589
:1022AC000446C0F80432D0F814329B689847204694
:1022BC0000F090FA10BD70470B7803704B784370A8
:1022CC008B78CA7803EB022343800B794A7903EBB2
:1022DC00022383808B79CA7903EB0223C380704776
:1022EC0010B50446802100F08EFC0021204600F041
:1022FC008AFC10BD30B583B004460D464A88130ADB
:10230C00013B062B00F28180DFE803F00413277FEA
:10231C007F637000D0F810321B680DF10601007C51
:10232C009847BDF8062012B1EB88002B71D103B091
:10233C0030BD037C43B9D0F814329B6A0DF1060012
:10234C00984702234370ECE7D0F81432DB6A0DF1A6
:10235C000600984702234370E3E7D2B2052A34D82B
:10236C00DFE802F0030B131B232BD0F810325B6851
:10237C000DF10601007C9847D3E7D0F810329B682A
:10238C000DF10601007C9847CBE7D0F81032DB68E2
:10239C000DF10601007C9847C3E7D0F810321B6999
:1023AC000DF10601007C9847BBE7D0F810325B6951
:1023BC000DF10601007C9847B3E7D0F810329B6909
:1023CC000DF10601007C9847ABE72946FFF788FF23
:1023DC00ADE7037C33B9D0F814325B6B0DF106001A
:1023EC0098479EE72946FFF77BFFA0E7037C43B99C
:1023FC00D0F814321B6B0DF106009847072343707D
:10240C008FE72946FFF76CFF91E72946FFF768FF36
:10241C008DE79A4228BF1A46ADF8062001462046A1
:10242C0000F0ACF983E738B504468B88E3B9CB8868
:10243C00D3B98D7805F07F0590F8FC31032B0CD0C7
:10244C0080F8FE51294600F00DFC204600F0C2F940
:10245C0035B1022384F8FC3109E0FFF741FF06E0B7
:10246C00012384F8FC3102E02046FFF739FF38BD28
:10247C0038B504460D468978254B1970012909D8C1
:10248C0090F8FC31022B09D0032B1CD02946FFF706
:10249C0027FF02E02946FFF723FF38BD81B14160D9
:1024AC00032380F8FC31FFF7E0FD022803D020461F
:1024BC0000F090F9F1E729462046FFF711FFECE711
:1024CC0000F088F9E9E789B1436899421DD0D9B287
:1024DC00FFF7D8FD0E4B197861602046FFF7C5FD5C
:1024EC0002280DD0204600F075F9D6E7022380F8BB
:1024FC00FC314160FFF7C6FD204600F06BF9CCE7DC
:10250C0029462046FFF7ECFEC7E700F063F9C4E765
:10251C007D01002008B5CB88012B08D190F8FC3147
:10252C00022B07D0032B0DD0FFF7DAFE01E0FFF7EB
:10253C00D7FE08BD0146002341F8083F012200F0F8
:10254C001DF9F6E70122011D00F018F9F1E708B5B5
:10255C0090F8FC31023B012B0CD80123C360D0F85E
:10256C0004320BB10323C360022200F10C0100F012
:10257C0005F908BDFFF7B4FEFBE710B5044690F86B
:10258C00FC31023B012B0DD84B88012B09D10023C8
:10259C00C0F80432D0F814329B689847204600F0FB
:1025AC0019F910BDFFF79CFEFBE708B54B78092B1A
:1025BC001CD8DFE803F012181B151B09051B0F0CA8
:1025CC00FFF798FE002008BDFFF72DFFFAE7FFF795
:1025DC004FFFF7E7FFF79EFFF4E7FFF7B8FFF1E7D0
:1025EC00FFF75AFEEEE7FFF7C8FFEBE7FFF778FEC1
:1025FC00E8E738B504460D4690F8FC31032B11D1B1
:10260C000B79012B0BD8D0F814329B689847EB88C8
:10261C000BB1002038BD204600F0DCF8F9E7FFF7DD
:10262C005FFEF6E7FFF75CFEF3E738B505460C46B0
:10263C008A880B7803F06003202B05D1D0F8143274
:10264C009B689847002038BDD1B26378012B25D008
:10265C00002B47D0032BF5D190F8FC31022B05D081
:10266C00032B0AD02146FFF73BFEEBE70029E9D00C
:10267C008029E7D000F0C7FAE4E7638823B919B1E1
:10268C00802901D000F0BFFAD5F814329B6821469E
:10269C0028469847284600F09DF8D3E790F8FC317F
:1026AC00022B05D0032B0AD02146FFF719FEC9E7F0
:1026BC000029C7D08029C5D000F0A5FAC2E76388ED
:1026CC00002BBFD111F07F0F03D1284600F082F808
:1026DC00B8E700F0A6FAD5F814329B6821462846D4
:1026EC009847F2E790F8FC31022B05D0032B09D068
:1026FC002146FFF7F5FDA5E711F07F0FA2D000F002
:10270C0082FA9FE712F0800F11D101F07F04103490
:10271C0000EB04140434284600F091FA70B1012344
:10272C00236002222146284600F028F88AE701F0AF
:10273C007F04013400EB04140434ECE70023236021
:10274C00EFE7D0B170B50D4616460446FFF79AFD7B
:10275C000130400080B23080287003236B7002235C
:10276C0007E001345A1CD2B2E9540233DBB2002127
:10277C00A95421780029F4D170BD704710B51346C7
:10278C000222C0F8F4218361C3610A46002100F0E3
:10279C0077FA002010BD08B513460A46002100F058
:1027AC006FFA002008BD10B513460322C0F8F421BF
:1027BC00C0F80831C0F80C310A46002100F06EFA5E
:1027CC00002010BD08B513460A46002100F066FA39
:1027DC00002008BD08B50423C0F8F43100231A46C4
:1027EC00194600F04DFA002008BD08B50523C0F8C5
:1027FC00F43100231A46194600F050FA002008BDA7
:10280C0030B589B000240494059406940794184BB1
:10281C009A6942F010029A619A6902F010020192D0
:10282C00019A9A6942F020029A619A6902F0200298
:10283C000292029A9A6942F004029A619B6903F02F
:10284C0004030393039B0B4D01224FF400512846C4
:10285C00FDF710FE4FF400530493012305930694E7
:10286C000223079304A92846FDF71AFD09B030BDD1
:10287C00001002400010014030B595B000240C94BB
:10288C000D940F941094059406940794089409944D
:10289C00019402940394049401220A924FF480331D
:1028AC000B930E920225119512934FF4E013139390
:1028BC000AA8FEF765FA0F230593069507944FF4C3
:1028CC00806308930994294605A8FEF77FFC102322
:1028DC000193049401A8FEF747FD15B030BD08B56F
:1028EC00FDF752FCFFF7C8FFFFF78AFF00F05EF818
:1028FC00FEE7704782B00E4B9A6942F001029A6172
:10290C009A6902F001020092009ADA6942F0805250
:10291C00DA61DB6903F080530193019B054A53682C
:10292C0023F0E06343F00073536002B0704700BFC4
:10293C0000100240000001407047FEE7FEE7FEE792
:10294C00FEE770477047704708B5FDF72FFC08BDD0
:10295C0008B50248FEF7E0F808BD00BF980D00204E
:10296C000F4B1A6842F001021A6059680D4A0A406E
:10297C005A601A6822F0847222F480321A601A6843
:10298C0022F480221A605A6822F4FE025A604FF434
:10299C001F029A60044B4FF000629A60704700BFB0
:1029AC00001002400000FFF800ED00E010B5094CEB
:1029BC00002209492046FFF735FB08492046FFF75E
:1029CC0048FB07492046FFF7FFFA2046FFF748FB74
:1029DC0010BD00BFA403002044010020E000002033
:1029EC001C010020002070470020704738B50546B8
:1029FC000378312B0BD0302B10D00C4C29462046B1
:102A0C00FFF7F1FA2046FFF7F4FA002038BD002258
:102A1C004FF400510648FDF72DFDEEE701224FF46F
:102A2C0000510348FDF726FDE7E700BFA403002093
:102A3C000010014010B5064C002206492046FFF755
:102A4C00CAFA05492046FFF7CEFA002010BD00BF98
:102A5C00A4030020B0090020C805002002680E4B1A
:102A6C009A4200D0704700B583B003F5DA33DA69C7
:102A7C0042F40002DA61DB6903F400030193019B69
:102A8C00002211461420FDF7B5FB1420FDF7E6FBE0
:102A9C0003B05DF804FB00BF005C004008B500F219
:102AAC002C41D0F85C04FFF7F4FA08BD08B500EB34
:102ABC004113D3F83C22D0F85C04FFF717FB08BD98
:102ACC0008B500EB4113DA6BD0F85C04FFF743FB5D
:102ADC0008BD08B5D0F85C04FFF7C6FB08BD10B5FF
:102AEC0004460121D0F85C04FFF7ACFBD4F85C047D
:102AFC00FFF789FB10BD000010B50446D0F85C044C
:102B0C00FFF7A3FBA36923B1024A136943F0060341
:102B1C00136110BD00ED00E008B5D0F85C04FFF7C0
:102B2C009DFB08BD10B504461E48C0F85C44C4F8B3
:102B3C0020021D4B036008234360022383600323A0
:102B4C00C36000238361C3610362FDF799FC30BB52
:102B5C00182300221146D4F82002FEF7E2F858237D
:102B6C0000228021D4F82002FEF7DBF8C0230022DB
:102B7C008121D4F82002FEF7D4F84FF48873002298
:102B8C000121D4F82002FEF7CCF84FF48073002218
:102B9C008221D4F82002FEF7C4F8002010BDFFF704
:102BAC00A8FED5E7980D0020005C004008B5D0F8D1
:102BBC002002FDF7D0FC18B1022803D0022008BD7A
:102BCC000020FCE70120FAE710B51C46134622460C
:102BDC00D0F82002FDF7EAFC18B1022803D002203D
:102BEC0010BD0020FCE70120FAE708B5D0F8200260
:102BFC00FDF705FD18B1022803D0022008BD002006
:102C0C00FCE70120FAE708B5D0F82002FEF734F80B
:102C1C0018B1022803D0022008BD0020FCE70120D7
:102C2C00FAE708B5D0F82002FEF754F818B10228DC
:102C3C0003D0022008BD0020FCE70120FAE7D0F801
:102C4C00203211F0800F06D101F07F0103EB41110E
:102C5C0091F82A02704701F07F0103EB411191F8C2
:102C6C002A00704708B5D0F82002FDF78BFC18B18C
:102C7C00022803D0022008BD0020FCE70120FAE75F
:102C8C0008B5D0F82002FDF707FD18B1022803D0D3
:102C9C00022008BD0020FCE70120FAE708B5D0F8B7
:102CAC002002FDF7D3FC18B1022803D0022008BD86
:102CBC000020FCE70120FAE708B5D0F82002FDF768
:102CCC00E4FC08BD00487047800100207047704745
:102CDC0012230B80004870472C01002004230B802A
:102CEC00004870474001002008B50A4628B1054944
:102CFC000548FFF726FD034808BD02490248FFF7C7
:102D0C0020FDF8E7F8110020782E000810B5044CCF
:102D1C000A4621460348FFF714FD204610BD00BFAC
:102D2C00F8110020902E000808B50A4628B1054974
:102D3C000548FFF706FD034808BD02490248FFF7A6
:102D4C0000FDF8E7F8110020A42E000808B50A468B
:102D5C0028B105490548FFF7F4FC034808BD0249B2
:102D6C000248FFF7EEFCF8E7F8110020B42E00083B
:102D7C0008B50A4628B105490548FFF7E2FC0348A7
:102D8C0008BD02490248FFF7DCFCF8E7F811002007
:102D9C00C02E0008002103E00B4B5B58435004315C
:102DAC000A480B4B42189A42F6D30A4A02E0002317
:102DBC0042F8043B084B9A42F9D3FFF7D1FD00F0DF
:102DCC000FF8FFF78CFD7047D82E0008000000208C
:102DDC006001002060010020F8130020FEE70000D5
:102DEC0070B500250C4E0D4CA41BA410A54209D1A6
:102DFC0000F01AF800250A4E0A4CA41BA410A54298
:102E0C0005D170BD56F8253098470135EEE756F8D8
:102E1C00253098470135F2E7D02E0008D02E000857
:102E2C00D02E0008D42E0008F8B500BFF8BC08BCA2
:102E3C009E467047F8B500BFF8BC08BC9E4670476C
:102E4C0002030405060708090A0B0C0D0E0F1010DF
:102E5C000102000000000000000000000102030459
:102E6C0006070809000000000102030453544D3307
:102E7C0032205669727475616C20436F6D506F729D
:102E8C007400000053544D6963726F656C65637414
:102E9C00726F6E6963730000303030303030303018
:102EAC00303031410000000043444320436F6E66D4
:102EBC006967000043444320496E74657266616320
:042ECC00650000009D
:042ED00031010008C4
:042ED4000D010008E4
:102ED800010000001000000009024300020100C0C8
:102EE8003209040000010202010005240010010556
:102EF80024010001042402020524060001070582BA
:102F08000308001009040100020A00000007050177
:102F1800024000000705810240000000090243004A
:102F2800020100C032090400000102020100052468
:102F380000100105240100010424020205240600F2
:102F4800010705820308001009040100020A0000B5
:102F580000070501020002000705810200020000C7
:102F680009074300020104C03209040000010202FB
:102F780001000524001001052401000104240202B7
:102F88000524060001070582030800FF0904010063
:102F9800020A00000007050102400000070581023F
:102FA800400000000A060002000000400100000086
:102FB8003F1F0008051F0008911E000800000000C0
:102FC800091E0008F71D0008611E00080000000027
:102FD80000000000000000003D1E0008311E00082F
:102FE800491E0008551E000800A24A04412A00088C
:102FF800F1290008F5290008F92900081201000242
:10300800020200408304405700020102030100004D
:1030180004030904DD2C0008E92C0008192D000818
:10302800F52C0008352D0008592D00087D2D0008C5
:0400000508002DA121
:00000001FF
